:1000000000800020BD01000029120000E111000065
:10001000E1110000E1110000E1110000E111000018
:10002000E1110000E1110000E111000029120000BF
:1000300029120000E1110000092500000D26000032
:1000400029120000291200002912000029120000C4
:1000500029120000291200002912000029120000B4
:1000600029120000291200002912000029120000A4
:100070002912000029120000291200002912000094
:100080002912000029120000291200002912000084
:100090002912000029120000291200002912000074
:1000A00095100000A1100000291200002912000084
:1000B0002912000029120000291200002912000054
:1000C0002912000029120000291200002912000044
:1000D0002912000029120000291200002912000034
:1000E0002912000029120000291200002912000024
:1000F00029120000A52A000029120000D12B0000BF
:1001000029120000FD2C0000291200002912000015
:1001100029120000291200002912000029120000F3
:1001200029120000291200002912000029120000E3
:1001300029120000291200002912000029120000D3
:1001400029120000291200002912000029120000C3
:1001500029120000291200002912000029120000B3
:1001600029120000D51700002912000029120000F2
:100170002912000029120000291200002912000093
:100180002912000029120000291200002912000083
:100190002912000029120000291200002912000073
:1001A0002912000029120000291200002912000063
:1001B000291200002912000029120000564B4CF2AF
:1001C000205210B51A804DF628121A8000BF00BFC9
:1001D00001F02EF8514B4FF010621A60504A9A60AD
:1001E000504ADA60504A136813F4807304D14F49BF
:1001F0000B604FF4A85313604D4B1A78110703D5C9
:100200001A7842F008021A704A4B4B492A221A7097
:100210004A4A4B4B8B4204D252F8040F43F8040B6A
:10022000F8E7484B484900228B4202D243F8042B9E
:10023000FAE74649464A002352F8230041F82300D2
:1002400001336F2BF8D1434B434A802103F8011B44
:100250009342FBD1414B3D4A1A60414B8A221A70AE
:10026000A3F5805324225A70A0221A709A7992071B
:10027000FCD59A79D406FCD43A4A937903F00C035E
:10028000082B384BF9D103221A7140225A719A79FE
:100290009006FCD5334A9179324B4906FBD5324A58
:1002A000324911600221516020221A709A7902F0BD
:1002B0000C020C2AFAD12E4B2E4A1A602E4B2F4AD2
:1002C0001A6000225A60072243F8042C2C4AC3F813
:1002D0000C2D62B601F056F9144B1B68DA0705D5F0
:1002E000284801F0E3F8284B284A1A60284B1B786D
:1002F0005B0609D5244C254B22689A4204D121483B
:1003000001F0D4F80023236003F03AFA00F096FFDE
:1003100002F084F9FEE700BF0E2005403080044063
:10032000823F04000100002B10D0034014D0034092
:1003300002D0074000E00740EC92FF1F944300000A
:100340002087FF1FEC92FF1F3896FF1F0082FF1FC0
:100350000000000000E400E05FE400E008ED00E0E1
:100360000050064000400640448004400000030165
:1003700004800440C010050014E000E0FF76010096
:10038000000020207DF23D041CE00340A5C3945AE8
:1003900000F00740FFFFFFFFFFFFFFFFFFFFFFFF32
:1003A000FFFFFFFFFFFFFFFFFFFFFFFFFFFFFFFF5D
:1003B000FFFFFFFFFFFFFFFFFFFFFFFFFFFFFFFF4D
:1003C000FFFFFFFFFFFFFFFFFFFFFFFFFFFFFFFF3D
:1003D000FFFFFFFFFFFFFFFFFFFFFFFFFFFFFFFF2D
:1003E000FFFFFFFFFFFFFFFFFFFFFFFFFFFFFFFF1D
:1003F000FFFFFFFFFFFFFFFFFFFFFFFFFFFFFFFF0D
:10040000FFFFFFFFFFFFFFFFFFFFFFFFDEF9FFFF23
:1004100010B5054C237833B9044B13B10448AFF33E
:1004200000800123237010BDEC92FF1F000000002C
:1004300098430000084B10B51BB108490848AFF3BA
:1004400000800848036803B910BD074B002BFBD0A0
:10045000BDE81040184700BF00000000F092FF1FE9
:1004600098430000EC92FF1F00000000FFFFFFFF19
:1004700038B5214A2149224D224C1378002BFCD05B
:100480000B789B07F9D02B6820681B1A182BF4D91E
:100490001D4800F027FB00211B4800F0DBFA01217A
:1004A000194800F0F9FA0321174800F0DDFA7C2121
:1004B000154800F0CFF90CA3D3E90023124800F04F
:1004C000FDF90BA3D3E9002301210F4800F00EFA38
:1004D0000D4800F061FA08210C4801F0AFFE0C480D
:1004E000BDE8384002F0A2B8D2F0F0F0F000000011
:1004F000E1F0F0F0F00000002494FF1F3C94FF1F97
:100500004093FF1F3096FF1F0893FF1FD440000049
:10051000F489FF1FF0B5344F344D354C354E83B060
:10052000384600F0B5F91C223846294600F0BAF9E1
:10053000B5F90010204602F0C9F83046012101F05B
:100540007DFEB5F90210204602F0C0F830460121C8
:1005500001F074FEB5F90410204602F0B7F83046F9
:10056000012101F06BFEA86802F0E0FD02270246BF
:100570000B460097204602F0B3F83046012101F007
:100580005DFEE86802F0D2FD009702460B46204669
:1005900002F0A6F83046012101F050FE286902F071
:1005A000C5FD009702460B46204602F099F83046FA
:1005B000012101F043FE686902F0B8FD0097024690
:1005C0000B46204602F08CF83046012101F036FE41
:1005D000A969204600230A2202F038F8204603B019
:1005E000BDE8F04002F022B80893FF1F2093FF1FE0
:1005F000F489FF1FE040000008B50A2208210648E0
:1006000000F01AF9054B00224FF07E519960DA6034
:100610001A615A6108BD00BF0893FF1F2093FF1F96
:1006200038B504460D460B48012100F0B5FB00210A
:10063000084800F0D7FB4FF06051064800F0D8FBA7
:100640002946A07800F044FF63695B0101D0013BBB
:10065000FDD138BDFC87FF1F38B50C46002105468B
:10066000FFF7DEFF0D4B1B6804F01F044FF0004244
:10067000DA625C63DA6A002AFCDA4FF00041FF229A
:10068000986BD9625A63DA6A002AFCDA9C6B2846B6
:100690000121FFF7C5FFE0B238BD00BFFC87FF1F97
:1006A000F8B50E46002114461F460546FFF7B8FF71
:1006B000124B06F01F02196842F020024FF000436F
:1006C000CB624A63CA6A002AFCDA8E6B781EF6B2E5
:1006D000C0B26FB12044621E4FF0004412F8013FD7
:1006E000CC624B63CB6A002BFCDA82428B6BF5D178
:1006F00028460121FFF794FF3046F8BDFC87FF1F15
:1007000070B50C46002116460546FFF789FF0E4BD3
:1007100004F01F041B6844F020044FF00042DA622A
:100720005C63D96A0029FCDA9C6B4FF00042DA6204
:10073000E4B25E63DA6A002AFCDA284601219B6B88
:10074000FFF76EFF204670BDFC87FF1F2DE9F047C5
:10075000C3790D46017A93429946064628BF9146D1
:1007600000294AD1C9EB03035FFA83F808F1FF348B
:10077000E4B200213046FFF753FFDFF888E0DEF8EF
:1007800000104FF000426123CA624B63CB6A002B1A
:10079000FCDA8F6B09F1FF305FFA87FAC0B2B9F16A
:1007A000000F11D028446A1E4FF00047FF25CF628A
:1007B0004D63CB6A002BFCDA8B6B02F8013F82425F
:1007C00002D0DEF80010F2E7B8F1000F0ED0DEF82C
:1007D00000204FF00040FF21D0625163D36A002B0C
:1007E000FCDA013CE4B2FF2C936BF5D130460121D9
:1007F000FFF716FF5046BDE8F087FF244FF00008D2
:10080000B7E700BFFC87FF1F38B50C46002105463F
:10081000FFF706FF074B1A684FF00043D36254639B
:10082000D36A002BFCDA946B28460121FFF7F8FE0F
:10083000E0B238BDFC87FF1F70B4002405252026D8
:10084000C67184710472447285734561018042806F
:1008500070BC70477C2994BF0A467D220521FFF7B2
:100860004FBF00BF10B500210446FFF7F5FE00F0B2
:10087000020303B110BD40F0020203F0FF01204665
:10088000D2B2FFF73DFF0520BDE8104000F02CBEBE
:1008900008B51721FFF7E0FE00F0010080F001002D
:1008A00008BD00BF10B50446FFF750FF2046702278
:1008B0000721BDE81040FFF723BF00BF30B583B06C
:1008C00002AD65E9022304462A46837B0A21FFF72D
:1008D000E7FE2A46A37B20461021FFF7E1FEE279DE
:1008E00020461121FFF70CFF03B030BD70B582B078
:1008F000CDE9002305460C4611B3062901D902B003
:1009000070BD01292AD0164A0123515C6A46FFF7BF
:10091000C7FE144BEA79195D2846FFF7F1FE022164
:100920002846FFF799FE104B1A5D012303FA02F2E5
:100930000243D2B228460221FFF7E2FE02B070BDA8
:10094000827B694609306E4600F0B0FB044AAB7BFF
:10095000115D28463246FFF7A3FEDAE76E46F5E75B
:10096000EC400000E4400000F440000038B50D46C3
:1009700002210446FFF770FE064B5A5D012303FA7D
:1009800002F220EA0202D2B220460221BDE838403B
:10099000FFF7B6BEF440000010B50446FFF762FF53
:1009A00000212046FFF758FE40F00102D2B200219C
:1009B0002046FFF7A5FE204670220721FFF7A0FE84
:1009C00020886388834203D0C0B2012100F080FDFB
:1009D000617A69B1A37B04F109020A212046FFF77D
:1009E0005FFE1D212046FFF737FE830709D410BDA7
:1009F0002046FFF7BBFF1D212046FFF72DFE830792
:100A0000F5D52046E121BDE81040FFF7FDBE00BF4F
:100A100010B500210446FFF703FE0D4B1B684FF095
:100A200000415022D9625A63DA6A002AFCDA4FF098
:100A300000417322986BD9625A63DA6A002AFCDAA1
:100A400020469B6B0121BDE81040FFF7E9BD00BFC8
:100A5000FC87FF1F19B90A460121FFF751BE3F224B
:100A60000121FFF74DBE00BF38B50C4606210546F3
:100A7000FFF7F2FD032C9CBF6400013400F0F80284
:100A800094BF04F0FF040724224328460621BDE852
:100A90003840FFF735BE00BF70B50E46062104464C
:100AA000FFF7DAFD022E00F0D70514D0012E12BF99
:100AB000FA23BE2345F0080523612A460621204675
:100AC000FFF71EFE20460621FFF7C6FD281AB0FAE2
:100AD00080F0400970BD4FF4E17345F020052361BB
:100AE000EBE700BF70B504460088638883420BD0F3
:100AF000C0B2012100F0F2FC60882388834203D059
:100B0000C0B2012100F0EAFC304800F007F920886B
:100B10006388834203D0C0B2002100F0D9FC0121D8
:100B20002046FFF77DFD052000F0DEFC0C220021B1
:100B30002046FFF7E5FD04215F222046FFF7E0FD98
:100B400002212046FFF7A8FF08B10123A371062167
:100B50002046FFF781FD002105462046FFF79CFF58
:100B60002046FFF755FF002600221D212046FFF7F3
:100B7000C7FD32461C212046FFF7C2FD26727022B7
:100B800007212046FFF7BCFD4C2205212046FFF738
:100B9000B7FDE2212046FFF737FEE1212046FFF7AF
:100BA00033FE2046FFF75EFE31462046FFF754FD38
:100BB000314600F0FE022046FFF7A2FD681EC0B2DB
:100BC000FD288CBF0020012070BD00BFFC87FF1FE7
:100BD00010B4047F4160022CC26002D010BC01F04E
:100BE00031BC836810BC1847F0B4464B464A186BBA
:100BF000DC6A01791170454922790A709A6A007994
:100C00000870002A46D05968C9688A423ED82168CF
:100C1000CC8B240402F1FF3065D4C0F30E00C883EE
:100C2000C88B80B2C882196B0968C88B000452D483
:100C3000C2F30E00C883C88B002480B212F1FF32C9
:100C4000C88218BF01229C62D96A2E4809680D68C3
:100C500000F12404A54236D00068C46814F0804F27
:100C60000C680D6815BF248824780235013544F0DE
:100C700000440D604463196B254B097919702149B3
:100C800012B1CA6A12791A70F0BC7047521A9A628D
:100C90000122D9E7586B196805681E4C0A63CC62BB
:100CA000CC682D681C4E24F080440327B542CC60EC
:100CB00083F825701FD1037F4260022BC2601ED0D3
:100CC000F0BC01F0BFBB016890F82400CC6840F094
:100CD00000404863CFE7CC8BC2F3080004F47E44A5
:100CE0002043C883A7E7CC8BC0F3080004F47E44FC
:100CF0002043C88394E72B461146F0BC184783680D
:100D0000F0BC1847FC87FF1F1F8000401C8000407C
:100D10001B80004000000FFFD10B000090E80C008A
:100D2000F0B41C6859682568164F174E2943216096
:100D3000164D17491760D66015611160417A154A42
:100D40005C180A3194F8244053F8215002EBC40196
:100D500049680D60017A5C1803EB8101247ECD693E
:100D600002EBC40149680D60817A581803EB8103D6
:100D700090F83000596B02EBC002F0BC5368196068
:100D8000704700BF01401F000110003801100078BB
:100D900000001F80D84100004268036805CA10B4F3
:100DA000046822430260DA6881B942F08072D9682F
:100DB0008A4209D0196848040BD40948186042F0E7
:100DC0008040DA601861196010BC704722F08072B0
:100DD000EDE742F08041DA6010BC1961704700BF56
:100DE00001401F0043680CCB11680B431360704730
:100DF0004268036805CA10B4046822430260D868D8
:100E0000840100F0E06205D5080900F4706021F467
:100E100070410143D8681143814209D01A685004D7
:100E200008D40748186041F08040D96018611A6002
:100E300010BC704741F08042D96010BC1A61704705
:100E400001401F000020704790F8392090F83800CA
:100E5000101A704790F8383090F839209A4205D926
:100E60005A1C034480F83820187E70474FF0FF303A
:100E7000704700BF90F8383090F839209A4286BF0A
:100E80001B18187E4FF0FF30704700BF704700BF3F
:100E900038B50546B0F85E0090B195F85D3014465F
:100EA000C3F1210294420CD805F13B0018442246BC
:100EB00000F0FCF895F85D30234485F85D3020465D
:100EC00038BD012014462871EEE700BFB0F85E304F
:100ED0006BB190F85D30202B07D8C218013380F831
:100EE0005D30012082F83B10704701230371002020
:100EF000704700BF10B50269D378DBB2D90604464B
:100F00003DD510215806D17038D503F0040303F005
:100F1000FF02002B51D03D49626E00230B7084F814
:100F20005D30002A5BD0904794F85D30002B56D09E
:100F30002369D0229A70236994F83B201A7123699F
:100F4000012284F85C200222DA7010BD304B84F854
:100F500060009C424AD02F4B9C4252D094F83910EA
:100F600013791F29DBB207D82848007820B1601810
:100F7000013184F8391003760223D37010BD59066D
:100F8000C3D4917801F0100101F0FF000029DDD0F9
:100F900013F001031ED194F85C1094F85D008842B0
:100FA00081BF4B1C091984F85C3091F83B301371F8
:100FB0002369D0229A702269DEE7236984F83920F8
:100FC000C0229A702369114A1979012111700222F5
:100FD000DA7010BDC023937022691379CCE7012227
:100FE000002384F85D2084F83B30A1E7626994F81F
:100FF0006130094913440322187A00F097F92269F5
:10100000ACE7626994F861300449F3E73C93FF1F51
:101010003488FF1FA088FF1F7D100000891000008A
:101020000369DB7803F0200373B190F8603001337B
:10103000DBB2012B80F860301AD9426990F8613038
:101040001344187A00F0EEB970B5426903F0FF0559
:1010500090F8613013440446187A00F0E3F9A36E67
:101060005BB184F8385094F83900BDE870401847F7
:1010700090F85F30002BE0D0704770BD0148FFF75B
:10108000CFBF00BF3488FF1F0148FFF7C9BF00BFB3
:10109000A088FF1F0148FFF72DBF00BF3488FF1F46
:1010A0000148FFF727BF00BFA088FF1F844641EA21
:1010B000000313F003036DD1403A41D351F8043BD0
:1010C00040F8043B51F8043B40F8043B51F8043B22
:1010D00040F8043B51F8043B40F8043B51F8043B12
:1010E00040F8043B51F8043B40F8043B51F8043B02
:1010F00040F8043B51F8043B40F8043B51F8043BF2
:1011000040F8043B51F8043B40F8043B51F8043BE1
:1011100040F8043B51F8043B40F8043B51F8043BD1
:1011200040F8043B51F8043B40F8043B51F8043BC1
:1011300040F8043B51F8043B40F8043B403ABDD230
:10114000303211D351F8043B40F8043B51F8043BD2
:1011500040F8043B51F8043B40F8043B51F8043B91
:1011600040F8043B103AEDD20C3205D351F8043B61
:1011700040F8043B043AF9D2043208D0D2071CBF2D
:1011800011F8013B00F8013B01D30B880380604656
:10119000704700BF082A13D38B078DD010F00303CC
:1011A0008AD0C3F10403D21ADB071CBF11F8013B3C
:1011B00000F8013B80D331F8023B20F8023B7BE78B
:1011C000043AD9D3013A11F8013B00F8013BF9D2B6
:1011D0000B7803704B7843708B7883706046704750
:1011E00008B5104C08E0236859050DD423681A058A
:1011F0000FD42368DB0411D423685803F3D500F01F
:10120000E9FA23685905F1D501F04CFC23681A0569
:10121000EFD501F0DDFC2368DB04EDD501F06EFDB8
:10122000EAE700BF3480044008B5FFF7D9FF00BFEC
:10123000014B10221A80704700200540704700BF04
:10124000094908B50B6830B16A461844A2F58052C6
:10125000904202D20860184608BD02F08BFA0C23B7
:1012600003604FF0FF3008BD0C89FF1F704700BFBF
:1012700010B40F4B53F8302092F880422CB1012368
:1012800069B182F8803010BC704703EBC0035B6823
:101290001A6841B922F002021A6010BC704782F845
:1012A000003110BC704742F003021A6010BC704756
:1012B000D84100001C4A02EBC00301295B6811D031
:1012C00004291BD052F83000002280F8802229B176
:1012D000022920D0032922D01A6070474FF480726F
:1012E0001A60704752F830004FF4A27280F88012F2
:1012F0001A601A6822F020021A60704752F8301003
:101300004FF4A272012081F880021A601A6842F03C
:1013100020021A60704740F203121A6070474FF4BF
:1013200081721A60704700BFD8410000212817D889
:10133000F8B5042A13D8DFE802F0494C4F144600F0
:101340002C4872B6236823F4702343F08072C4F3F0
:1013500084011643236040F82150266062B6F8BD30
:1013600070474FF41026244B03EBC0030D465C6816
:10137000216811F4E06134D0204B214A2149C3F89F
:101380009C2104F140422048C3F8A411A2F5922107
:101390001E4FC3F8A0017C291D48C3F8A871C3F8EB
:1013A000AC01CDD9A2F594237C2B18D9A2F59623B4
:1013B0007C2B19D9A2F598237C2B17D9A2F59A2258
:1013C0007C2A15D9F8BD4FF43026CCE74FF400261F
:1013D000C9E74FF44026C6E74FF42026C3E70D487F
:1013E000AFE7FFF767FFC7E70B48AAE70B48A8E797
:1013F0000B48A6E71089FF1FD84100000082FF1F9D
:10140000D187FF1F7987FF1FA587FF1F4D87FF1F0C
:101410002187FF1F4889FF1F9889FF1FC889FF1F69
:10142000E889FF1F1A4B03EBC00010B4426802F1B9
:101430004043A3F592217C2905D9A3F594217C2969
:1014400013D8144900E0144972B61368134C23F002
:101450008773C2F3840023F4803343F080731360F6
:1014600041F8204062B610BC7047A3F596217C2954
:1014700009D9A3F598217C2907D9A3F59A237C2BB8
:10148000F1D80749E0E70749DEE70749DCE700BF95
:10149000D84100004889FF1F1089FF1F6D1200000E
:1014A000E889FF1F9889FF1FC889FF1F30B4054BCB
:1014B000054D064C002210211A602A602060196038
:1014C00030BC704714D0034004D0034000D0034028
:1014D000212801D8FFF7CCBE704700BF212801D8D2
:1014E000FFF7E8BE704700BF2DE9F843054672B626
:1014F000204F214B214A1B683C68126862B652019A
:1015000002D5322B88BF013495B3C3F5BB331C4ED3
:10151000DFF86490DFF86480FF334FF47A72A6FB43
:10152000031302FB04F404EB931472B6D9F8001011
:101530003A68D8F800E062B6C1F5BB33FF33A6FBCA
:1015400003031EF0806FC4EB93134FF47A7002D044
:10155000322988BF013200FB0233B3F57A7F04D30E
:10156000013D05D004F57A74DFE701F0A7F9DCE767
:10157000BDE8F8834093FF1F18E000E004ED00E0B1
:10158000ABAAAAAAF8B52D4B2D49DFF8D0E0DFF8B9
:10159000D0C02C4E2C4D2D4C2D4A2E4F4FF4000018
:1015A00018604FF0807018604FF0007018604FF0B6
:1015B000806018604FF000601860002008602823E9
:1015C0004BF6FF71CCF80010CEF80030336013609A
:1015D0002B6023603B60B3629362092245F8242CA0
:1015E000C4F8D80F05F57F65C7F8D41F07F5FF27A6
:1015F00007F5FA67C6F8F83F2B6006F5FF26C4F832
:10160000D42F05F5FD2504F5FF24386006F2F476A5
:101610001148316005F5FF6504F5FD642B6023601A
:10162000026001F099F93220FFF75EFF00F0FEFC46
:101630004FF4AF70BDE8F840FFF756BF08E100E097
:101640000480034014800340248003402C80034026
:101650001C8003403480034000800B400C8003401A
:1016600008800340431E032B14D872B60A4951F870
:10167000230068B170B4094C058834F8132046681B
:1016800041F82360521B24F8132062B670BC7047E7
:1016900062B67047002070479C93FF1F2096FF1F83
:1016A000013803280BD872B6074B53F8203043B1EA
:1016B00000205B680130002BFBD162B67047002030
:1016C00070471846F9E700BFF093FF1FF0B472B6F9
:1016D0001A491B4E012311F8014B194F9A00240798
:1016E00042F0010505D556F8324064B156F8352070
:1016F000BAB10133052BEED162B6124B00221A703B
:10170000F0BC00F00FBD0F4C0F4D217847F8325060
:1017100007EB431308304A1E5860227062B6F0BCD3
:1017200070470849094B0A7847F8353007EBC5037D
:101730000830013A58600A7062B6F0E720430000B2
:101740000080FF1F1994FF1F88004000C800400060
:10175000431E032B1DD81B4A400140F0100030B43B
:10176000104472B6184CE25C032A1BD8DFE802F082
:101770000212151703220D88E25410F0080F14BF4F
:10178000C823882343EA054308310360416062B6F9
:1017900030BC704708300222EDE70522EBE7083045
:1017A0000422E8E7094A52F8230038B1084A52F8FF
:1017B0002300416042F8231062B6E9E742F82310A3
:1017C000034AF7E70080FF1F2894FF1FF093FF1FD5
:1017D0000094FF1F2DE9F04FDFF804A3DFF804B3F6
:1017E00087B044E0A94F4FEA930807EBC809013ED0
:1017F000D9F8042003F00803F6B2A2F1080003F0C0
:10180000FF04002B40F0FE8057F838301B0C99B2D3
:1018100022F8081C002B00F0EC809D4B22F8064CAF
:1018200042F8044C53F82620002A00F02B82994DF0
:1018300055F826305860984C45F8260034F8163094
:10184000194424F8161000F04DFC002800F0138213
:10185000924A934B19F0080F00F1080018BF134685
:10186000C9F8040047F8383008238AF800309AF89D
:101870000040E4B260071AD58A4B1B78A3B18A49AD
:101880000A7802F0FF0322B1013BDBB20B7003B90F
:1018900000BE86490A7802F0FF032AB1013BDBB2A1
:1018A0000B70002B00F0BD8104238AF8003004F097
:1018B000080303F0FF02002B00F0C8809BF8003003
:1018C000DBB21E098ED19C08704F57F8342007EB0D
:1018D000C401C2F38302013A49680C2A00F28580F0
:1018E000DFE802F079798383838383834283838370
:1018F000070008686E4B6F4D0193684B4A686E4E47
:1019000047F8343081B240F28164694B6A602860E4
:1019100000220120A1421A603A61BA61307000F2DF
:10192000E380B1F5D06F80F02782B1F5817F00F0C0
:10193000E08100F2C381802900F03682822940F0E4
:10194000DE81A9885D4B01F07F01042900F2D88176
:101950005B4C89000B44227062701A78930740F147
:1019600022832070022023E2514B01931A683AB37C
:10197000544B514E5449188834780D784028864687
:1019800045F0020828BF4FF0400E002C84F00104FF
:101990003470CEEB00000CBF8824C82407EBC806C7
:1019A00080B285F0010544EA0E447260188047F861
:1019B000384072440D70002800F0B780019B1A6017
:1019C0003C4B1A88B2F5A06F0FD100219A7859705C
:1019D0003E4B1A7009E0374A108842F221029042C9
:1019E00000F0A8802D4A47F83420394A01231370AB
:1019F0003AE72A4A2A4B19F0080F18BF134647F84E
:101A0000383031E700F08EFB324A334952F8263045
:101A1000002B00F03B8158688C5D42F8260003F1F2
:101A20000802C9F80420032C05D8DFE804F02C02D2
:101A3000292602228A551A8819F0080F0CBF88231C
:101A4000C82343EA024347F838300DE7E00700F1C6
:101A5000EB80210600F12881A20706D51F4A204904
:101A600013780220DBB213700870E30602D51C4B1A
:101A700010221A7007B0BDE8F08F04228A55DAE709
:101A800005228A55D7E703228A55D4E70080FF1F35
:101A90009C93FF1F4893FF1F2096FF1FC800400024
:101AA000880040002494FF1FAD93FF1F2C94FF1F5C
:101AB0004493FF1F1094FF1FAC93FF1FC0200740EB
:101AC0001C94FF1F5893FF1F1894FF1F9820074076
:101AD00094200740F093FF1F2894FF1F88200740A1
:101AE000802007409020074042F22104A14200F0EC
:101AF000948043D8B1F5086F00F0A881B1F5106F5C
:101B000040F0FD80B84AB94CA978117004F1800505
:101B100003E00834AC4200F09E81236A1906F8D530
:101B2000606A083800F0FEFAF3E7BEF1400F18BF14
:101B3000002243E7AE4ACD1D11F8013B02F8013FF8
:101B4000A942F9D1AB4A1268862A00F01181AA494C
:101B5000AA4E0A78307882F00105002842F002028D
:101B60000D700CBF8821C82147F8321007EBC20264
:101B700080F0010000213070516033E742F22124EF
:101B8000A14240F0FE81DFF8BCC29D4B9D49AC787C
:101B9000DCF800501D6081460C70002002908046E9
:101BA0008446044694490D7845F0020E07EBCE03B7
:101BB000B9F1000F5C600CBF8824C82444EA080314
:101BC00085F0010447F83E3032700C70DFF81CE2FB
:101BD0008A4BDFF82482002840F09880BCF1400F47
:101BE0001BD144F0020407EBC403029FDFF8FCE1C1
:101BF0005F60002A40F09F80020442F088020744A0
:101C00004EF8342086F800900D703B46402804D1F1
:101C100000207D4A019910800B607C4A01231370DB
:101C2000E3E600F0EBFB3FE6704B784872491A613F
:101C30004FF0020E80F800E0754F0A707549196088
:101C40009960754E754D764C9A610D213970FF2162
:101C50003170DFF8F4E129702270724D724A8EF80B
:101C600000109F27012406F8047C5D600470DA6090
:101C700007B0BDE8F08F6D4A47F83800137801339C
:101C80001370F1E543F82600694DD4E58B5D032B15
:101C900067D801A252F823F0691800006918000003
:101CA000ED1C0000E71C000059495C4B80220D2010
:101CB00008701A70A2077FF5D8AECFE640F2023264
:101CC000914240F05681A98801F07F01042916D87D
:101CD0006A88A2B94E4C89000C448146217841F0B3
:101CE0000201217059E701238B55BDE500238B5577
:101CF000BAE5A98801F07F01042940F24781444BED
:101D00000F221A70414A012313706EE640287FF6B5
:101D100068AF44F002040EEBC401029E4E60AAB10B
:101D2000444A83F800903346403888F800504033E6
:101D30004EF834206DE70204029B86F8009042F0D2
:101D4000C8020D7003444EF834205FE783F800901A
:101D5000029B304A88F80050403840334EF8342017
:101D600057E719F0080F0CBF022303238B557BE5BF
:101D7000314A0F211170EAE6304A5468002CBED077
:101D80006888B5F804E003E00C325468002CB6D043
:101D900013888342F8D153887345F5D1000A03288C
:101DA0000CBF2078108903E0254C0220227062705D
:101DB000EA88824280F00C810F490D78402A45F074
:101DC000020E944607EBCE0028BF4FF0400C04EB08
:101DD0000C0344600293CCEB02004FEA0C484FF036
:101DE00001090022C824E9E62494FF1F0080FF1F98
:101DF0002796FF1F2896FF1F1894FF1FAC93FF1F05
:101E00003096FF1F3C94FF1F5893FF1F94200740FC
:101E1000C0200740880040008820074080200740FD
:101E2000982007405C93FF1FB093FF1F1994FF1F7A
:101E30004893FF1FC8004000AD93FF1F24430000DC
:101E40001C94FF1F4093FF1F8C200740684A694C79
:101E500012782270ACE76849684B694A0291694977
:101E6000694C6A4D039405964FF0000988461C465C
:101E700016460495206828B1456800F053F92846B5
:101E8000002DF9D100232360049B30681A460023FB
:101E900042F8293028B1456800F044F92846002D61
:101EA000F9D100223260029A98F8003011460022DF
:101EB00041F8042B039A0291023B4FF0000122F8F3
:101EC0001910032B07D8DFE803F0340234024FF077
:101ED000010388F8003009F10109B9F1040F04F198
:101EE000040406F1040608F10108C3D1484B059E1D
:101EF000DFF83091DFF8308100211970012518F8E2
:101F0000013B09F8043B1A0718D4AC0044F0020264
:101F100044F00304002347F8323047F834303D4B97
:101F2000994505F10105EAD196F8009089F0010282
:101F300033E64FF0000388F80030CCE700F0D2F829
:101F4000AC0007EB451300F10802002837D05A60B7
:101F5000314B47F8343000F0C5F844F0010307EB8B
:101F6000C30200F1080100B351602C4A47F8332046
:101F7000CCE7B1F5A06F7FF4C2AE00224FF00109AB
:101F80000BE642F221329142F7D0B8E66A88002A85
:101F90007FF4B5AE224C89000C448146217821F0B3
:101FA00002012170F9E5022002E7194B44F0010219
:101FB0001B7847F83200164A01331370A6E7144B1A
:101FC000134A1B78AC00013347F834001370C2E7A2
:101FD0004028844628BF4FF0400C04EB0C03CCEBA8
:101FE00000004FEA0C48029300224FF00109D9E5A6
:101FF0002494FF1F1C94FF1F0094FF1F9C93FF1F3E
:10200000F093FF1F2894FF1F2096FF1F4893FF1F88
:102010001994FF1FD420074088004000C8004000EA
:10202000C0200740C4200740204300002DE9F843AA
:10203000204C00F0CFFE002204F1880023461A60F5
:102040005A60083383424FF00001F8D11A4A1B4FFF
:1020500013681B4D1B481C4EDFF87880DFF878C0F2
:10206000DFF87890DFF878E043F480231360C4F35E
:1020700007233B70C4F307432B70240EFF2302F5A4
:1020800028320470114D88F8003011488CF8003067
:10209000D4323370012389F8003070268EF8001096
:1020A0004FF40074102107F8183C2E700460117072
:1020B000BDE8F8830080FF1F348004409C20074067
:1020C000B0200740B42007401020074049E400E05A
:1020D00008E100E080200740882007409420074066
:1020E0000021074072B60D480268B2FA82F30B2B4A
:1020F00010DC4FF00041D94022EA0102026062B6D2
:10210000074803EBC303DB00C2180021C15010468F
:102110005160704762B60020704700BFF089FF1F12
:10212000BC83FF1F0D4B0E4AC31AA2FB03231B09DE
:102130000B2B0CD80B4A127852B972B60A484FF0E2
:102140000041026821FA03F31A43026062B6704745
:10215000064A1278002AF0D0FFF7B8BABC83FF1FF6
:10216000398EE3381994FF1FF089FF1F2494FF1F55
:1021700038B50F4D286878B143880288C1180133FB
:1021800093420C7A02D24380204638BDFFF7CAFF43
:10219000002320462B6038BD064B1B782BB1032053
:1021A000FFF760FA28600028E6D14FF0FF3038BD15
:1021B0003894FF1F2494FF1F10B5094C206818B1F4
:1021C00043881844007A10BD064B1B782BB10320BE
:1021D000FFF748FA20600028F2D14FF0FF3010BD21
:1021E0003894FF1F2494FF1F044B054A1B689088F6
:1021F0001BB11A885B88D31A184470473894FF1FA4
:102200002096FF1F0B4B1B789BB110B50A4C206822
:1022100048B1FFF787FF002303202360FFF722FA6E
:1022200030B1FFF77FFF0320FFF71CFA0028F8D139
:1022300010BD70472494FF1F3894FF1F2DE9F04F05
:10224000DFF8F89083B0012289F80020019169B38A
:10225000DFF8EC80364F019E8346D8F80000B0B31B
:10226000344D4488C4F14001B14228BF314604EBEB
:10227000010E00221FFA8EFE2A70761AA0F802E0E4
:1022800000F1080251B1013C224459441BF8014BB2
:1022900002F8014F8B45F9D1B0F802E0BEF13F0FD3
:1022A0000BD8254A05211170002ED6D101980023A4
:1022B00089F8003003B0BDE8F08F4022028001466B
:1022C0000420FFF745FA0022C8F80020E9E73A7831
:1022D0002AB3184D4AF2F9244FF0010A07E0013CF5
:1022E00016D02A78A2B900F0E9FA3A78BAB10420F7
:1022F000FFF7D6F90728F2D889F800A0FFF7F2FE19
:10230000C8F800000028ACD10C4B013C1870E8D193
:1023100001234FF0FF302B7003B0BDE8F08F002396
:102320004FF0FF3089F8003003B0BDE8F08F00BFF8
:102330002494FF1F3494FF1F2C94FF1F2D94FF1F24
:102340003094FF1F00B583B002AB012103F8010DEB
:102350001846FFF773FF03B05DF804FB38B50E4D68
:102360000E4C28680123237028B140880023237075
:10237000C0F1400038BD0A4B1B7813B90020207013
:1023800038BD0420FFF78CF90728F7D8FFF7AAFE1D
:1023900028600028E9D1F1E73094FF1F2D94FF1F3A
:1023A0002494FF1FF8B5114B1B788BB1104E114DC3
:1023B000346801272F7064B10F4A638800271770B3
:1023C000214623800420FFF7C3F9376000232B70D8
:1023D000F8BDFFF787FE084B28B1014604201C70AA
:1023E000FFF7B6F9F2E71F70F0E700BF2494FF1F74
:1023F0003094FF1F2D94FF1F2C94FF1F38B50E4BF8
:102400001B7873B90D4C216861B103F0FF054B884F
:102410000B800420FFF79CF9256038BD084B012292
:102420001A7038BDFFF75EFE0028F7D00146BDE800
:1024300038400420FFF78CB92D94FF1F3094FF1F04
:102440002C94FF1F10B4EFF3108272B6437F33B9A0
:10245000017F012907D003290FD00123437702B957
:1024600062B610BC7047124C2168A1B1114943619A
:102470000B68836108605861EFE70F4C216881B1F8
:102480000E4943610B688361086058610C4B4FF043
:1024900080511960E1E7074B41618161206018605C
:1024A000DBE7064B4161816120601860EEE700BF09
:1024B0005094FF1F4C94FF1F4094FF1F4494FF1F34
:1024C00004ED00E070B5EFF3108272B60C4C20689A
:1024D00080B10C4E00254369236073B19D6102B940
:1024E00062B6457783689847EFF3108272B620682A
:1024F0000028F0D102B962B670BD3360EFE700BFCB
:102500004094FF1F4494FF1FFFF7DCBF184A30B40C
:102510001468002C27D0036821688B420ED2CB1A96
:1025200000218460C1602360E060106002230375B5
:1025300030BC704711688B42144608D3A2685B1AFE
:102540000360002AF6D18260C460A060EEE7D26822
:10255000C2608460E060C568CB1A0222A860236074
:10256000027530BC70478460C4601060DEE700BF55
:102570004894FF1FF8B5224E34682CB32368002B13
:102580003AD1204F1D4604E03468ECB12368002B9B
:1025900032D1A36803B1DD6020693360036825751B
:1025A0001B68BB4221D1037F4560022BC46020D051
:1025B000FFF748FF6368002BE6D023602046FFF753
:1025C000A5FF3468002CE1D1EFF3108372B60E4AF8
:1025D00000211068116003B962B628B18468FFF762
:1025E00095FF20460028F9D1F8BD224600219847E2
:1025F000E0E783689847DDE7013B2360E4E700BF3D
:102600004894FF1FD10B00005894FF1F024A136823
:1026100001331360FFF7AEBF4093FF1F08B5FDF70E
:1026200027FFFDF777FF00F049F9FAE700B5064A02
:10263000036812885B6883B001A9ADF80420022208
:10264000984703B05DF804FBE8420000F0B5074688
:102650008BB0002A33D0012A08BF0A2251B32124AB
:1026600000E0F4B2B1FBF2F502FB1511C8B2092982
:1026700000F1300198BFC8B20AA988BF37302144A1
:1026800088BFC0B201F8240C661E2946002DE8D18F
:1026900033B1013CE4B20AAB23442D2203F8242CCD
:1026A0003B6801AA11195B683846C4F122029847B9
:1026B0000BB0F0BD30228DF825202124E8E7036817
:1026C000C9B21B6898470BB0F0BD00BF0029BABF64
:1026D00049422D2300230A22FFF7B8BFFFFFFFFF67
:1026E0002DE9F04385B080461946104616461F4630
:1026F0009DF8305001F008F8002840F0B18027F034
:102700000044304621464FF0FF32594B00F0FCFFA9
:1027100098B9304621464FF0FF32554B00F0D6FFB6
:1027200058B9D8F8003053495B68404603229847AF
:102730008146484605B0BDE8F083304639464FF043
:1027400060424D4B00F0D6FF002870D1304639462C
:102750004FF06042494B00F0AFFF002867D1304690
:1027600039460022002300F0A7FF002863D18146EC
:10277000002D65D0424B00240022104619463AA392
:10278000D3E9002300F026FD01340B46E1B28D426F
:102790000246F2D83046394600F06AFB0F4606463C
:1027A00000F0C8FF044600F09FFC02460B4630468E
:1027B000394600F05BFB4B4606460F460A2221468F
:1027C0004046FFF743FF0F2D28BF0F2501352E236D
:1027D0008146EDB28DF8003001240022294B3046AD
:1027E000394600F0F7FC0F46064600F0A3FF04ABA5
:1027F0002344C0B200F1300203F8102C00F084FC36
:1028000002460B463046394600F030FB0134E4B254
:10281000AC4206460F46E0D1D8F8003022465B684D
:10282000404669469847484605B0BDE8F083D8F869
:102830000030154978E707F100474FF0010997E7A5
:1028400000220F4B3046394600F012FB00F072FFB9
:102850004B4601460A224046FFF7F8FE814668E7EC
:10286000D8F8003009495FE7000000A09999B93F06
:10287000FFFFEF7FF4420000FFFFEF41FFFFEFC1DA
:102880000000E03F00002440F0420000EC42000065
:10289000FFF7B8BCFFF790BCFFF76ABCFFF7A4BC1A
:1028A000FFF780BDFFF75ABD08461146FFF7C6BCCB
:1028B0000846FFF747BD00BF704700BF38B5224C40
:1028C000237803B138BD01232370FFF78DFC70BB63
:1028D00000F0D8F840BB00F06BF910BB00F0FEF937
:1028E000E0B900232370EFF30583002BEAD1EFF367
:1028F000108172B6154B1868E0B1154C2278CAB930
:1029000045691D6001232370C5B1AA6101B962B692
:1029100000254577836898472570D3E700F0A0FA33
:10292000DFE700F09BFAD9E700F096FAD3E7FFF76C
:10293000C3FFCDE70029C5D162B638BD054B1D6088
:102940000029E5D1E3E700BF5C94FF1F5094FF1F0F
:102950005494FF1F4C94FF1F30B42948294A2A4B36
:102960002A4D6024E121047011701B78284C082B3B
:1029700030D00A2B2748284937D00C2B0CBF3522E2
:102980003D2212232A60236002600B60234B2449FE
:102990001B78244ABBB101230B601360224B2349EF
:1029A0001B78234A012B26D9042B0FD9082B1ED9BB
:1029B000102B94BF862387230B6013601D4B0122CD
:1029C0001A7030BC70470B601360E7E784230B601C
:1029D0001360F3E700F58E200F490830012213231E
:1029E0002A60236002600B60D0E73922F7E7852375
:1029F0000B601360E2E780230B601360DEE700BF2B
:102A00000040074001400740048AFF1F08B0034010
:102A10000CB0034008B00B400CB00B405E94FF1F9D
:102A200020B0034020B00B40058AFF1F24B00340B4
:102A300024B00B405D94FF1FF0B44D1E2E460024C1
:102A400000E00134B0FBF2F302FB1300092800F1AF
:102A500030078ABF3730F8B2C0B206F8010F184607
:102A6000002BEED10A1953704CB1107815F8016F94
:102A700028700133E01A834202F80169F5DB084649
:102A8000F0BC7047054A064B10781B78C0B2DBB229
:102A9000984238BF4030C01A704700BF6494FF1F8F
:102AA0006594FF1FF0B4384B1A7912F0300F2CD018
:102AB00072B6997D01F0FF0200293DD062B6334F16
:102AC000334938780D78334E1C46C0B2EDB2431C02
:102AD000402BE17928BF0023AB4202F1FF32C9B29B
:102AE0001CBFF154184612F0FF02F0D12A4B1B68AC
:102AF000C2B23A704BB1A84236BFC5F14005401B87
:102B000040192728C4BF01221A701F49CA78D2B2BF
:102B1000150616D452060DD51B4B1B795B0609D53D
:102B20001E4B1F491B6800220A7003B11A70164B16
:102B30003C22DA70F0BC70474022D9795A7462B6F0
:102B4000E3E70B791C06E5D5164B174E1C78337856
:102B5000E4B2DBB29C420ED0144D01E0A3420AD095
:102B60000133402B28BF00230879E85CC0B2C8714C
:102B7000087D0728F2D9DBB2034933700B791806B8
:102B800044BF7C23CB70C5E700A006406494FF1FC0
:102B90006594FF1FA894FF1F6094FF1FEC94FF1F14
:102BA000E894FF1FF094FF1FE994FF1F6894FF1F34
:102BB000054A064B10781B78C0B2DBB2984238BF8A
:102BC0004030C01A704700BF6495FF1FF994FF1F83
:102BD000F0B4384B1A7912F0300F2CD072B6997DC0
:102BE00001F0FF0200293DD062B6334F33493878F7
:102BF0000D78334E1C46C0B2EDB2431C402BE17938
:102C000028BF0023AB4202F1FF32C9B21CBFF1540E
:102C1000184612F0FF02F0D12A4B1B68C2B23A707C
:102C20004BB1A84236BFC5F14005401B40192728CB
:102C3000C4BF01221A701F49CA78D2B2150616D431
:102C400052060DD51B4B1B795B0609D51E4B1F4940
:102C50001B6800220A7003B11A70164B3C22DA700E
:102C6000F0BC70474022D9795A7462B6E3E70B7919
:102C70001C06E5D5164B174E1C783378E4B2DBB250
:102C80009C420ED0144D01E0A3420AD00133282B00
:102C900028BF00230879E85CC0B2C871087D072806
:102CA000F2D9DBB2034933700B79180644BF7C2399
:102CB000CB70C5E700B006406495FF1FF994FF1F75
:102CC0002495FF1FF494FF1F6895FF1FF894FF1FC2
:102CD0006C95FF1F6595FF1FFC94FF1F054A064B6F
:102CE00010781B78C0B2DBB2984238BF4030C01AAF
:102CF000704700BF7495FF1F7595FF1F30B42B4BB5
:102D00001A7994061FD52A48DA79037829490133BC
:102D10003F2B0978C8BF00238B42D2B203D0264C88
:102D2000D9B2E2540170254A116861B1244A12787F
:102D3000D2B2934236BFC2F140029B1A9B18272B96
:102D4000C4BF01230B70194AD378DBB2180611D423
:102D50005A060DD5154B1B795B0609D5194B1A4937
:102D60001B6800220A7003B11A70104B2C22DA7013
:102D700030BC704711790906EAD5144910480C781F
:102D80000178C9B28C420DD04A1C272A84BF002189
:102D90000A460F4D054C98BFD1B2AA5CD2B2E2717F
:102DA0000170D5E76C21D170D2E700BF00C00640AA
:102DB0007495FF1F7595FF1FA095FF1F7095FF1F4E
:102DC000E195FF1FE495FF1FE095FF1FE895FF1FAA
:102DD0007895FF1F70B584B072B6194B194D1A481B
:102DE000702241260F2480211A702E701A4604701A
:102DF000197013781B06FCD5144B186862B6144B77
:102E0000144C984298BF00EB800001A998BF400085
:102E10000A22FFF711FE01A92046002311F8012B19
:102E200001333AB10A2B20F8022FF7D11623237071
:102E300004B070BD5B00DBB2237004B070BD00BF96
:102E40000000024007000240060002400800024065
:102E50007F969800948AFF1F704700BF704700BF9D
:102E6000704700BF81F0004102E000BF83F00043E3
:102E700030B54FEA41044FEA430594EA050F08BF15
:102E800090EA020F1FBF54EA000C55EA020C7FEAD9
:102E9000645C7FEA655C00F0E2804FEA5454D4EB56
:102EA0005555B8BF6D420CDD2C4480EA020281EA20
:102EB000030382EA000083EA010180EA020281EA58
:102EC0000303362D88BF30BD11F0004F4FEA0131AA
:102ED0004FF4801C4CEA113102D0404261EB4101B9
:102EE00013F0004F4FEA03334CEA133302D052423F
:102EF00063EB430394EA050F00F0A780A4F10104FB
:102F0000D5F1200E0DDB02FA0EFC22FA05F2801834
:102F100041F1000103FA0EF2801843FA05F359411A
:102F20000EE0A5F120050EF1200E012A03FA0EFC99
:102F300028BF4CF0020C43FA05F3C01851EBE371C3
:102F400001F0004507D54FF0000EDCF1000C7EEBE0
:102F500000006EEB0101B1F5801F1BD3B1F5001F1E
:102F60000CD349085FEA30004FEA3C0C04F101043D
:102F70004FEA445212F5800F80F09A80BCF1004F66
:102F800008BF5FEA500C50F1000041EB045141EAE8
:102F9000050130BD5FEA4C0C404141EB010111F4E9
:102FA000801FA4F10104E9D191F0000F04BF014694
:102FB0000020B1FA81F308BF2033A3F10B03B3F172
:102FC00020020CDA0C3208DD02F1140CC2F10C0202
:102FD00001FA0CF021FA02F10CE002F11402D8BF60
:102FE000C2F1200C01FA02F120FA0CFCDCBF41EA2C
:102FF0000C019040E41AA2BF01EB0451294330BDFB
:103000006FEA04041F3C1CDA0C340EDC04F11404D7
:10301000C4F1200220FA04F001FA02F340EA0300AE
:1030200021FA04F345EA030130BDC4F10C04C4F1F4
:10303000200220FA02F001FA04F340EA03002946D4
:1030400030BD21FA04F0294630BD94F0000F83F41E
:10305000801306BF81F480110134013D4EE77FEA01
:10306000645C18BF7FEA655C29D094EA050F08BF4D
:1030700090EA020F05D054EA000C04BF194610462E
:1030800030BD91EA030F1EBF0021002030BD5FEA72
:10309000545C05D14000494128BF41F0004130BD9A
:1030A00014F580043CBF01F5801130BD01F00045EE
:1030B00045F0FE4141F470014FF0000030BD7FEA61
:1030C000645C1ABF194610467FEA655C1CBF0B465C
:1030D000024650EA013406BF52EA033591EA030F73
:1030E00041F4002130BD00BF90F0000F04BF00216B
:1030F000704730B54FF4806404F132044FF000059E
:103100004FF0000150E700BF90F0000F04BF002116
:10311000704730B54FF4806404F1320410F000457C
:1031200048BF40424FF000013EE700BF42004FEA77
:10313000E2014FEA31014FEA02701FBF12F07F43F4
:1031400093F07F4F81F06051704792F0000F14BFF1
:1031500093F07F4F704730B54FF4607401F0004535
:1031600021F0004120E700BF50EA010208BF70478C
:1031700030B54FF000050AE050EA010208BF704781
:1031800030B511F0004502D5404261EB41014FF4EA
:10319000806404F132045FEA915C3FF4DCAE4FF0EE
:1031A00003025FEADC0C18BF03325FEADC0C18BFD5
:1031B000033202EBDC02C2F1200300FA03FC20FA26
:1031C00002F001FA03FE40EA0E0021FA02F1144473
:1031D000C1E600BF70B54FF0FF0C4CF4E06C1CEA88
:1031E00011541DBF1CEA135594EA0C0F95EA0C0FFD
:1031F00000F0DEF82C4481EA030621EA4C5123EA70
:103200004C5350EA013518BF52EA033541F480119E
:1032100043F4801338D0A0FB02CE4FF00005E1FB51
:1032200002E506F00042E0FB03E54FF00006E1FB9B
:1032300003569CF0000F18BF4EF0010EA4F1FF04DE
:10324000B6F5007F64F5407404D25FEA4E0E6D411E
:1032500046EB060642EAC62141EA55514FEAC5202F
:1032600040EA5E504FEACE2EB4F1FD0C88BFBCF5AB
:10327000E06F1ED8BEF1004F08BF5FEA500E50F15C
:10328000000041EB045170BD06F0004646EA010122
:1032900040EA020081EA0301B4EB5C04C2BFD4EB54
:1032A0000C0541EA045170BD41F480114FF0000E4D
:1032B000013C00F3AB8014F1360FDEBF002001F0BB
:1032C000004170BDC4F10004203C35DA0C341BDC35
:1032D00004F11404C4F1200500FA05F320FA04F007
:1032E00001FA05F240EA020001F0004221F000413B
:1032F00010EBD37021FA04F642EB06015EEA430EAE
:1033000008BF20EAD37070BDC4F10C04C4F12005DD
:1033100000FA04F320FA05F001FA04F240EA020090
:1033200001F0004110EBD37041F100015EEA430E61
:1033300008BF20EAD37070BDC4F1200500FA05F281
:103340004EEA020E20FA04F301FA05F243EA020300
:1033500021FA04F001F0004121FA04F220EA02000F
:1033600000EBD3705EEA430E08BF20EAD37070BD55
:1033700094F0000F0FD101F00046400041EB010135
:1033800011F4801F08BF013CF7D041EA060195F017
:10339000000F18BF704703F00046520043EB0303D1
:1033A00013F4801F08BF013DF7D043EA06037047BE
:1033B00094EA0C0F0CEA135518BF95EA0C0F0CD0C9
:1033C00050EA410618BF52EA4306D1D181EA03010F
:1033D00001F000414FF0000070BD50EA410606BF09
:1033E0001046194652EA430619D094EA0C0F02D14E
:1033F00050EA013613D195EA0C0F05D152EA033693
:103400001CBF104619460AD181EA030101F00041B0
:1034100041F0FE4141F470014FF0000070BD41F0F9
:10342000FE4141F4780170BD70B54FF0FF0C4CF4D3
:10343000E06C1CEA11541DBF1CEA135594EA0C0FF2
:1034400095EA0C0F00F0A7F8A4EB050481EA030E3F
:1034500052EA03354FEA013100F088804FEA033326
:103460004FF0805545EA131343EA12634FEA0222F4
:1034700045EA111545EA10654FEA00260EF00041B5
:103480009D4208BF964244F1FD0404F5407402D207
:103490005B084FEA3202B61A65EB03055B084FEA98
:1034A00032024FF480104FF4002CB6EB020E75EB95
:1034B000030E22BFB61A754640EA0C005B084FEABD
:1034C0003202B6EB020E75EB030E22BFB61A75463A
:1034D00040EA5C005B084FEA3202B6EB020E75EB85
:1034E000030E22BFB61A754640EA9C005B084FEAFD
:1034F0003202B6EB020E75EB030E22BFB61A75460A
:1035000040EADC0055EA060E18D04FEA051545EAF8
:1035100016754FEA06164FEAC30343EA52734FEAA1
:10352000C2025FEA1C1CC0D111F4801F0BD141EA1A
:1035300000014FF000004FF0004CB6E711F4801F7F
:1035400004BF01430020B4F1FD0C88BFBCF5E06F5F
:103550003FF6AFAEB5EB030C04BFB6EB020C5FEA6F
:10356000500C50F1000041EB045170BD0EF0004EC4
:103570004EEA113114EB5C04C2BFD4EB0C0541EAF6
:10358000045170BD41F480114FF0000E013C90E6F3
:1035900045EA060E8DE60CEA135594EA0C0F08BFB7
:1035A00095EA0C0F3FF43BAF94EA0C0F0AD150EAB6
:1035B00001347FF434AF95EA0C0F7FF425AF104649
:1035C00019462CE795EA0C0F06D152EA03353FF471
:1035D000FDAE1046194622E750EA410618BF52EAEE
:1035E00043067FF4C5AE50EA41047FF40DAF52EAC2
:1035F00043057FF4EBAE12E74FF0FF3C06E000BF5F
:103600004FF0010C02E000BF4FF0010C4DF804CD6B
:103610004FEA410C7FEA6C5C4FEA430C18BF7FEA2B
:103620006C5C1BD001B050EA410C0CBF52EA430C59
:1036300091EA030F02BF90EA020F0020704710F1D9
:10364000000F91EA030F58BF994208BF90422CBF68
:10365000D8176FEAE37040F0010070474FEA410C61
:103660007FEA6C5C02D150EA013C07D14FEA430C7F
:103670007FEA6C5CD6D152EA033CD3D05DF8040BF0
:10368000704700BF8446104662468C461946634622
:1036900000E000BF01B5FFF7B7FF002848BF10F1F9
:1036A000000F01BD4DF808EDFFF7F4FF0CBF01203E
:1036B00000205DF808FB00BF4DF808EDFFF7EAFFBA
:1036C00034BF012000205DF808FB00BF4DF808ED75
:1036D000FFF7E0FF94BF012000205DF808FB00BF6A
:1036E0004DF808EDFFF7CEFF94BF012000205DF8F4
:1036F00008FB00BF4DF808EDFFF7C4FF34BF012001
:1037000000205DF808FB00BF4FEA410C7FEA6C5CCB
:1037100002D150EA013C0AD14FEA430C7FEA6C5CCB
:1037200002D152EA033C02D14FF0000070474FF043
:10373000010070474A0011D212F5001211D20DD5C6
:103740006FF47873B3EB62520ED44FEAC12343F0A7
:10375000004343EA505323FA02F070474FF0000051
:10376000704750EA013002D14FF0FF3070474FF000
:1037700000007047014B1868704700BFD88EFF1FCC
:1037800070B50F4E0F4D761BB61018BF002405D034
:10379000013455F8043B9847A642F9D10A4E0B4D27
:1037A000761B00F0EBFDB61018BF002406D00134E4
:1037B00055F8043B9847A642F9D170BD70BD00BFD3
:1037C00088430000884300009443000088430000C1
:1037D000024B0146186800F003B800BFD88EFF1FE7
:1037E0002DE9F04F01F10B05162D83B0064640F28E
:1037F0009F8035F0070500F1BF80A94200F2BC8030
:1038000000F0A6FAB5F5FC7FC0F09C826B0A00F0D0
:10381000BA80042B00F28381A80900F1390E4FEA27
:103820004E033830C44F07EB8303A3F108015C68F3
:10383000A14207D1ACE0002A80F2AC80E468A1424A
:1038400000F0A680636823F003035A1B0F2AF2DD01
:10385000B9493C6901F1080E744500F0B381636811
:1038600023F003035A1B0F2A00F39981002AC1F8A1
:1038700014E0C1F810E080F29E80B3F5007F80F084
:103880006781DB0803F1010C01229B1002FA03F3AC
:103890004A6851F83C80C4F8088001EBCC091A430F
:1038A000A9F10803E3604A6041F83C40C8F80C40C5
:1038B000831001249C40944200F28A80144206D175
:1038C00020F003006400144200F10400FAD007EB7A
:1038D000C009CC468046DCF80C108C4507D173E15A
:1038E000002A80F28181C9688C4500F06D814B68A7
:1038F00023F003035A1B0F2AF2DD0C46D1F80CC04B
:1039000054F8088F4B1945F001054D6042F0010154
:10391000C8F80CC03046CCF808807B613B61C3F826
:103920000CE0C3F808E059609A5000F013FA1FE069
:10393000102921D800F00CFA1025062302207E4F12
:1039400007EB8303A3F108025C68944200F0458111
:103950006368E168A56823F00303234430465A688E
:10396000E96042F001028D605A6000F0F3F908341A
:10397000204603B0BDE8F08F00240C2320463360BE
:1039800003B0BDE8F08F80234FF0400E3F2049E7A1
:1039900070465DE72344E1685A68A56842F0010279
:1039A000E96030468D605A6000F0D4F90834204652
:1039B00003B0BDE8F08F234430465A6842F001025C
:1039C0005A6000F0C7F90834204603B0BDE8F08F14
:1039D000BC68636823F00308A84504D3C5EB08035B
:1039E0000F2B00F38C80554BDFF860911A68D9F8E3
:1039F000003001332A4404EB080A00F0608102F52C
:103A000080520F3222F47F6222F00F0211463046BC
:103A1000019200F0A1F9B0F1FF3F8346019A00F056
:103A20005881824500F2FC80454B1968DA45114403
:103A3000196000F05381D9F80000DFF810E101307F
:103A40001BBFCAEB0B0A5144CEF800B019601BF043
:103A5000070100F01781C1F10800C1F580518344CE
:103A600008315A44C2F30B02C2EB01094946304601
:103A7000019300F071F9431C019B00F03F81CBEBF7
:103A800000024A4442F001021968C7F808B04944EC
:103A9000BC42CBF804201960DFF8A49016D0B8F12E
:103AA0000F0F40F2FD806268A8F10C0323F00703BA
:103AB000E01802F001024FF0050E1A430F2B62606E
:103AC000C0F804E0C0F808E000F21C811D4BBC689F
:103AD0001A68914288BF19601B4B1A68914262684C
:103AE00088BF196022F003029542A2EB050301D8BA
:103AF0000F2B04DC304600F02DF9002438E7621962
:103B000043F0010345F0010565603046BA6053603B
:103B100000F020F90834204603B0BDE8F08F142BE4
:103B200071D9542B00F2A480280B00F16F0E4FEADC
:103B30004E036E3076E600BFDC8EFF1FF495FF1F4C
:103B4000F895FF1FF095FF1FEC95FF1FE892FF1FF0
:103B50005A0A042A5ED9142A00F2B38002F15C01E9
:103B600049005B3207EB810C57F82110DFF8DC814C
:103B7000ACF1080C8C4500F088804A6822F0030202
:103B8000934202D289688C45F7D1D1F80CC07A688B
:103B9000C4F80CC0A160CCF80840CC6088E663197A
:103BA00042F0010745F00105656030464B610B614D
:103BB000C3F80CE0C3F808E05F609A50083400F0E6
:103BC000C9F8D5E64A6873E608F1010818F0030F52
:103BD0000CF1080C7FF47FAE30E0DC68A34208BF34
:103BE00002303FF435AEB3E60B440C465A68C96860
:103BF00054F8085F42F001025A603046E9608D6077
:103C000000F0A8F8B4E603F15C0E03F15B004FEAA4
:103C10004E0307E69A0902F1390149003832A1E75B
:103C2000BC424A4B3FF400AF9C68626822F003023A
:103C30005AE759F80839994540F0828010F0030F8F
:103C400000F1FF30F5D17B6823EA04037B60640058
:103C50009C423FF6BDAE002C3FF4BAAE1C4240463B
:103C60007FF435AE64001C4200F10400FAD02EE669
:103C7000B3F5AA7F18D8E80B00F1780E4FEA4E038F
:103C80007730CFE54FF48051EBE60121D8F80430CE
:103C9000921001FA02F21A43C8F80420614677E74D
:103CA0000123CBF8043025E740F25452934220D848
:103CB000A80C00F17D0E4FEA4E037C30B2E51032C5
:103CC000A4E6542A26D81A0B02F16F0149006E327D
:103CD00048E7BC68626822F0030205E7CAF30B00FC
:103CE00000287FF4A8AE4244BB6842F001025A604B
:103CF000ECE6FE234FF07F0E7E2093E501224FF08D
:103D00000009C1E604F10801304600F0A9F8D9F82D
:103D10000010DBE6B2F5AA7F05D8DA0B02F17801D4
:103D2000490077321EE740F254518A4205D89A0C76
:103D300002F17D0149007C3214E7FE217E2211E769
:103D40007B6884E7E808431C5B00F8E5DC8EFF1F16
:103D5000704700BF704700BF38B5074C00230546C9
:103D600008462360FDF76CFA431C00D038BD236879
:103D7000002BFBD02B6038BD3496FF1F024B13B1D4
:103D8000024800F005B87047000000009D3D0000AB
:103D9000002301461A46184600F04AB938B5074DC7
:103DA000074C2C1BA41005D0013C55F8043D984746
:103DB000002CF9D1BDE8384000F0ECBA000000005A
:103DC00000000000F8B5234F0C460646FFF7C0FF81
:103DD000BB685D6825F00305291B01F6EF7121F42E
:103DE0007F6121F00F01A1F58054B4F5805F07DBFE
:103DF00000213046FFF7B0FFBB682B44984204D047
:103E00003046FFF7A7FF0020F8BD61423046FFF7BC
:103E1000A3FF01300DD0104BBA6819682D1B45F077
:103E200001053046091B55601960FFF793FF01201B
:103E3000F8BD00213046FFF78FFFBA68831A0F2BB9
:103E4000DEDD064C0449246843F00103001B536087
:103E50000860D5E7DC8EFF1FF895FF1FE892FF1F73
:103E6000002945D02DE9F0410D468046FFF770FF4F
:103E700055F8047C6A4927F00103A5F10804E2180B
:103E80008E685068B24220F0030062D0FE07506096
:103E90000BD455F8087CE41B01F1080EA5687545A4
:103EA0003B446FD0E768EF60BD6015186D68ED07A3
:103EB00042D543F001026260E350B3F5007F18D2AF
:103EC000DB085A1C4D6851F83270A76001209B1026
:103ED00000FA03F301EBC2001D430838E0604D60B7
:103EE00041F83240FC604046BDE8F041FFF732BF88
:103EF00070475A0A042A53D89A0902F139077F00F9
:103F000002F1380501EB870051F8272044490838B1
:103F100090424DD0516821F003018B4202D2926849
:103F20009042F7D1D068E060A2608460D4604046DF
:103F3000BDE8F041FFF70EBF95683A4FBD4203441C
:103F40003FD0D068E86043F0010285606260E350D2
:103F5000B3E7FF07034407D455F8082CA41A134409
:103F6000A068E268C26090602F4A126843F00100C6
:103F7000934260608C60B6D32C4B40461968FFF7C3
:103F800021FFB0E711184968C90744D49168D26885
:103F9000CA60034443F0010091606060E350A2E70F
:103FA000142A17D802F15C077F0002F15B05A9E72C
:103FB000AA104B68012505FA02F213434B60024632
:103FC000B1E743F001024C610C61E560A5606260FD
:103FD000E35088E7542A06D81A0B02F16F077F00D6
:103FE00002F16E058EE7B2F5AA7F06D8DA0B02F170
:103FF00078077F0002F1770584E740F2545082424F
:1040000006D89A0C02F17D077F0002F17C0579E762
:10401000FE277E2576E743F001026260E35062E707
:10402000DC8EFF1FE48EFF1FE492FF1FF495FF1F3D
:104030002DE9F047254C2568D5F8484106468846C5
:1040400092469946C4B360681F2817DC431C76B1BA
:1040500004EB80050122C5F888A0D4F888118240BD
:104060001143022EC4F88811C5F808911ED0023001
:10407000636044F820800020BDE8F087144B03B350
:104080004FF4C870FFF7A4FB0446D0B1D5F848310F
:10409000002780E88800C5F8484138460123C4F865
:1040A0008871C4F88C71002EE1D0D1E7D4F88C115E
:1040B0000A43C4F88C21DAE705F5A674C5F848412F
:1040C000C1E74FF0FF30BDE8F08700BF7843000044
:1040D000D13700005374617274696E67000000008C
:1040E0000900FFFF111213141516FFFF0A0B0C0D28
:1040F0000E0FFFFF000102030405FFFF3C80044098
:1041000000100000041A0000FF7F000011100000E2
:10411000E90B00000C080000000200000002000093
:104120000B07000040020000000200000D0E00001E
:1041300040020000000200000A02090614171516CA
:104140000F0000000002000000020000000200005A
:104150000002000000020000000200000002000057
:10416000000200000002000001010202040408082D
:104170001000000034800440400000001211FFFFD6
:10418000FF02020000001310FFFFFF020200000008
:104190001800000034800440800000001EFFFFFF74
:1041A000FF02000000001DFFFFFFFF0200000000F3
:1041B000190000000000000000000000CD0E00000B
:1041C000910E0000450E00008D0E0000490E00000B
:1041D000550E0000750E00004008FE4340A004404C
:1041E0004408FE4344A004400018FE4300C00440BD
:1041F0003000FE43309004403400FE4334900440CD
:104200001C18FE431CC004401018FE4310C004409C
:104210000818FE4308C004400C18FE430CC00440BC
:104220000C10FE430CB004401010FE4310B00440CC
:104230001810FE4318B004401C10FE431CB004408C
:104240001410FE4314B004400418FE4304C004409C
:104250000010FE4300B004400008FE4300A00440EC
:104260000408FE4304A004400C08FE430CA00440D4
:104270000808FE4308A004401418FE4314C004407C
:104280001818FE4318C004400410FE4304B0044054
:104290000810FE4308B004401400FE43149004408C
:1042A0004C08FE434CA004400420FE4304D00440CC
:1042B0002410FE4324B004402010FE4320B00440EC
:1042C0002810FE4328B004402C10FE432CB00440BC
:1042D0000020FE4300D004404808FE4348A00440AC
:1042E0001000FE43109004400D0AFFFF6E616E0047
:1042F0006F766600696E6600000000000000000036
:10430000B1280000A9280000A5280000A12800006D
:104310009D280000992800009528000091280000A1
:104320000015191500010000088AFF1F1200000087
:1043300000020000348AFF1F430000000003000059
:10434000908AFF1F00000000010309041C8AFF1F60
:104350000000000002030904788AFF1F000000002B
:1043600003030904948AFF1F0000000000000000FE
:104370000000000000000000B08AFF1FF8B500BF79
:10438000F8BC08BC9E4670477D3D00003504000027
:04439000F90500002B
:04439400F8B500BFB9
:1043980038B5084B1C681C6054B1074D94FAA4F357
:1043A800B3FA83F355F823309847631E1C40F5D1C0
:1043B80038BD00BFA0D00440E889FF1F38B5084BBE
:1043C8001C681C6054B1074D94FAA4F3B3FA83F344
:1043D80055F823309847631E1C40F5D138BD00BFFF
:1043E800A0C00440C889FF1F38B5084B1C681C6072
:1043F80054B1074D94FAA4F3B3FA83F355F8233074
:104408009847631E1C40F5D138BD00BFA0B00440DA
:104418009889FF1F38B5084B1C681C6054B1074DBC
:1044280094FAA4F3B3FA83F355F823309847631E3C
:104438001C40F5D138BD00BFA0A004404889FF1F2B
:1044480038B5084B1C681C6054B1074D94FAA4F3A6
:10445800B3FA83F355F823309847631E1C40F5D10F
:1044680038BD00BFA09004401089FF1F00C0024063
:10447800FC400000000000000000000000000000F8
:104488000000000000000000000000000000000024
:104498000000000000000000000000000000000014
:1044A80000000000BC41000000000000E80300001C
:1044B8000000000000600640744100000000000099
:1044C80000000000000000000000000000000000E4
:1044D80000000000000000000000000000000000D4
:1044E80000000000000000000000000000000000C4
:1044F80000000000000000000000000000000000B4
:1045080000000000000000000000000000000000A3
:10451800BC41000000000000E803000000000000AB
:1045280000700640944100000000000000000000F8
:104538000000000000000000000000000000000073
:104548000000000000000000000000000000000063
:104558000000000000000000000000000000000053
:104568000000000000000000000000000000000043
:104578000000000000000000000000003896FF1F47
:104588006D1200006D1200006D1200006D12000027
:104598006D1200006D1200006D1200006D12000017
:1045A8006D1200006D1200006D1200006D12000007
:1045B8006D1200006D1200006D1200006D120000F7
:1045C8006D1200006D1200006D1200006D120000E7
:1045D8006D1200006D1200006D1200006D120000D7
:1045E8006D1200006D1200006D1200006D120000C7
:1045F8006D1200006D1200006D1200006D120000B7
:104608006D1200006D1200006D1200006D120000A6
:104618006D1200006D1200006D1200006D12000096
:104628006D1200006D1200006D1200006D12000086
:104638006D1200006D1200006D1200006D12000076
:104648006D1200006D1200006D1200006D12000066
:104658006D1200006D1200006D1200006D12000056
:10466800FFFFFFFF0043000000000000E803000018
:10467800000000000A0400001201010102000040CD
:10468800C01683040002010203010000180354004D
:10469800650065006E0073007900640075006900AC
:1046A8006E006F0009024300020100C032090400D5
:1046B8000001020201000524001001052401010186
:1046C80004240206052406000107058203100040A1
:1046D80009040100020A0000000705030240000067
:1046E80007058402400000001603550053004200ED
:1046F8002000530065007200690061006C00000032
:10470800040309040C03000000000000000000007E
:104718000000000000000000000000000000000091
:10472800000000009C8DFF1F048EFF1F6C8EFF1F72
:104738000000000000000000000000000000000071
:104748000000000000000000000000000000000061
:104758000000000000000000000000000000000051
:104768000000000000000000000000000000000041
:104778000000000000000000000000000000000031
:104788000000000000000000000000000000000021
:104798000000000000000000000000000000000011
:1047A8000000000000000000000000000000000001
:1047B80000000000000000000000000000000000F1
:1047C80000000000000000000100000000000000E0
:1047D8000E33CDAB34126DE6ECDE05000B000000A5
:1047E80000000000000000000000000000000000C1
:1047F80000000000000000000000000000000000B1
:1048080000000000000000000000000000000000A0
:104818000000000000000000000000000000000090
:104B48000000000000000000B08AFF1F0000000005
:104B580000000000DC8EFF1FDC8EFF1FE48EFF1FAD
:104B6800E48EFF1FEC8EFF1FEC8EFF1FF48EFF1FDD
:104B7800F48EFF1FFC8EFF1FFC8EFF1F048FFF1F8C
:104B8800048FFF1F0C8FFF1F0C8FFF1F148FFF1F39
:104B9800148FFF1F1C8FFF1F1C8FFF1F248FFF1FE9
:104BA800248FFF1F2C8FFF1F2C8FFF1F348FFF1F99
:104BB800348FFF1F3C8FFF1F3C8FFF1F448FFF1F49
:104BC800448FFF1F4C8FFF1F4C8FFF1F548FFF1FF9
:104BD800548FFF1F5C8FFF1F5C8FFF1F648FFF1FA9
:104BE800648FFF1F6C8FFF1F6C8FFF1F748FFF1F59
:104BF800748FFF1F7C8FFF1F7C8FFF1F848FFF1F09
:104C0800848FFF1F8C8FFF1F8C8FFF1F948FFF1FB8
:104C1800948FFF1F9C8FFF1F9C8FFF1FA48FFF1F68
:104C2800A48FFF1FAC8FFF1FAC8FFF1FB48FFF1F18
:104C3800B48FFF1FBC8FFF1FBC8FFF1FC48FFF1FC8
:104C4800C48FFF1FCC8FFF1FCC8FFF1FD48FFF1F78
:104C5800D48FFF1FDC8FFF1FDC8FFF1FE48FFF1F28
:104C6800E48FFF1FEC8FFF1FEC8FFF1FF48FFF1FD8
:104C7800F48FFF1FFC8FFF1FFC8FFF1F0490FF1F87
:104C88000490FF1F0C90FF1F0C90FF1F1490FF1F34
:104C98001490FF1F1C90FF1F1C90FF1F2490FF1FE4
:104CA8002490FF1F2C90FF1F2C90FF1F3490FF1F94
:104CB8003490FF1F3C90FF1F3C90FF1F4490FF1F44
:104CC8004490FF1F4C90FF1F4C90FF1F5490FF1FF4
:104CD8005490FF1F5C90FF1F5C90FF1F6490FF1FA4
:104CE8006490FF1F6C90FF1F6C90FF1F7490FF1F54
:104CF8007490FF1F7C90FF1F7C90FF1F8490FF1F04
:104D08008490FF1F8C90FF1F8C90FF1F9490FF1FB3
:104D18009490FF1F9C90FF1F9C90FF1FA490FF1F63
:104D2800A490FF1FAC90FF1FAC90FF1FB490FF1F13
:104D3800B490FF1FBC90FF1FBC90FF1FC490FF1FC3
:104D4800C490FF1FCC90FF1FCC90FF1FD490FF1F73
:104D5800D490FF1FDC90FF1FDC90FF1FE490FF1F23
:104D6800E490FF1FEC90FF1FEC90FF1FF490FF1FD3
:104D7800F490FF1FFC90FF1FFC90FF1F0491FF1F82
:104D88000491FF1F0C91FF1F0C91FF1F1491FF1F2F
:104D98001491FF1F1C91FF1F1C91FF1F2491FF1FDF
:104DA8002491FF1F2C91FF1F2C91FF1F3491FF1F8F
:104DB8003491FF1F3C91FF1F3C91FF1F4491FF1F3F
:104DC8004491FF1F4C91FF1F4C91FF1F5491FF1FEF
:104DD8005491FF1F5C91FF1F5C91FF1F6491FF1F9F
:104DE8006491FF1F6C91FF1F6C91FF1F7491FF1F4F
:104DF8007491FF1F7C91FF1F7C91FF1F8491FF1FFF
:104E08008491FF1F8C91FF1F8C91FF1F9491FF1FAE
:104E18009491FF1F9C91FF1F9C91FF1FA491FF1F5E
:104E2800A491FF1FAC91FF1FAC91FF1FB491FF1F0E
:104E3800B491FF1FBC91FF1FBC91FF1FC491FF1FBE
:104E4800C491FF1FCC91FF1FCC91FF1FD491FF1F6E
:104E5800D491FF1FDC91FF1FDC91FF1FE491FF1F1E
:104E6800E491FF1FEC91FF1FEC91FF1FF491FF1FCE
:104E7800F491FF1FFC91FF1FFC91FF1F0492FF1F7D
:104E88000492FF1F0C92FF1F0C92FF1F1492FF1F2A
:104E98001492FF1F1C92FF1F1C92FF1F2492FF1FDA
:104EA8002492FF1F2C92FF1F2C92FF1F3492FF1F8A
:104EB8003492FF1F3C92FF1F3C92FF1F4492FF1F3A
:104EC8004492FF1F4C92FF1F4C92FF1F5492FF1FEA
:104ED8005492FF1F5C92FF1F5C92FF1F6492FF1F9A
:104EE8006492FF1F6C92FF1F6C92FF1F7492FF1F4A
:104EF8007492FF1F7C92FF1F7C92FF1F8492FF1FFA
:104F08008492FF1F8C92FF1F8C92FF1F9492FF1FA9
:104F18009492FF1F9C92FF1F9C92FF1FA492FF1F59
:104F2800A492FF1FAC92FF1FAC92FF1FB492FF1F09
:104F3800B492FF1FBC92FF1FBC92FF1FC492FF1FB9
:104F4800C492FF1FCC92FF1FCC92FF1FD492FF1F69
:0C4F5800D492FF1F00000200FFFFFFFFCB
:00000001FF
