:1000000000800020BD0100009D73000055730000BA
:1000100055730000557300005573000055730000C0
:100020005573000055730000557300009D73000068
:100030009D730000557300009D7300004573000020
:100040009D7300009D7300009D7300009D73000070
:100050009D7300009D7300009D7300009D73000060
:100060009D7300009D7300009D7300009D73000050
:100070009D7300009D7300009D7300009D73000040
:100080009D7300009D7300009D7300009D73000030
:100090009D7300009D7300009D7300009D73000020
:1000A0009D7300009D7300009D7300009D73000010
:1000B0009D7300009D7300009D7300009D73000000
:1000C0009D7300009D7300009D7300009D730000F0
:1000D0009D7300009D7300009D7300009D730000E0
:1000E0009D7300009D7300009D7300009D730000D0
:1000F0009D730000598F00009D73000099960000C9
:100100009D730000059C00009D7300009D7300001E
:100110009D7300009D7300009D7300009D7300009F
:100120009D7300009D7300009D730000990B0000FB
:10013000F50B0000510C00008D0F0000F90F0000BE
:10014000691000009D7300009D7300009D73000006
:100150009D7300009D7300009D7300009D7300005F
:100160009D730000D17700009D7300009D73000017
:100170009D7300009D7300009D7300009D7300003F
:100180009D7300009D7300009D7300009D7300002F
:100190009D7300009D7300009D7300009D7300001F
:1001A0009D7300009D7300009D7300009D7300000F
:1001B0009D7300009D7300009D730000564B4CF230
:1001C000205210B51A804DF628121A8000BF00BFC9
:1001D00007F0E8F8514B4FF010621A60504A9A60ED
:1001E000504ADA60504A136813F4807304D14F49BF
:1001F0000B604FF4A85313604D4B1A78110703D5C9
:100200001A7842F008021A704A4B4B492A221A7097
:100210004A4A4B4B8B4204D252F8040F43F8040B6A
:10022000F8E7484B484900228B4202D243F8042B9E
:10023000FAE7464A46480023114650F8234042F860
:10024000234001336F2BF8D1424B434A802003F8FF
:10025000010B9342FBD1414B1960414B8A221A702A
:10026000A3F5805324225A70A0221A709A7992071B
:10027000FCD59A79D406FCD43A4B19469A7902F007
:100280000C02082AFAD103221A7140225A718B7982
:100290009806FCD5334B9A795106FCD5324A33493E
:1002A00011600221516020221A702E4A937903F0C6
:1002B0000C030C2BFAD12E4B2E4A1A602E4B2F4AD0
:1002C0001A6000225A60072243F8042C2C4AC3F813
:1002D0000C2D62B607F058F9144B1B68DA0705D5E8
:1002E000284807F0E5F8284B284A1A60284B1B7865
:1002F0005B0609D5244C254B22689A4204D121483B
:1003000007F0D6F8002323600DF024F907F050F829
:1003100000F00CF9FEE700BF0E20054030800440DD
:10032000823F04000100002B10D0034014D0034092
:1003300002D0074000E007400892FF1F3C6E01001A
:100340002087FF1F0892FF1FA49EFF1F0082FF1F30
:100350000000000000E400E05FE400E008ED00E0E1
:100360000050064000400640448004400000030165
:1003700004800440C010050014E000E0FF76010096
:1003800000002020000000001CE00340A5C3945A98
:1003900000F00740FFFFFFFFFFFFFFFFFFFFFFFF32
:1003A000FFFFFFFFFFFFFFFFFFFFFFFFFFFFFFFF5D
:1003B000FFFFFFFFFFFFFFFFFFFFFFFFFFFFFFFF4D
:1003C000FFFFFFFFFFFFFFFFFFFFFFFFFFFFFFFF3D
:1003D000FFFFFFFFFFFFFFFFFFFFFFFFFFFFFFFF2D
:1003E000FFFFFFFFFFFFFFFFFFFFFFFFFFFFFFFF1D
:1003F000FFFFFFFFFFFFFFFFFFFFFFFFFFFFFFFF0D
:10040000FFFFFFFFFFFFFFFFFFFFFFFFDEF9FFFF23
:1004100010B5054C237833B9044B13B10448AFF33E
:1004200000800123237010BD0892FF1F0000000010
:10043000446101000C4B43B10C480D4910B5AFF3BA
:1004400000800C48036823B910BD0A48036833B91B
:100450007047094B002BF7D0BDE810401847064BFA
:10046000002BF5D0184700BF0000000044610100D8
:100470000C92FF1F0892FF1F0000000070B5054698
:1004800055F8044FA54208D00E46A06803683146CF
:100490001B6898472468A542F7D170BD38B505465A
:1004A00055F8044FA54206D0A06803685B689847DA
:1004B0002468A542F8D138BD03681A4A5B689342A4
:1004C0002DE9F04107462BD1054655F8044FAC42C3
:1004D00006D0A06803685B6898472468A542F8D1F5
:1004E000DFF844803E1D3B7CA3B93B681C6800F0EC
:1004F0004FF9444505460FD17C68B442F3D0A0685B
:10050000036829461B6898472468A642F7D13B7CBC
:10051000002BEAD0BDE8F08101463846A047E2E76B
:100520009847DDE79D0400007D04000010B51349E5
:100530000A7882B001AC52B9204601F045FD01981D
:10054000FFF7BAFF019810B103685B69984720462E
:100550000A4902F085FA0198FFF7AEFF019810B141
:1005600003685B699847002002B010BD019810B184
:1005700003685B69984709F093FFF7E7CC92FF1F88
:1005800070B5044608460D460DF07AFF2368024612
:10059000294620465B68BDE87040184710B50AF050
:1005A00049FE70B1044619491948FFF7E9FF61682F
:1005B00017480B782A2B08BF0131FFF7E1FF0AF03B
:1005C0005DF914491248FFF7DBFF114808F0EEF817
:1005D000FEE7012910D10AF089F903689B68984762
:1005E0000D4904460A48FFF7CBFF21460848FFF7AC
:1005F000C7FF0AF0B9F9E8E70AF078F90AF0B4F9A8
:10060000E3E70AF0B1F909F04BFF00BF4C360100F7
:10061000749CFF1F643601007836010008B508217C
:10062000034807F0FBFD034808F0C0F8FEE700BFF1
:10063000D8360100749CFF1F084A094908B51368A1
:100640001844884202D81060184608BD0CF07CFFA0
:100650000C2303604FF0FF3008BD00BF9C87FF1FD5
:100660000070002008B50A4603460249024808F017
:10067000B5F8FEE730360100749CFF1F08B5194637
:100680001046FFF7EFFF00BF704700BF2DE9F047AE
:10069000224A234D2349244B92B0126806AF25F419
:1006A0007F6525F00F058F428046A3EB0505A2EB81
:1006B0000309A1EB020A3C460CD91C480B680068F0
:1006C00083420A4603D025E00868984221D10431CC
:1006D0008C42F9D8164E341B07F108000DF094FB3C
:1006E0004FF4805107F1070E0391B96A0191A6EB0F
:1006F0000E06796A00910594CDF808A04B462A466B
:10070000404604960B4902F0E1FC3037BD46BDE897
:10071000F0870A46064EB41ADEE700BF9C87FF1F2B
:100720002087FF1F00700020A49EFF1F2492FF1F40
:100730000080002084360100014B024A1A60704795
:100740000CED00E00400FA050B460146184606F0E1
:1007500063BD00BF0B460146184606F081BD00BFD1
:1007600080B4084A084B0949116000AFA7F1400264
:100770009A4203D943F8041B9342FBD3BD4680BC85
:10078000704700BF2492FF1F00700020BABAAFFA72
:1007900072B60B4B0B4A0C491B681268096862B6AB
:1007A000490102D5322B88BF0132C3F5BB3340F675
:1007B000B830FF3300FB02F000EB5310704700BF6E
:1007C00018E000E0509BFF1F04ED00E0034B82B0F7
:1007D0001B680193019802B0704700BF509BFF1F38
:1007E000044B1A68824203D0034A18600023136046
:1007F000704700BF3492FF1F2C92FF1FF8B51E4DAB
:100800002B78044663B31D4B1D4ED3F800E01D4FFB
:1008100056F83E103A680A44A31A002B1FDB631AED
:100820009B1A002000E02A461C46002C00F1010023
:10083000A3EB010301EB0205F5DA3A6078B1124B44
:1008400006EBCE061A687168501C1860085C8A5C5A
:1008500000B91860312A0AD00C4B20221A60F8BD6A
:1008600001210D2006F03CFE01232B70CBE7084B45
:1008700020221A60F8BD00BF2892FF1F3492FF1F8C
:100880002487FF1F3092FF1F2C92FF1F88F00F401C
:1008900084F00F4001F08EB800F0E4BD70B506465C
:1008A0000069094B336010B103689B68984735466F
:1008B00055F8040FA84205D004680AF0B9FCAC4210
:1008C0002046F9D1304670BD00370100D0F8C03164
:1008D0005B6803F1604303F56443402270B51A700E
:1008E0000446D0F8C001244D4268D4F8BC615311CD
:1008F00003F13823403301219B0002F01F0201FA6B
:1009000002F21A602B68002143F400232B6031703F
:10091000B170D4F8B831023310F8230006F0E0FDCE
:1009200094F8B031D4F8BC21BBB1D4F8B831DB00B5
:1009300003F0380343F00703112153715170D4F8C9
:10094000AC3163F03F03DBB21371052006F0CEFD3E
:10095000D4F8BC311E22DA7070BDD4F8B83103F07F
:10096000070343F03803112153715170D4F8AC31AF
:10097000C3F13F03E5E700BF3480044070B506468D
:1009800000690B4B336010B103689B68984735468C
:1009900055F8040F854205D004680AF049FCA542C9
:1009A0002046F9D1304614210AF0D4F8304670BD03
:1009B0000037010070B50646D0F8B4210C494069F3
:1009C0000C4B0D4C31600021746043F8221010B1C3
:1009D00003689B689847354655F8080FA84205D02C
:1009E00004680AF025FCAC422046F9D1304670BDBF
:1009F000203E01003C92FF1F00370100A0F10400DF
:100A0000FFF7D8BF70B50646D0F8B4210F4940694A
:100A10000F4B104C31600021746043F8221010B16C
:100A200003689B689847354655F8080FA84205D0DB
:100A300004680AF0FDFBAC422046F9D130464FF481
:100A4000E2710AF087F8304670BD00BF203E010019
:100A50003C92FF1F00370100A0F10400FFF7D2BF56
:100A60002DE9F0410546144600F066FE324BD4F8FD
:100A70000CC020792168314E2B60002220331446AF
:100A8000C5F8A42185F8A82196466B60C5F8ACC1CD
:100A900085F8B0010B223046002304E00133062B19
:100AA0000AD050F8042B8A42F8D198460133062B1D
:100AB00027464FF0010EF4D10134032C06F1200635
:100AC00002D056F8042CE6E7BEF1000F17D01C4BFD
:100AD00053F82720CAB9BCF13F0F13D87A0119493E
:100AE000C5F8B47188188A58C5F8C001C5F8B8812E
:100AF00043F82750C5F8BC212846BDE8F0811248CC
:100B000002F07AFC114802F077FCD2F8B8310D4CB3
:100B10000F4803EBC70302333A4654F8233002F080
:100B20006BFC0C4B2B602846203340F8043FFFF74A
:100B3000B5FE09F0B5FC00BF4438010014370100D0
:100B40003C92FF1F0837010068370100E8370100B9
:100B500098370100203E010030B5936883B0044609
:100B600023B100230360204603B030BD4FF4E27090
:100B70008DE8060009F076FC9DE806000546FFF7C3
:100B80006FFF2046256003B030BD28464FF4E27168
:100B900009F0E0FF09F084FC144B70B51D687DB1CD
:100BA000134B1C78FFF7F4FD95F8A831E4B2064624
:100BB0003BB904F00504052C12D00D4B1E221A700F
:100BC00070BDA307F5D5D5F8A4112846721A04F014
:100BD000050400F0CFFD0023052C85F8A831ECD1E9
:100BE0000123C5F8A46185F8A831E6E73C92FF1F10
:100BF00003300740144B70B55D687DB1134B1C7812
:100C0000FFF7C6FD95F8A831E4B206463BB904F0FB
:100C10000504052C12D00D4B1E221A7070BDA307BF
:100C2000F5D5D5F8A4112846721A04F0050400F091
:100C3000A1FD0023052C85F8A831ECD10123C5F8CE
:100C4000A46185F8A831E6E73C92FF1F0B3007400E
:100C5000144B70B59D687DB1134B1C78FFF798FD60
:100C600095F8A831E4B206463BB904F00504052C1A
:100C700012D00D4B1E221A7070BDA307F5D5D5F802
:100C8000A4112846721A04F0050400F073FD002335
:100C9000052C85F8A831ECD10123C5F8A46185F8AD
:100CA000A831E6E73C92FF1F13300740034A044B8C
:100CB0001068044958601360196070473892FF1F2C
:100CC0004892FF1F590B000000F074BE00F0CABB31
:100CD0002DE9F041D0F8AC41344D742707FB04F7FF
:100CE000EB1906465A6853114FF0400E02F160406E
:100CF00003F13823734400F564409B00012102F0A6
:100D00001F0280F800E001FA02F21A6096F8A401CE
:100D1000002106F0E5FBC4EBC408D6F8B4C1D6F850
:100D2000A4E1234996F8A801D6F8B021EB5904EBC9
:100D3000880464441A3401EBCE0655F82410776811
:100D4000090201F4E061042600254FF6FF743960C2
:100D50001E60DD649C60596D41F001015965E8B188
:100D6000511C03EBC100142444604820013103EB03
:100D7000C10102EBD27248605210586ED2000421B9
:100D8000914001435966586E082101FA02F202436C
:100D90005A661A680A431A60BDE8F081511C03EBD9
:100DA000C100182444604420E0E700BF6C38010013
:100DB0009C500100D0F8AC11D0F8B0310E4A70B59B
:100DC00003EBC103064640690C4D0D4C3560002114
:100DD000746042F8231010B103689B689847354649
:100DE00055F8080FA84205D004680AF021FAAC4271
:100DF0002046F9D1304670BD5092FF1F203E0100C1
:100E000000370100A0F10400FFF7D4BFD0F8AC1107
:100E1000D0F8B031114A70B503EBC1030646406902
:100E20000F4D104C35600021746042F8231010B152
:100E300003689B689847354655F8080FA84205D0C7
:100E400004680AF0F5F9AC422046F9D130464FF477
:100E5000DC7109F07FFE304670BD00BF5092FF1F6D
:100E6000203E010000370100A0F10400FFF7CEBFD3
:100E7000F0B583B00546144600F05EFC2D4B2168AA
:100E80002079DFF8C4C02B60002220336B6085F826
:100E9000A801C5F8A41117469646664600248A4262
:100EA00030464FF0000306D00133032B0ED050F82C
:100EB000042F8A42F8D1C5F8B4310133032BC5F8A9
:100EC000AC71C5F8B0414FF0010EF0D10134082CDF
:100ED00002D056F80C2FE2E70137032F02D05CF85E
:100EE000742FDAE7BEF1000F11D0D5F8B031DA0770
:100EF0000DD461B1D5F8AC210F4803EBC20450F812
:100F000024603EB940F82450284603B0F0BD0B4899
:100F100002F072FAD6F8A4010090094802F06CFAC7
:100F2000084B2B602846203340F8043FFFF7B6FCFF
:100F300009F0B6FA643A01005092FF1FC839010067
:100F4000FC390100203E01007438010030B593687F
:100F5000012B83B0044604D000230360204603B075
:100F600030BD4FF4DC708DE8060009F07BFA9DE897
:100F700006000546FFF77CFF2560EFE728464FF4A3
:100F8000DC7109F0E7FD09F08BFA00BF2DE9F843A9
:100F9000174E346D0CB9BDE8F883D6F80480DFF83D
:100FA0005490FFF7F5FB0025074614F0020F4FEAB7
:100FB000940415D059F825106B1CAA1C06EBC3032A
:100FC00006EBC202084659B19B68926892B2A8EB40
:100FD000020189B2D21A791A92B2891A00F0CAFBB8
:100FE0000235082DE1D1024B00221A65BDE8F883D5
:100FF000008003405092FF1F2DE9F843184E346DD6
:101000000CB9BDE8F883D6F80480DFF85890FFF7F4
:10101000BFFB0025074614F0020F4FEA940415D0D9
:10102000D9F820106B1CAA1C06EBC30306EBC20206
:10103000084659B19B68926892B2A8EB020189B246
:10104000D21A791A92B2891A00F094FB0235082D4F
:1010500009F10809DFD1024B00221A65BDE8F883C7
:10106000009003405092FF1F2DE9F843184E346D55
:101070000CB9BDE8F883D6F80480DFF85890FFF784
:1010800087FB0025074614F0020F4FEA940415D0A1
:10109000D9F840106B1CAA1C06EBC30306EBC20276
:1010A000084659B19B68926892B2A8EB020189B2D6
:1010B000D21A791A92B2891A00F05CFB0235082D17
:1010C00009F10809DFD1024B00221A65BDE8F88357
:1010D00000800B405092FF1F034A044B10680449E4
:1010E00058601360196070473892FF1FB092FF1F5D
:1010F0004D0F0000704700BF00207047704700BFD1
:10110000D0F8840003685B68184700BFD0F88400FB
:101110000368DB68184700BFD0F88430816A1A681A
:1011200018469369184700BF70B506460069094B19
:10113000336010B103689B689847354655F8040F33
:10114000A84205D004680AF073F8AC422046F9D1F1
:10115000304670BD943A010070B5064600690B4BED
:10116000336010B103689B689847354655F8040F03
:10117000854205D004680AF05BF8A5422046F9D103
:101180003046142109F0E6FC304670BD943A010067
:1011900070B50E4B0E4A0646C069336003F130014C
:1011A0003C337160B360F26010B103689B6898478C
:1011B000354655F8100FA84205D004680AF038F8F3
:1011C000AC422046F9D1304670BD00BFDC3E010084
:1011D000943A0100A0F10C00DAE700BF70B50E4BA5
:1011E0000E4A0646C069336003F130013C3371603A
:1011F000B360F26010B103689B689847354655F8B4
:10120000100FA84205D004680AF012F8AC4220463C
:10121000F9D1304670BD00BFDC3E0100943A0100B8
:10122000A0F10C00DAE700BF70B5104B104A06467B
:10123000C069336003F130013C337160B360F26028
:1012400010B103689B689847354655F8100FA842BF
:1012500005D0046809F0ECFFAC422046F9D13046D5
:10126000882109F077FC304670BD00BFDC3E0100EC
:10127000943A0100A0F10C00D6E700BF70B5104B06
:10128000104A0646C069336003F130013C33716097
:10129000B360F26010B103689B689847354655F813
:1012A000100FA84205D0046809F0C2FFAC422046E6
:1012B000F9D13046882109F04DFC304670BD00BFA1
:1012C000DC3E0100943A0100A0F10C00D6E700BF1B
:1012D00038B504460D4600F0F5FB134B134AC4F82D
:1012E000842003F1300003F13C0103F14802236044
:1012F0006060A160E2600DB9204638BD0C4B0D4A1C
:101300000D481821FFF7BAF90C4B2360204603F172
:10131000300103F13C0248336160A26040F80C3FA9
:10132000FFF702FF09F0BCF8A43A0100749CFF1F0C
:10133000043B0100AC3B0100103B0100DC3E01001E
:1013400030B5044683B021B100230360204603B0CA
:1013500030BD88208DE8060009F084F89DE806007D
:101360000546FFF7B5FF2046256003B030BD28468F
:10137000882109F0EFFB09F093F800BF174B70B517
:10138000044653F821600D4600F09CFB144BC4F852
:101390008460013D03F1300003F13C0103F1480298
:1013A000022D23606060A160E26001D8204670BD1C
:1013B0000C4B0D4A0D482821FFF760F90C4B2360B8
:1013C000204603F1300103F13C0248336160A26022
:1013D00040F80C3FFFF7A8FE09F062F8F43A01006C
:1013E0005C3B0100343B0100F43B0100103B010079
:1013F000DC3E010030B54B1E022B83B0044604D9FD
:1014000000230360204603B030BD88208DE806002D
:1014100009F028F89DE806000546FFF7AFFF2046D3
:10142000256003B030BD2846882109F093FB09F000
:1014300037F800BF30B40649064B0D68064A074C22
:1014400007485A6082E830000B60186030BC704773
:10145000B892FF1FC492FF1FBC92FF1F41130000F0
:10146000F5130000406910B10368DB681847704746
:10147000F0B585B00023074600F1080602930393F8
:1014800001ADFA693B6A9A4226D0FB6903F01F035B
:1014900003EB430307EB8303243393E8070085E85A
:1014A0000700BFF35F8FFB69BC680133B442FB6187
:1014B00007D0A068036829461B6898472468A6429D
:1014C000F7D178690028DCD0036829461B68984763
:1014D000FA693B6A9A42D8D105B0F0BD704700BFA7
:1014E000704700BFC3680133C360704710B5D8218F
:1014F000044609F02FFB204610BD00BF10B5102197
:10150000044609F027FB204610BD00BF30B58368B4
:10151000426883B05D1E0446C0680190E81C8CBF21
:1015200000250125013318BF012308460095034912
:1015300001F0CCFD0023E36003B030BD743C01003A
:101540002DE9F04F836842680446581EC61C83B0DC
:101550008CBF002001200D46013318BF01230090ED
:101560002649284601F0B2FD226963699A423ED0BD
:10157000DFF89890DFF89880214F04F11006206979
:1015800000F00F0000EB4000800000F1080B231872
:10159000B3440C3003213044D3F818A001F04AFFC3
:1015A000DBF8083089FB0321A1EBE37152460346C7
:1015B00000912846414601F089FD226963699A42FB
:1015C00002D0236901332361226963699A42394653
:1015D000284602D001F07AFDD1E72846E2680949A1
:1015E00001F074FD0023E36003B0BDE8F08F06490D
:1015F000284603B0BDE8F04F01F068BD883C01000B
:10160000943C0100B83C0100C43C010056555555BE
:10161000983C0100426903460069121A0F2A06D954
:1016200018695A69904202D01A6901321A615A69DE
:101630001869121A0F2A03D9DA680132DA60704782
:1016400010B45C6907C904F00F0404EB440403EB15
:101650008404183484E80700BFF35F8F5A6910BC14
:1016600001325A61DA680132DA60704770B50B4AAC
:101670000B4B0646406986E80C0010B103689B6876
:101680009847354655F8080FA84205D0046809F078
:10169000CFFDAC422046F9D1304670BD203E01005E
:1016A00000370100A0F10400E0E700BF70B50E4A6A
:1016B0000E4B0646406986E80C0010B103689B6833
:1016C0009847354655F8080FA84205D0046809F038
:1016D000AFFDAC422046F9D130464FF4D27109F04B
:1016E00039FA304670BD00BF203E010000370100CE
:1016F000A0F10400DAE700BFF0B50D4B1C6883B021
:10170000154684B107460E4601E064685CB1236863
:101710002A46314601A89847019B002BF5D0384650
:101720003B6003B0F0BDA968024801F065FE00BF50
:101730003892FF1FE83D010030B40D4C816104F187
:10174000200580E83000002200F108038360C360B8
:10175000C26102614261026200F1240300F5D271AC
:101760005A609A600C339942FAD130BC704700BF7E
:10177000203E010010B485B003460291016AC069A1
:101780000392091A1F29986912D804AA1C6A42F800
:101790000C0D04F01F0407CA04EB440403EB84049B
:1017A000243484E80700BFF35F8F1A6A01321A629B
:1017B00005B010BC704700BFF0B583680779DFF84B
:1017C0005CE0114E044603EB4303104883B015461A
:1017D000002F08BF30465EF8232023680192009056
:1017E0000A4628460A4901F071FCA36823B9E26859
:1017F0000849284601F06AFC0749284603B0BDE8BD
:10180000F04001F063BC00BFC43D0100B83D0100E1
:10181000D03D0100C8420100B43D01004487FF1FD4
:10182000F8B51446334A6168914208BF0C3401464A
:10183000064620681F4601F089FC054610B1336852
:10184000FF2B06D938462C4901F040FC00252846DC
:10185000F8BD2269294B9A4233D003F12B5303F58B
:10186000A31303F297339A4207D01AB33846244998
:10187000002501F02BFC2846F8BD00233371E369F5
:101880008BB1204A51688B420CD0116999422BD000
:10189000D26993422BD038461B49002501F016FC33
:1018A0002846F8BD0023B360A36A6BB91423F36024
:1018B0002846F8BD15463846144901F007FC28466D
:1018C000F8BD01233371DAE7606A06F10C0101F01B
:1018D0003DFC28B938460E4901F0F8FB0025B6E773
:1018E000F3683F2BF6D8B2E70123B360AFE70223DA
:1018F000FBE700BF5E408B40683D010031036E1D79
:10190000E83C01004487FF1F283D0100D43C010052
:10191000843D0100F8B54968214DA94204461746A7
:101920001E462ED01F48814221D01F4B994201D024
:101930000020F8BDD82008F095FD00221B4B036065
:10194000026147608660C260426100F1180300F1E5
:10195000D8015A609A600C339942FAD12369206108
:101960001BB11A681846936898470120F8BD206992
:10197000002323610028F8D003689B689847012062
:10198000F8BD102008F06EFD236909494760002268
:1019900086600160C2602061002BE2D1E5E700BFF4
:1019A00064C1EA54954E5FE99E770322643C0100CE
:1019B0004C3C01000B4B4A689A4201D00020704712
:1019C0008B6882699342F9D110B5074A0C69944239
:1019D00001D0002010BD1831044A0430FFF79AFFEF
:1019E00010BD00BF7AF17989A276BF83103E010055
:1019F0000B6833B1012B03D1002380F87C30704792
:101A000070474B68C0F88030012380F87C30704705
:101A1000A0F10800FFF7ECBFF8B5036B04460D46D4
:101A20003F2B204608D823685B6A98470028236B21
:101A300022DB3F2BE5622AD926463F2B56F8105F62
:101A4000226A62678CBF00230123B54284F8783094
:101A500004F12C0707D0A868036839461B6898472B
:101A60002D68AE42F7D1E06918B1036839461B68AA
:101A7000984700232363F8BD3F2BDDD833B1E16ADB
:101A800040F6B8326D1A9542D6DCF8BDF8BDE218C2
:101A90000133236382F83400C2E700BF90F87C3042
:101AA0002BB1D0F880208B6C9A4200D0704703682D
:101AB00051F8042F1B6A0431184700BFA0F104003D
:101AC000FFF7ECBFF8B5134B0162044692E8030040
:101AD00003F1380503F108022260656004F1100289
:101AE000002503F1440704F12406503322616261AA
:101AF000A760E360A561E561502286E803002946FE
:101B000004F12C000CF026F984F87C50C4F88050C5
:101B10002046F8BDD43E0100F0B50D4B1C6883B0E3
:101B20000D4684B10746164601E064685CB123683F
:101B30003246294601A89847019B002BF5D038462C
:101B40003B6003B0F0BD2946024801F055FC00BFE0
:101B5000B892FF1F5C3E010010B40378144611B91F
:101B600053B110BC7047002BFBD00A4643680549AF
:101B7000204610BC01F0AABA1046034910BC01F07F
:101B8000A5BA00BFC43E0100B43E010038B54C1EEA
:101B9000033414D8032901D9002038BD01461D465D
:101BA0000123044601F8043B106801F0CFFA626893
:101BB00068B10A4BA2F59671994208D838BD5368AE
:101BC000074A9B1A18BF01230370012038BD05493D
:101BD000284601F07BFA002038BD00BFD4C00100C8
:101BE000954E5FE97C3E010070B5054655F8044FFF
:101BF000A54218BF0E4603D10AE02468A54207D0CB
:101C0000A068036831469B6898470028F5D070BDEE
:101C1000002070BD70B5054655F8044FA54208D0A8
:101C20000E46A06803683146DB6898472468A542E1
:101C3000F7D170BD4B68002B4BD02DE9F047002643
:101C400005468A46B046CF1D00F108090DE06B68D5
:101C5000FE2B03D8EA1801336B60147285F8084133
:101C6000DAF8043001369E421CD217F8014FA4F175
:101C700020035E2BEBD90D2C1AD00A2C14D0082C83
:101C800001D07F2CEAD16B68002BE7D0013BB3F584
:101C9000807F1FD86B6085F80841DAF80430013680
:101CA0009E42E2D3BDE8F08795F808310D2BD5D0E0
:101CB0006B68FF2B98BF5B19494698BF83F8088073
:101CC0002B68C5F80480DAF800205B68284698473E
:101CD000C4E77047024B034A03481721FEF7CEFCC6
:101CE00084410100AC410100904101000846FEF72B
:101CF00085BD00BF70B50E4B0E4A0646D0F82001D8
:101D0000336024337360C6F8102110B103689B68F8
:101D10009847D6F8140106F58A75A84205D00468DC
:101D200009F086FAAC422046F9D1304670BD00BFBA
:101D3000603F0100943A0100A0F58870DAE700BF27
:101D400070B5104B104A0646D0F82001336024339A
:101D50007360C6F8102110B103689B689847D6F8E5
:101D6000140106F58A75A84205D0046809F060FAE6
:101D7000AC422046F9D130464FF4967108F0EAFEA5
:101D8000304670BD603F0100943A0100A0F58870B4
:101D9000D6E700BF2DE9F04F83B0002A55D0894621
:101DA000002978D0074650F8103FC3F14006B242F0
:101DB000144628BF3446191D2344402B08446CD8D0
:101DC000154607F10C0807F1140A08E02D1B402DF9
:101DD000A1442C4628BF40242346504640263B6160
:101DE000224649460BF0B8FEB54222D93B69002B8A
:101DF000ECD07B6801931E464FF0000256F804BFFA
:101E000087F85820B3450AD033465E469B46B068F3
:101E1000036841461B6898473668B345F7D1019B74
:101E2000186918B1036841461B68984700233B6155
:101E3000CCE73B7A2BB93B691BB13B44DB7C0A2BDB
:101E400008D0284603B0BDE8F08F1546284603B0F9
:101E5000BDE8F08FD7F804904E46012356F8044FA2
:101E600087F85830B44207F10C0807D0A06803681F
:101E700041461B6898472468A642F7D1D9F810005C
:101E800018B1036841461B689847002328463B6108
:101E900003B0BDE8F08F0D46D3E7034B034A044877
:101EA0001721FEF7EBFB00BF844101000442010053
:101EB0009041010010B5042282B00DEB02010446EE
:101EC0000020FEF741FC084B019A9A4202D0002004
:101ED00002B010BD21464FF47E720420FEF734FCA0
:101EE000012002B010BD00BFF803BEBA10B500F16A
:101EF000F003044600F54471002243F8442B8B4262
:101F0000FBD100214FF47E7220460BF023FF042208
:101F10000123C4F8D42384F8D8332046FFF7CAFF3E
:101F2000204610BD10B582B002A9084B41F8043D0F
:101F3000044604220020FEF70DFC21464FF47E7279
:101F40000420FEF707FC02B010BD00BFF803BEBAC4
:101F500008B500220270FFF7E5FFBDE80840FEF774
:101F6000EBBB00BF10B582B00C46014601A800F0E3
:101F700077FD019810B103685B699847012002B0B2
:101F800010BD01290DD108F0B1FC03689B6898478A
:101F90000B490246204601F099F808F0E5FC0020C4
:101FA000EDE708F0A3FC2046064901F08FF8F4E7BE
:101FB00008F0DAFC08F074FA08F0D6FC08F070FAC1
:101FC0009C3F0100B43F01002DE9F043074685B076
:101FD00014208946904608F045FA0646494B46F8D3
:101FE000043B0546002338606E604FF49670AE6087
:101FF000EB602B7408F036FA0446434BC0F824918A
:1020000003F1340103F1240004F58A7223600023F4
:102010006060C4F82851C4F810110120C4F81421DC
:10202000C4F81821A360C4F81C31C4F82031FEF7AD
:10203000D7FB0C2008F016FA3146846009F008F945
:10204000EB683E680133EB604146002302AA01A819
:1020500003930293FFF760FD0C20019D06F1040835
:1020600008F000FA019B836041460023019309F0C8
:10207000EFF8F36801980133F36010B103685B690E
:10208000984705B305F104080C20D4F8146108F052
:10209000E9F9C0F80880314609F0DAF8D4F81C31C3
:1020A0002E690133C4F81C310C20043408F0DAF92D
:1020B0008460314609F0CCF8AB6938460133AB6136
:1020C00005B0BDE8F083A846DEE7386810B10368C4
:1020D0005B69984708F0E4F901980028F5D0036897
:1020E0005B699847F1E7236820465B699847ECE70E
:1020F00004F58870FFF718F820464FF4967108F041
:1021000029FDE2E7343F0100603F01002DE9F04383
:1021100014460A68944289B001D8072C06D92B4985
:10212000109800F0D3FF09B0BDE8F0830E4680465A
:102130001A466846109B21466D46FFF771FB002842
:10214000F1D033689C421ED04FEA041906EB090710
:10215000043797E80F000DF1100E8EE80F0095E898
:102160000F0087E80F009EE80F0085E80F0040464B
:102170001099FFF7F7FEE0B995E80F0087E80F0028
:1021800009B0BDE8F08395E80F004FEA041906EBAB
:1021900009050435671C376085E80F004046109933
:1021A000FFF7E0FE28B93368002BBCD0013B336059
:1021B000B9E70749109800F089FF09F1040030449D
:1021C0002146109AFFF7F8FAADE700BF5841010029
:1021D0004C4101002DE9F04F14460A68944299B031
:1021E00001D8012C06D94149229800F06FFF19B09F
:1021F000BDE8F08F894682461A466846229B2146F2
:1022000003F0AEF90028F2D0D9F800309C424BD050
:102210004FEA440B0BEB040809EB081808F104071C
:102220000FCF0CAE0FC60FCF0FC697E80F006D464D
:1022300086E80F000FCD08F10408C646AEE80F008F
:102240000FCDAEE80F0095E80F000DF1300E87E8D6
:102250000F00BEE80F006F460FC7BEE80F000FC7A4
:1022600096E80F0085E80F0050462299FFF77AFEA6
:1022700060B96D460FCD44460FC40FCD0FC495E82D
:102280000F0084E80F0019B0BDE8F08F18492298BC
:1022900000F01CFF0BEB040009EB0010043021469A
:1022A000229A03F021F9A2E76E460FCE4FEA440BC3
:1022B0000BEB040509EB05150435671CC9F8007024
:1022C0000FC50FCE0FC596E80F0085E80F005046EA
:1022D0002299FFF747FE0028D8D1D9F80030002B0B
:1022E00085D0013BC9F8003081E700BF58410100AB
:1022F0004C4101002DE9F04314460A689442A3B012
:1023000001D8072C06D92F492A9800F0DFFE23B008
:10231000BDE8F08322AE002246F8882D0D468046A7
:102320001A4630462A9B214603F092F90028EED047
:102330002B689C424FEA041920D009EB040705EBF7
:10234000870704373946442211A80BF005FC4422C4
:10235000314638460BF000FC11A9442230460BF000
:10236000FBFB2A994046FFF7FDFDE8B931463846A8
:1023700044220BF0F1FB23B0BDE8F08309EB04002D
:10238000631C05EB8000314604302B6044220BF0C7
:10239000E3FB2A994046FFF7E5FD28B92B68002B9F
:1023A000B5D0013B2B60B2E707492A9800F08EFEBA
:1023B00009EB040005EB8000043021462A9A03F063
:1023C0000DF9A4E7584101004C4101002DE9F04707
:1023D00014460A6894428CB001D8072C06D93B49B0
:1023E000149800F073FE0CB0BDE8F0870D468046EF
:1023F0001A466846149B214602F0AEF80028F2D037
:102400002B689C4236D04FEA440909EB040605EBE1
:10241000C60606F1040CBCE80F000DF1180EAEE87C
:102420000F009CE803006F468EE803000FCF0436D0
:10243000B246AAE80F0097E803000DF1180A8CE8ED
:102440000300BAE80F00EC46ACE80F009EE803007A
:1024500087E8030040461499FFF784FD38BB6D46BA
:102460000FCD34460FC495E8030084E803000CB098
:10247000BDE8F0876F460FCF4FEA440909EB040629
:1024800005EBC606043604F1010EC5F800E00FC6E0
:1024900097E8030086E8030040461499FFF762FDC1
:1024A00028B92B68002B9ED0013B2B609BE7084985
:1024B000149800F00BFE09EB040005EBC00004309B
:1024C0002146149A01F0FAFF8DE700BF5841010040
:1024D0004C4101002DE9F04314460A68944283B050
:1024E00001D8032C06D92A490A9800F0EFFD03B061
:1024F000BDE8F0830D4680461A4668460A9B214691
:102500006F46FFF743FB0028F1D02B689C4228D090
:10251000E60097E80300331D05EB03092E4404365B
:10252000EA5CD9F80430019386E8030040460A9932
:102530008DF80020FFF716FD48B997E8030086E8FC
:10254000030003B0BDE8F08309F10409A94411496F
:102550000A9800F0BBFD0A9A21464846FFF7FCFAAC
:10256000C5E797E803004FEAC40905EB0903043304
:10257000621C2A6083E8030040460A99FFF7F2FCD8
:102580000028E1D12B68002BB1D0013B2B60AEE7D6
:10259000584101004C410100F0B5054683B00846A2
:1025A000144600F02DFE416819B307683B78232BD1
:1025B0001FD08F4E8268B14200F10C0300F09F8063
:1025C0001ED98C48814200F08A8031D98A488142E4
:1025D0007BD000F1276000F5D92000F2D62081429F
:1025E00062D0864881424DD03A468549204600F067
:1025F0006DFD2046834900F069FD012003B0F0BD68
:102600008148814200F0818029D98048814200F0D0
:10261000E28000F1C15000F58C2000F2E9308142E7
:10262000E2D1009405F188012846FFF7D3FDE0E7E9
:10263000774B99422DD0774B9942D5D14FF47E728A
:10264000002128460BF086FB04220123C5F8D42381
:1026500085F8D8337049204600F038FDC9E7A0F16D
:102660009060A0F54F30A0F5D870814226D1284661
:102670002146FFF777FC0028BBD06849204600F0D0
:1026800025FDB6E7009405F544712846FFF79EFE48
:10269000AFE72846FFF70EFC002800F0A380604952
:1026A000204600F013FDA4E721462846FFF75AFC18
:1026B00000289ED001232B7000209FE700F5090021
:1026C00000F50040FC3081428ED1511C08BF002231
:1026D000009405F575712846FFF7FCFE89E7214651
:1026E0002846FFF73FFC002883D0012328462B70A3
:1026F000FFF718FC4B49204600F0E8FC79E700940E
:10270000291D2846FFF702FD73E7D5F888306A686F
:102710004549204600F0DAFC4449204600F0D6FC4A
:102720006B686BB105F10807002631463846224632
:10273000FFF742F86B6801369E4207F11007F4D3A9
:10274000D5F8883073B105F18C070026314638463C
:10275000224602F0C9FED5F8883001369E4207F1C4
:102760003007F3D3D5F8EC3073B105F1F00700264C
:1027700031463846224602F031FFD5F8EC300136BA
:102780009E4207F14407F3D3D5F8D43373B105F56E
:1027900076770026314638462246FFF7DDF9D5F830
:1027A000D43301369E4207F10807F3D3D5F810332E
:1027B000002B3FF41EAF05F545770026314638461D
:1027C000224601F07BFED5F8103301369E4207F118
:1027D0001807F3D30DE7009405F1EC012846FFF745
:1027E00089FD06E71249204600F070FC01E700BFB2
:1027F0007AF179898CFA1DBD0ABB10D70B1377D4F7
:10280000D44001004041010022A6CF469BE8C74AC0
:102810005EA49898D41865A110400100BC40010046
:10282000244001007C400100D03F0100084001002D
:1028300050400100F0B599B000230446164600F55B
:1028400088720F4602921946502204A8264D8DF830
:102850000C3001950BF07EFA3946D4F82401049629
:1028600001AAFFF799FE18B9D4F8283101221A7489
:10287000059B01950BB919B0F0BD029E35460123A9
:1028800055F8044F8DF85C30AC4207D0A06803685F
:1028900004A91B6898472468A542F7D1306900282D
:1028A000E9D0036804A91B68984719B0F0BD059BDF
:1028B00001950BB907F0F4FD029E3546012355F84A
:1028C000044F8DF85C30A54206D0A068036804A9C7
:1028D0001B6898472468F6E730690028EAD0036847
:1028E00004A91B689847E5E7543F0100A0F10400E4
:1028F000A0E700BF70B5046884420DD00646A36807
:102900002568184613B11B685B699847204608F094
:102910008FFCB5422C46F2D170BD00BF10B5044B00
:10292000044640F8043BFFF7E5FF204610BD00BF1A
:10293000343F010010B5064B044640F8043BFFF756
:10294000D9FF2046142108F005F9204610BD00BF2C
:10295000343F01000148FFF7C9BA00BFCC92FF1F06
:102960002DE9F84390E80C009B1A9B100646894617
:1029700005D05D00AB422AD96FF0030500E00425C5
:10298000284607F06FFD0746D6F800807468D9F82E
:102990000020A4EB0804E7424FEAA40318BF3A5111
:1029A0006BB904343C44B8F1000F02D0404608F043
:1029B0003FFC3D44B56037607460BDE8F883224653
:1029C0004146384604340BF061F93C44EEE7B5F17A
:1029D000804FD1D22F46002DD6D0DD00D0E700BFEA
:1029E0002DE9F84390E80C009B1A9B100646894697
:1029F00005D05D00AB422AD96FF0030500E0042545
:102A0000284607F02FFD0746D6F800807468D9F8ED
:102A10000020A4EB0804E7424FEAA40318BF3A5190
:102A20006BB904343C44B8F1000F02D0404608F0C2
:102A3000FFFB3D44B56037607460BDE8F883224613
:102A40004146384604340BF021F93C44EEE7B5F139
:102A5000804FD1D22F46002DD6D0DD00D0E700BF69
:102A60002DE9F04F834691B014208A4607F0FAFC16
:102A70000646924B46F8043B05460023CBF800007F
:102A80006E6040F26C50AE60EB602B74DAF804704C
:102A900007F0E8FC3946044603F04AFE0C2007F034
:102AA000E1FC3146846008F0D3FBEB68DAF80420DF
:102AB00000260133EB600A960B960C96002A49D04B
:102AC000231D0AF1080801930BE00D9A03B11A6067
:102AD00004330B93DAF8043001369E4208F11008F3
:102AE00038D24246314607A8DBF80070FEF704FEF4
:102AF0000C20079DD7F8049007F0B4FC079B836077
:102B000049460023079308F0A3FBFB6807980133AD
:102B1000FB600D9518B103685B6998470D9DAF6820
:102B20000C2007F09FFC019B8360394608F090FB66
:102B30002A690B9B0C9901328B422A61C5D10DA9E0
:102B40000AA8FFF70DFFDAF8043001369E4208F1BB
:102B50001008C6D3DAF8EC3000260D960E960F96C4
:102B6000002B44D00AF1880301930AF1F0080AE02F
:102B700003B11D6004330E93DAF8EC3001369E4247
:102B800008F1440833D29420DBF8007007F06AFCA7
:102B9000019B42463146054602F050FA0C2007F1EF
:102BA000040907F05FFC8560494608F051FBFB68AB
:102BB000D4F80C900133FB600C202F1D07F052FC61
:102BC0004946876008F044FB62690E9B0F9909959E
:102BD00001328B426261CBD109A90DA8FFF700FF3A
:102BE000DAF8EC3001369E4208F14408CBD3DAF82B
:102BF0008830002633B38420DBF8007007F032FC05
:102C00003146054600F0A4FE0C2007F1040807F049
:102C100029FC8560414608F01BFBFB68D4F8208046
:102C20000133FB600C20043507F01CFC8560414635
:102C300008F00EFBA36ADAF88820013601339642C9
:102C4000A362D8D3102007F00DFC0146039000F1D9
:102C50001002002301B10B6004319142FAD1DAF87D
:102C6000D423059162B30025A9465646039F0AF571
:102C7000767808E00135954206F1080607F1040769
:102C800008F108081CD296F8D833002BF2D042463F
:102C9000294608A8FEF740FF3868089B3B60CDF83E
:102CA000209038B103685B699847089810B10368B1
:102CB0005B699847DAF8D423DCE700BF343F0100B2
:102CC000DAF81033002B00F0A380059B039A9B1ABF
:102CD0009B1004930AF5457302930023D146019398
:102CE000D9F81413002900F02881022940F022812C
:102CF0000D9A0E9BD9F81C139B1AB1EBA30F80F011
:102D0000988152F8215005B10835029BD9F8241357
:102D100009A803F1140202F0D5FB099E1EB3DBF8EB
:102D2000007000230C2007F10408099307F09AFBB8
:102D30008660414608F08CFAFB68D5F804800133C0
:102D4000FB600C20371D07F08DFB8760414608F0C3
:102D50007FFAEB6809980133EB6006F1080510B1C2
:102D600003685B69984709A8029A0199DBF800603B
:102D700001F05EFB0C20DDF82480371D07F072FBAC
:102D8000099B836039460023099308F061FAF368D0
:102D900009980133F36010B103685B699847B8F193
:102DA000000F00F0F98008F134070C206E6807F07E
:102DB00059FB8760314608F04BFAEB680133EB6052
:102DC000D9F82013049B994280F0B080039B53F8FC
:102DD0002150002D00F0AA800C200435D8F808609E
:102DE00007F040FB8560314608F032FA0199D8F8C7
:102DF0001030DAF810230298013101331830914273
:102E0000019109F118090290C8F81030FFF468AF79
:102E1000102007F027FB059B039AA3EB020900246F
:102E20005FEAA9098246046044608460C46019D0E6
:102E3000039D2E688EB1DBF8007000232B600C2000
:102E400007F1040807F00EFB8660414608F000FA1F
:102E5000FB680133FB604AF8246001344C4505F1FE
:102E60000405E6D1DAF80050002D3FD04FF4A670EB
:102E7000DBF8006007F0F6FA3146044600F036FF52
:102E80000C20371D07F0EEFA8460394608F0E0F9AF
:102E9000F368D4F814710133F3600C202E1D07F091
:102EA000E1FA8660394608F0D3F9D4F81C31D4F839
:102EB000286101330C20C4F81C3105F1080707F024
:102EC000D1FA8760314608F0C3F9D4F830312E6961
:102ED0000133C4F830310C20043407F0C3FA8460A5
:102EE000314608F0B5F9AB690133AB61504608F0E3
:102EF0009FF9059B039A934209D0039C059D54F8C2
:102F0000040B10B103685B699847AC42F7D1039892
:102F100008F08EF90D9808B108F08AF90A9808B1FE
:102F200008F086F9584611B0BDE8F08F019A56486E
:102F300000F062FA554800F05FFA3820DBF80050E4
:102F400007F090FA029A0199804601F051FA504B2D
:102F5000C8F83430A3F13402C8F80020A3F11002FD
:102F60000C20C8F804202E1D07F07CFAC0F8088059
:102F7000314608F06DF9EB68E6680133EB600C2030
:102F800008F1340507F06EFA8560314608F060F903
:102F900063690133636113E7474606E7059B039ABC
:102FA000934209D0039C54F8040B10B103685B6989
:102FB0009847059BA342F6D1039808F039F90D987C
:102FC00008B108F035F90A9808B108F031F9DBF8D2
:102FD000000010B103685B69984707F061FA336835
:102FE00030465B699847504608F022F9D6E72368D7
:102FF00020465B699847F6E720464FF4A67107F034
:10300000A9FDF0E7EFE709980028C7D003685B69DE
:103010009847C3E7336830465B699847F3E72B6806
:1030200028465B699847CAE72846942107F092FD35
:10303000C5E7184800F0E0F9E5E7204640F26C519A
:1030400007F088FDC3E7C2E7B9E707980028BAD0C0
:1030500003685B699847B6E7B5E7236820465B6974
:103060009847B4E7D8F8003040465B69984795E741
:103070004046382107F06EFD90E7D0E728468421CE
:1030800007F068FD9BE700BFA042010084420100F9
:10309000B4470100644201004068704710B5034B1B
:1030A0000360044607F07AFB204610BDF842010099
:1030B00010B5054B0360044607F070FB204608215D
:1030C00007F048FD204610BDF84201000EB430B5AF
:1030D00082B005AB054653F8042B0A4801934FF420
:1030E00080710CF081FB041E05DD2B6805491B680F
:1030F000284622469847204602B0BDE8304003B03B
:10310000704700BF509AFF1F0368A3B11A78511E81
:103110001F2904D813F8012F511E1F29FAD992B183
:103120005A78202A03F1010103DD11F8012F202A2A
:10313000FBDC12B9026018467047002201F8012B2F
:1031400001601846704702601346F4E7034608B171
:1031500003780BB91846704710B582B00C460A22A6
:1031600001A90CF0BFFA019B20601878B0FA80F03A
:10317000400902B010BD00BF034608B103780BB987
:103180001846704710B582B00C4601A90CF0B8F98A
:10319000019B20601878B0FA80F0400902B010BDA1
:1031A00070B582B004460D4616460BF069F920440E
:1031B00084420ED010F8013C303B092B0CD8431E42
:1031C00004E013F8012D303A092A05D89C4218462C
:1031D000F7D1002002B070BD0378002BF9D0286031
:1031E0000378002BF5D00A2201A90CF07BFA019B91
:1031F00030601878B0FA80F0400902B070BD00BFAE
:103200002DE9F04F85B00DF11009DFF8E8A149F87C
:103210000C0D724E724D734F4FF000084846FFF789
:1032200073FF044610B1B8F1400F0ED16E4808EBA1
:1032300048084FEA880800EB0802002340F80830ED
:103240005360936005B0BDE8F08F0378232BEDD079
:10325000524603A94AF8084CFFF7A2FF834600280C
:1032600048D0039B232293F800B01A70DDF80CC0FD
:10327000ACEB040E0EF10100032840F2A980211FDF
:1032800000234A6806FB02F24FEA724205FB02F293
:10329000534001F10B024FEAF343121B03EB83038C
:1032A00090423B4401F10401EBD8AEF1030E2EF045
:1032B000030E0EF1040E00F00302022A00F08480D7
:1032C000032A79D0012A50D0484A434083EA134365
:1032D00002FB03F3464A83EA533302FB03F383EA18
:1032E00013434AF8043C8CF800B008F101080AF1D5
:1032F0000C0A93E720460BF0C3F803285B466AD913
:10330000211F4A6806FB02F24FEA724205FB02F2F5
:10331000534001F10B024FEAF343121B03EB83030B
:1033200090423B4401F10401EBD8011F21F003015D
:10333000043100F00302022A3AD0032A2ED0012AD7
:103340001FD02A4A434083EA134302FB03F3284A6F
:1033500083EA533302FB03F383EA13434FF0FF3254
:103360004AF8043CCAF80020BFE7002114F80E20F8
:103370004A4006FB02F24FEA724205FB02F253405A
:10338000A2E74FF0000E625C82EA0E0206FB02F238
:103390004FEA724205FB02F25340D2E704EB010E02
:1033A0009EF8022012049EF801E042EA0E2EEAE79F
:1033B000002204EB010EF6E704EB0E018A781204FA
:1033C000497842EA0121D1E7002204EB0E01F7E738
:1033D00000239E466FE75946ABE700BF512D9ECCB8
:1033E0009335871B646B54E6C496FF1F6BCAEB854D
:1033F00035AEB2C2CC96FF1F0FB430B583B006AB6A
:10340000084C53F8042B0193802120460CF0ECF972
:10341000082007F087F9044D044A05494460056017
:1034200007F0EEF9D099FF1FF84201009D3000002F
:10343000E442010070B504460D46FDF7C7F940F6B9
:10344000B83324689D4203FB1044064694FBF5F410
:103450001BD01CDD1549EA1781FB0501C2EBA11247
:1034600003FB1253EBB1284608F0EAFD0146104871
:1034700008F0EEFE0546304608F0DEFD014628461F
:1034800008F032FE09F032F80646A01970BD93FB31
:10349000F5F205FB1233002BE5D102FB06F6A0196D
:1034A00070BDB6FBF2F6A01970BD00BFF11976052C
:1034B00000803B45704700BF806910B10368DB683E
:1034C00018477047F8B5C2694B68934200D0F8BD01
:1034D000026A044652B98A6894F8280022620A7B7C
:1034E00098B13AB1002384F82830F8BD88680132D9
:1034F0009042F1D0002384F82930236284F82830E8
:103500006362E36263632364F8BD656A112D0DD0C5
:1035100052B90135112D6562D9D101226FF0010335
:1035200084F828202363F8BD6062F8BD94F8295020
:10353000E06A42EA45020130D2B2082884F8292024
:10354000E062C4D1256BE80744BF012084F828005D
:10355000002D2FDB606B854207DA266C3F2E04D8E6
:10356000A7190136266487F8442040F0010201358E
:10357000043200209542256384F82900E062A6D138
:1035800026460A6856F80C5FA263B542E36304F16D
:10359000380707D0A868036839461B6898472D6824
:1035A000AE42F7D1A0690028A4D0036839461B6851
:1035B00098479FE7A81CC000666B824042EA06005D
:1035C0006063D2E7A0F10400FFF77CBF704700BF43
:1035D000704700BFC3680133C360704710B54FF434
:1035E0009B61044607F0B6FA204610BD10B51021C5
:1035F000044607F0AFFA204610BD00BF30B583681F
:10360000426883B05D1E0446C0680190E81C8CBF10
:1036100000250125013318BF012308460095034901
:10362000FFF754FD0023E36003B030BD743C01009C
:1036300070B506460069094B336010B103689B689A
:103640009847354655F8040FA84205D0046807F09E
:10365000EFFDAC422046F9D1304670BD0C4301006D
:103660002DE9F04F836842688046581EC41C8BB019
:103670008CBF002001200E46013318BF01230090AB
:1036800065493046FFF722FDD8F81020D8F81430ED
:103690009A4200F0BA80DFF8A0A1604F08F1100B49
:1036A000D8F810504C2305F00F0503FB05B508357D
:1036B00040F6B8312846FFF7BDFE51460246304677
:1036C000FFF704FDAB68212B28D055493046FFF7A2
:1036D000FDFCAB6863B105F10B09002419F8012F5B
:1036E00039463046FFF7F2FCAA680134A242F5D809
:1036F000D8F81020D8F814309A4204D0D8F81030F6
:103700000133C8F81030D8F81020D8F814309A4295
:103710006FD044493046FFF7D9FCC1E72A7B02F05D
:103720003F03062BD1D195F82C10687BD5F80E30CD
:10373000069195F82B403C494134059495F9224077
:10374000049495F92140039495F920400294EC7E6D
:103750000194AC7E0094800040EA92123046FFF75C
:10376000B5FC002405EB440999F8271099F82800C6
:1037700041EA002008F066FF08F034F8CDE90801BE
:1037800099F8231099F8240041EA002008F05AFF24
:1037900008F028F8CDE9060199F81C1099F81D00E9
:1037A00041EA002008F04EFF08F01CF8CDE90401C2
:1037B00099F8161099F8170041EA002008F042FF26
:1037C00008F010F8CDE9020199F8122099F81300D9
:1037D00042EA002008F036FF08F004F82246CDE95E
:1037E0000001013411493046FFF770FC022CB9D1B9
:1037F0007EE73046D8F80C200D49FFF767FC002320
:10380000C8F80C300BB0BDE8F08F0A4930460BB059
:10381000BDE8F04FFFF75ABC883C0100A44301000B
:10382000F8430100943C0100AC43010058430100FF
:10383000B83C0100C43C01005043010043690269E7
:103840009B1A0F2B10B5044606D9026943699A42A8
:1038500002D0036901330361636922699B1A0F2B4C
:103860000DD860694C2200F00F0002FB00401830B8
:103870000AF072F9BFF35F8F636901336361E36834
:103880000133E36010BD00BF70B5064600690B4B05
:10389000336010B103689B689847354655F8040FAC
:1038A000854205D0046807F0C3FCA5422046F9D143
:1038B0003046142107F04EF9304670BD0C4301002C
:1038C00070B50C4B0C4A0646806933602433736034
:1038D000B26010B103689B689847354655F80C0FE5
:1038E000A84205D0046807F0A3FCAC422046F9D1F9
:1038F000304670BD084401000C430100A0F10800EF
:10390000DEE700BF70B50E4B0E4A06468069336095
:1039100024337360B26010B103689B6898473546E2
:1039200055F80C0FA84205D0046807F081FCAC42A2
:103930002046F9D13046842107F00CF9304670BD9D
:10394000084401000C430100A0F10800DAE700BFC1
:1039500070B5114A0446002302F1080602F12C0555
:103960000C303832E161A260E06020612660656061
:103970006361A3612362636284F8283084F829308C
:10398000E36223636363194604F138004C220AF0B2
:10399000E1F9204670BD00BF00440100F8B5496858
:1039A000214DA942044617461E462FD01F4881428A
:1039B00022D01F4B994201D00020F8BD4FF49B60EC
:1039C00006F050FD00221B4B0360026147608660D9
:1039D000C260426100F1180300F59B611A609A60B1
:1039E0004C339942FAD1236920611BB11A681846F9
:1039F000936898470120F8BD2069002323610028BF
:103A0000F8D003689B6898470120F8BD102006F0A5
:103A100029FD236908494760002286600160C26071
:103A20002061002BE2D1E5E764C1EA54954E5FE9DD
:103A30009E770322344301001C43010008B54A6805
:103A4000074B9A4201D0002008BD8B68C26993429F
:103A5000F9D10C31034A0830FFF7A0FF08BD00BFC1
:103A6000609234C34443010070B506460069094BB7
:103A7000336010B103689B689847354655F8040FCA
:103A8000A84205D0046807F0D3FBAC422046F9D128
:103A9000304670BD4844010070B5344A4B689342CB
:103AA00082B0054639D023D9314A934217D0314AE2
:103AB00093421AD10B69002B4FD0C8686946FFF7B3
:103AC00045FB90B1009B2C4AA3F10A0191420CD80E
:103AD000C5F84031FCF75CFEC5F83C0102E0274820
:103AE000FEF736FA012002B070BD002002B070BDB2
:103AF000A2F1D462A2F5F4326F3A9342F5D10B6988
:103B00001F4A934202D01F4A9342EED195F84931A1
:103B100083F0010385F84931E4E790F84831002B40
:103B2000E0D1D0F82841019300F594760123B44206
:103B3000009307D0A068036869461B68984724680B
:103B4000A642F7D1D5F8340118B1036869461B685D
:103B50009847012385F84831C4E74FF47A73C0F8D9
:103B60004031FCF715FEC5F83C01BBE773843468AF
:103B7000F41C66725FD632E196860100CC92FF1F7C
:103B8000DF623DB9C6B7D1D290F8493103B9704769
:103B90000846FCF77BBD00BF70B5064600690B4BBD
:103BA000336010B103689B689847354655F8040F99
:103BB000854205D0046807F03BFBA5422046F9D1B9
:103BC0003046142106F0C6FF304670BD484401005F
:103BD00070B51A4B1A4A0546D0F834012B6003F130
:103BE000240134336960C5F81031C5F8242110B1BF
:103BF00003689B689847D5F8280105F59476B0428C
:103C000005D0046807F014FBB4422046F9D1D5F87A
:103C100020010C4BC5F8103110B103689B68984720
:103C2000D5F8140105F58A76864205D0046807F0B8
:103C3000FFFAA6422046F9D1284670BD94440100FF
:103C400048440100943A0100A0F58870C0E700BF25
:103C5000A0F59270BCE700BF70B51D4B1D4A05462C
:103C6000D0F834012B6003F1240134336960C5F8C6
:103C70001031C5F8242110B103689B689847D5F826
:103C8000280105F59476B04205D0046807F0D0FA13
:103C9000B4422046F9D1D5F820010F4BC5F81031B8
:103CA00010B103689B689847D5F8140105F58A762A
:103CB000864205D0046807F0BBFAA6422046F9D137
:103CC00028464FF4A67106F045FF284670BD00BF98
:103CD0009444010048440100943A0100A0F5887022
:103CE000BAE700BFA0F59270B6E700BF224AF8B568
:103CF00002F1240502F1340402F1440E4FF480571E
:103D00004560012600F58A750260C0F81041002266
:103D100000F59474C0F83811C0F824E1C0F844717B
:103D200080F84861C0F81451C0F81851C0F8284113
:103D3000C0F82C418260C0F81C21C0F82021C0F8D6
:103D40003021C0F83421C0F83C21C0F8402180F86F
:103D5000492101B1F8BD0446084B094A09480F2121
:103D6000FCF78CFC04F59270FFF77EFE04F588707A
:103D7000FDF7DAF906F094FB944401006C4401006D
:103D8000E0440100784401002DE9F0410546074672
:103D900055F8044FA5420E4607D0A0680368314687
:103DA0001B6898472468A542F7D1386928B1036891
:103DB00031461B68BDE8F0411847BDE8F08100BFFF
:103DC0002DE9F041D0F8403198B00D46002B43D09A
:103DD00040F6B832D0F83C1102FB03F211446B1AE2
:103DE000002B044638DBAB1A5B1A002000E0394692
:103DF0001E46002E00F10100A3EB020302EB0107B7
:103E0000F5DAC4F83C1138B3002319468DF80C30AC
:103E1000502204F5887304A82B4F0293D4F84481F0
:103E2000019709F097FFD4F83861284A3368CDF834
:103E30005880DB680495934232D156F8044FB4425F
:103E40000AD0A068036801A9DB6898472468A642E5
:103E5000F7D1059B01972BB92846FCF7CFFC18B08A
:103E6000BDE8F081029F3E46012356F8044F8DF8CD
:103E70005C30B44207D0A068036804A91B68984767
:103E80002468A642F7D138690028E5D0036804A960
:103E90001B6898472846FCF7B1FC18B0BDE8F081D4
:103EA000304601A99847059B0197002BD4D0D9E74C
:103EB000059B019733B1012304A902988DF85C306A
:103EC000FFF762FF06F0ECFA543F0100151C0000FA
:103ED0002DE9F04790F8483198B0054689461746D5
:103EE000FBB1D0F82841D0F84431029300F5947822
:103EF00000234445019318BF01AE07D0A0680368B2
:103F000031461B6898472468A045F7D1D5F834019D
:103F100018B1036801A91B689847002685F8486115
:103F200004E0D0F84061B6FA86F6760900234846E8
:103F3000C5F84031FFF764F943688146002B45D14D
:103F40004FF0010995F84831002B3CD1D5F840419C
:103F5000002C38D1D5F844A1DFF818818DF80C4039
:103F600005F5887304A850222146CDF804800293F9
:103F700009F0F0FECDF858A005940497B9F1000FB0
:103F800053D0002E3BD101AE30463649FFF79EF8A4
:103F9000059BCDF80480B3B1029E3546012355F848
:103FA000044F8DF85C30AC4207D0A068036804A9C8
:103FB0001B6898472468A542F7D1306918B1036897
:103FC00004A91B68984718B0BDE8F087D5F83801F8
:103FD000254A03689B6893422DD1804658F8044FC8
:103FE000444509D0A068036849469B689847002863
:103FF000A6D12468A045F5D14FF00009A2E7D5F875
:1040000038511A4A2B68DB68934218D155F8044F8F
:10401000AC4218BF01AEB6D0A06803683146DB6879
:1040200098472468A542F7D1AEE701AE3046104963
:10403000FFF74CF8A8E749469847814682E701AE6A
:104040002846314698479FE7059BCDF8048033B159
:10405000012304A902988DF85C30FFF795FE06F065
:104060001FFA00BF64440100E91B0000151C00009A
:1040700050440100543F0100A0F10400FFF728BFA5
:10408000406910B10368DB6818477047704700BF8C
:10409000704700BFC3680133C360704710B54FF469
:1040A000A361044606F056FD204610BD10B5102150
:1040B000044606F04FFD204610BD00BF30B58368B2
:1040C000426883B05D1E0446C0680190E81C8CBF46
:1040D00000250125013318BF012308460095034937
:1040E000FEF7F4FF0023E36003B030BD743C010031
:1040F0002DE9F04F836842688046581EC41C83B087
:104100008CBF002001200E46013318BF0123009010
:104110002F493046FEF7DAFFD8F81020D8F81430CF
:104120009A424ED0DFF8BC902A4F08F1100AD8F816
:10413000104004F00F0404EB84050AEB0515083564
:1041400040F6B83128460134FFF774F904EB8404D3
:1041500008EB041302461B6949463046FEF7B6FFDA
:104160006B6863B105F1070B00241BF8012F39467A
:104170003046FEF7ABFF6A680134A242F5D8D8F8A2
:104180001020D8F814309A4204D0D8F810300133F7
:10419000C8F81030D8F81020D8F814309A4204D05B
:1041A0000D493046FEF792FFC1E73046D8F80C20A3
:1041B0000A49FEF78BFF0023C8F80C3003B0BDE8B6
:1041C000F08F0749304603B0BDE8F04FFEF77EBFE1
:1041D000883C0100F0460100943C0100B83C01001D
:1041E000C43C0100D8460100436902699B1A0F2BA9
:1041F00010B5044606D9026943699A4202D00369A0
:1042000001330361636922699B1A0F2B0FD8606920
:1042100000F00F0000EB800004EB00104D2218307E
:1042200009F09AFCBFF35F8F636901336361E36850
:104230000133E36010BD00BF70B50B4A0B4B06465F
:10424000406986E80C0010B103689B6898473546C2
:1042500055F8080FA84205D0046806F0E9FFAC4203
:104260002046F9D1304670BD10470100943A010054
:10427000A0F10400E0E700BF70B50C4A0C4B0D49FB
:1042800006464069716386E80C0010B103689B68BC
:104290009847354655F8080FA84205D0046806F03F
:1042A000C7FFAC422046F9D1304670BD104701002F
:1042B000943A010038450100A0F10400DCE700BF9A
:1042C00070B50C4A0C4B0D4906464069716386E88F
:1042D0000C0010B103689B689847354655F8080FE5
:1042E000A84205D0046806F0A3FFAC422046F9D1ED
:1042F000304670BD10470100943A0100B4470100F8
:10430000A0F10400DCE700BF70B50D4A0D4B064676
:10431000406986E80C0010B103689B6898473546F1
:1043200055F8080FA84205D0046806F081FFAC429A
:104330002046F9D13046342106F00CFC304670BDE1
:1043400010470100943A0100A0F10400DCE700BF2F
:1043500070B50E4A0E4B0F4906464069716386E8F8
:104360000C0010B103689B689847354655F8080F54
:10437000A84205D0046806F05BFFAC422046F9D1A4
:104380003046382106F0E6FB304670BD104701008C
:10439000943A010038450100A0F10400D8E700BFBD
:1043A00070B50E4A0E4B0F4906464069716386E8A8
:1043B0000C0010B103689B689847354655F8080F04
:1043C000A84205D0046806F033FFAC422046F9D17C
:1043D0003046382106F0BEFB304670BD1047010064
:1043E000943A0100B4470100A0F10400D8E700BFEF
:1043F000F0B51646044681610FCE0C4F07F1080C4C
:104400002837676004F1080E002704F11C05C4F882
:1044100000C0C4F808E0C4F80CE0276167610FC56C
:1044200096E8030085E803002046F0BD0847010038
:104430002DE9F843566814468046894696B1012E08
:104440000CD1542006F00EF822464946054601F0EC
:10445000CBFAC8F800504046BDE8F883314615480D
:10446000FEF7CAFF382005F0FDFF05460FCC2E6190
:104470006E6105F11C0705F10806C5F81890AE60DD
:10448000EE600FC794E803000B4BC8F8005003F12F
:10449000240403F1340287E8030085E818006A6306
:1044A0004046BDE8F8832846542106F053FB05F04A
:1044B000F7FF00BF8C460100404701002DE9F8439B
:1044C000904606460A4640461C491D4CDFF884903B
:1044D000FEF7FCFD96E8280004F1300745EA0345A5
:1044E000A3689D420DD00C34BC42F9D13368022B35
:1044F00012D0F268404652B11249BDE8F843FEF7C7
:10450000E5BD226849464046FEF7E0FDEBE70E496F
:10451000BDE8F843FEF7DABDB2680C494046FEF745
:10452000D5FD3369012BE4D1706907F05BF90246D0
:104530000B4640460649FEF7C9FDDAE73C46010056
:104540006887FF1F74460100644601004C46010065
:104550005846010048460100F0B53949556883B016
:10456000064601F1300400274868A8421CD00C31EF
:104570008C42F9D1002F4AD0316802291BD0116931
:1045800002F10C002F4A914234D102692E498A422D
:1045900038D02E498A4242D018462D49FEF796FD62
:1045A0000027384603B0F0BD8868070C80B237603A
:1045B00070600127DBE727491069884231D15169D2
:1045C000B160D169244C0020A142306102F1180091
:1045D000D8D101213161506A019306F11401009292
:1045E000FEF7CAFD9DE80C00044610B3516B02F1C2
:1045F0003000C7E718461949FEF768FD002738461E
:1046000003B0F0BD4369F360384603B0F0BDD26833
:1046100013491846FEF75AFD384603B0F0BD002393
:10462000F1E718460F49FEF751FD0027384603B061
:10463000F0BD18460C492746FEF748FDDFE700BFEE
:104640006887FF1F5DCA621C0ABB10D76EE9D5429E
:10465000F44501009BE8C74A131B20A0DC4501007C
:104660006C45010088450100B04501002DE9F04F7F
:10467000A3B08B460790044640F6B8315846FEF783
:10468000D9FEDBF810300590002B43D023460433CD
:1046900006930BF11403049300230393002319469C
:1046A0006A4C8DF83430079B0B945022069C0C9476
:1046B0000EA89C69DBF8005009F04CFBDBF80430D5
:1046C0000093039A059B62490E950BA82094FEF770
:1046D000FDFC049D00245F490BA8FEF7F7FCDBF806
:1046E0000430C82B19D00134042C05F10405F2D193
:1046F00059490BA8FEF7EAFC0F9B544A0B92FBB9F1
:10470000039A0499DBF81030013220319A42039267
:104710000491C3D323B0BDE8F08FDBF80830DBF899
:104720000C102A695B1A23449A42DCD1286807F0EE
:1047300059F802460B460BA84849FEF7C7FCD2E7DA
:104740000C9B08931A46012352F804AF8DF884306D
:10475000924542D0CDF824B04FF000089346DAF8E5
:1047600008503F4A2B681B68934254D10F9A72B38A
:104770000DF13F07002605F108090CE06B68FE2BE0
:1047800004D8EA1801336B6014720F9A85F8084157
:104790000136B2421BD917F8014FA4F120035E2B5A
:1047A000ECD90D2C26D00A2C20D0082C01D07F2C3F
:1047B000ECD16B68002BE9D0013BB3F5807F3FD88B
:1047C0006B600F9A85F808410136B242E3D8DAF8F7
:1047D00000A0D345C3D1DDF824B0089B1869002898
:1047E0008ED003680EA91B68984789E795F80831B1
:1047F0000D2BCBD06B68FF2B98BF5B19494698BF38
:1048000083F808802B68C5F804800E9A5B682846F8
:1048100098470F9ABAE728460EA99847DAF800A0F9
:10482000D3459CD1D7E70F9B084A0B9233B10123A4
:104830000EA90C988DF88430FFF7A6FA05F030FE2B
:10484000084B094A09481721FBF718FF543F01009C
:10485000F846010004470100B43D0100D0460100C4
:10486000351C000084410100B8470100904101005F
:10487000A0F13400FFF7FABE2DE9F04FA1B00C46CD
:1048800006460023021D19460A920CA8734DB7690B
:104890008DF82C3050222668099509F05BFA2046E5
:1048A00040F6B8310C961E976668FEF7C3FDA36804
:1048B0000093324603466A4909A8FEF707FCA3683D
:1048C000B3F5487F21DBE06806F08CFF0646A0695F
:1048D0000F4606F087FFCDE90401606906F082FF0C
:1048E000CDE90201206906F07DFF3246CDE90001E5
:1048F0003B465C4909A8FEF7E9FBE6694FF07E51AB
:10490000304607F085FD00287AD009A85649FEF701
:10491000DDFB0D9B099513B921B0BDE8F08F0A9B13
:1049200007939B4601235BF804AF8DF87C30DA4592
:1049300018BF4FF000083BD0DAF808504B4A2B68FC
:104940001B68934254D10D9A72B30DF137070026BC
:1049500005F108090CE06B68FE2B04D8EA18013356
:104960006B6014720D9A85F808410136B2421BD96A
:1049700017F8014FA4F120035E2BECD90D2C26D0A3
:104980000A2C20D0082C01D07F2CECD16B68002B96
:10499000E9D0013BB3F5807F59D86B600D9A85F85B
:1049A00008410136B242E3D8DAF800A0D345C3D1BA
:1049B000079B18690028AFD003680CA91B689847AB
:1049C00021B0BDE8F08F95F808310D2BCBD06B6886
:1049D000FF2B98BF5B19494698BF83F808802B6866
:1049E000C5F804800C9A5B68284698470D9ABAE788
:1049F00028460CA99847DAF800A0D3459CD1D7E700
:104A0000304606F0EFFE0646A06A0F4606F0EAFEC4
:104A1000CDE90401606A06F0E5FECDE90201206AF5
:104A200006F0E0FE3246CDE900013B460D4909A8FB
:104A3000FEF74CFB69E70D9B099533B101230CA9E7
:104A40000A988DF87C30FFF79FF905F029FD084B97
:104A5000084A09481721FBF711FE00BF543F010027
:104A6000B4460100C0460100B43D0100351C000001
:104A700084410100B847010090410100A0F13400D9
:104A8000FFF7FABEF8B54968214DA942044617461A
:104A90001E462FD01F48814222D01F4B994201D081
:104AA0000020F8BD4FF4A36005F0DCFC00221B4B96
:104AB0000360026147608660C260426100F11803D2
:104AC00000F5A3611A605A6050339942FAD1236904
:104AD00020611BB11A681846936898470120F8BDF9
:104AE0002069002323610028F8D003689B68984759
:104AF0000120F8BD102005F0B5FC23690849476086
:104B0000002286600160C2602061002BE2D1E5E7EF
:104B100064C1EA54954E5FE99E7703225C4501002B
:104B20004445010008B54A68074B9A4201D000206D
:104B300008BD8B6882699342F9D10C31034A043075
:104B4000FFF7A0FF08BD00BF0B1377D4804601001C
:104B5000806910B10368DB6818477047806910B13D
:104B60000368DB6818477047704700BF704700BF95
:104B7000C3680133C360704710B54FF43671044603
:104B800005F0E8FF204610BD10B51021044605F0E1
:104B9000E1FF204610BD00BF30B58368426883B096
:104BA0005D1E0446C0680190E81C8CBF00250125ED
:104BB000013318BF0123084600950349FEF786FA22
:104BC0000023E36003B030BD743C01002DE9F04FD9
:104BD000836842680746581EC41C89B08CBF0020F9
:104BE00001208A46013318BF012300903F495046F7
:104BF000FEF76CFA3A697B699A4270D007F1100BA4
:104C00003D692C2605F00F0506FB05F404F10800AC
:104C100040F6B8313C445844FEF70CFC216A344B52
:104C2000814683FB0138206BC917C1EB681806F079
:104C3000D9FDCDE90601E06A06F0D4FDCDE9040115
:104C4000A06A06F0CFFDCDE90201606A06F0CAFD58
:104C50004346CDE900014A4626495046FEF736FA5A
:104C6000D4F834804FF07E51404607F0D1FBE0B9D4
:104C7000404606F0B7FD05FB06653D448046686981
:104C8000894606F0AFFDCDE90401E06B06F0AAFD10
:104C9000CDE90201A06B06F0A5FD4246CDE9000179
:104CA0004B4615495046FEF711FA3A697B699A421C
:104CB00002D03B6901333B613A697B690F499A42F3
:104CC000504602D0FEF702FA9AE75046FA680C49BD
:104CD000FEF7FCF90023FB6009B0BDE8F08F09493D
:104CE000504609B0BDE8F04FFEF7F0B9883C01002E
:104CF0001F85EB51B84A0100E84A0100943C0100CD
:104D0000B83C0100C43C010070B506460069094B7F
:104D1000336010B103689B689847354655F8040F17
:104D2000A84205D0046806F083FAAC422046F9D1C7
:104D3000304670BD40480100036FB3F5487FACBFFB
:104D400003200220FBF74CBD436902699B1A0F2B1D
:104D5000F0B4044606D9026943699A4202D0036955
:104D600001330361636922699B1A0F2B14D80E4625
:104D700065690FCE2C2705F00F0507FB0545183593
:104D80000FC50FCE0FC596E8070085E80700BFF3F3
:104D90005F8F636901336361E3680133E360F0BCF3
:104DA000704700BFF0B50D460F4606460FCD93B0D5
:104DB00007AC0FC40FCD0FC495E80700032384E8A8
:104DC000070007F10C0C06F11C0E012401A90AAD25
:104DD00003AA05A8CDF808C0CDF818E0ADF8043056
:104DE000ADF80C30ADF81430ADF81630ADF8064023
:104DF000ADF80E40049504F0FFFFF8694FF07E51C6
:104E000007F006FBA0B1354655F80C4FAC4207D071
:104E1000A068036807A91B6898472468A542F7D1D2
:104E2000B06918B1036807A91B68984713B0F0BDB3
:104E3000024B034A0348CD21FBF720FC1C4B010029
:104E4000B44C0100304B0100A0F10400FFF7AABFF1
:104E500070B5064600690B4B336010B103689B6860
:104E60009847354655F8040F854205D0046806F08A
:104E7000DFF9A5422046F9D13046142105F06AFE3B
:104E8000304670BD4048010070B50C4B0C4A0646D8
:104E90008069336020337360B26010B103689B682F
:104EA0009847354655F80C0FA84205D0046806F01F
:104EB000BFF9AC422046F9D1304670BD50480100E0
:104EC00040480100A0F10800DEE700BF70B50C4BC0
:104ED0000C4A06468069336024337360B26010B1B7
:104EE00003689B689847354655F80C0FA84205D0D3
:104EF000046806F09DF9AC422046F9D1304670BDF9
:104F00008C4B010040480100A0F10800DEE700BF23
:104F100070B50E4B0E4A06468069336024337360C9
:104F2000B26010B103689B689847354655F80C0F7E
:104F3000A84205D0046806F07BF9AC422046F9D1BE
:104F40003046402105F006FE304670BD8C4B010016
:104F500040480100A0F10800DAE700BF70B50E4B31
:104F60000E4A06468069336020337360B26010B128
:104F700003689B689847354655F80C0FA84205D042
:104F8000046806F055F9AC422046F9D13046942128
:104F900005F0E0FD304670BD50480100404801007A
:104FA000A0F10800DAE700BF2DE9F0411D4D0446ED
:104FB0000E46904604F10C0100221F4605F1200028
:104FC00005F12C036060E16021616261A261E6612C
:104FD00027622560A360414604F12400442208F0C2
:104FE000BBFD072E08D8D8F80030A3B13B68022BD0
:104FF0000ED12046BDE8F0810B4B0C4A0C48152120
:10500000FBF73CFB04F10800FFF77EFE05F048FAD1
:105010000848FEF7F1F9084B044A05481621FBF74A
:105020002DFB00BF50480100B4480100C44B0100F3
:10503000304B0100E8480100CC48010070B504463F
:105040000E461546FFF7B0FF0021E666A166286808
:10505000174A2260002302F124064FF07E553032B9
:1050600001286660A260C4F8845021676367A36763
:10507000E367C4F88030C4F88830C4F88C30C4F8D2
:10508000903001D1204670BD0A4B0B4A0B482021BD
:10509000FBF7F4FA0A4B2360204603F120022C337D
:1050A000626040F8083FFFF72FFE05F0F9F900BFF6
:1050B0004C4B0100604A0100384C0100304B0100AC
:1050C0005048010010B582B0032101AA04F04AFE45
:1050D000019C0021204607F0B9F920B1204606F0D6
:1050E00077F902B010BD002002B010BD2DE9F047E5
:1050F00006468CB00846914698460D4604F082FF5D
:105100000446284604F02EFF00F10047484604F00C
:1051100079FF0546484604F025FF29468146384672
:1051200006F0E2FF00218246484606F0DDFF014618
:10513000504606F0CFFE49460690204606F0D4FFC2
:1051400000218146384606F0CFFF0146484606F06A
:10515000C1FE29460790204606F0C6FF0146002002
:1051600006F0B8FE06AD08902846FFF7ABFF0146F3
:105170004FF07E5007F06CF82A460146032328467C
:1051800004F0E8FF0324012304AA02A96846ADF84D
:105190000040ADF80240ADF80840ADF81040ADF861
:1051A0000A30ADF81230CDF814800196039504F062
:1051B00023FE234606F124000024149A0A9409A928
:1051C00009940B9405F06EF80CB0BDE8F08700BFB1
:1051D0002DE9F04F95B00F461E46114600240323DB
:1051E000924608AA0190099408940A9404F04EFF8C
:1051F0003946384603AB032204F0FAFF31463846FD
:1052000004AB032204F0F4FF3146304605AB032221
:1052100004F0EEFF08A9384606AB032204F0E8FFCD
:1052200007AB032208A9304604F0E2FFDDF814B012
:105230000399DDF81080584606F056FF41460546B2
:10524000404606F051FF0146284606F043FE33492A
:10525000814620F0004007F0E5F800285AD10546C5
:105260000799404606F040FF06990446584606F066
:105270003BFF0146204606F02DFE494606F0E8FFBA
:105280000BAA0146032338460B950C950D9504F0A7
:1052900061FF0BAA10460323019905F003F8079953
:1052A000039806F021FF06990446049806F01CFFB7
:1052B0000146204606F00EFE494606F0C9FF0EAA3A
:1052C0000146032330460E950F95109504F042FFDA
:1052D0000EAA10465146032304F0E4FF0EA90BA8C2
:1052E00011AA032311951295139504F0DBFF11A861
:1052F00003231E9A4FF07C5104F02CFF03230EA9C8
:105300000BA811AA04F0C2FE11A8FFF7DBFE1F9B39
:1053100001241860204615B0BDE8F08FACC52737D2
:105320002DE9F04191E80C00C72B8EB0064682664D
:10533000036744DD856A8F686D0105F1240205F17C
:1053400034040A440C44002052F8043BFB1A9842EF
:1053500038BF1846A242F7D10B2848D80D4403287D
:10536000306AAA6969698CBF4FF448734FF47A7345
:1053700008AF3367043002AB0097FFF7B7FE306A1F
:105380002A6AE9690DF12C08343005ABCDF80080AC
:1053900006F1800506F17404FFF7A8FE05AB42464E
:1053A00002A938468DE83000FFF712FF54F8481C78
:1053B000206806F08FFD44F8040BA542F6D135466F
:1053C00006F1680755F80C4FAC4207D0A068036897
:1053D00039461B6898472468A542F7D1B06918B1CF
:1053E000036839461B6898470EB0BDE8F0814FF45A
:1053F000FA733367E3E700BFA0F10400FFF790BF43
:10540000124BF0B4002203F1240603F1300500F141
:105410000C0480E84800426182618560C4600461D8
:1054200000F11C0301F120020E684D688C68CF6802
:10543000DF60103191421E605D609C6003F11003DB
:10544000F2D10A681A60F0BC704700BF8C4B0100B3
:1054500030B50B468BB005461749186806F0F8FEC4
:10546000164906F041FE24220021044601A808F056
:1054700071FC134B0893204604F0C4FD00F1004377
:105480002046019304F06EFD0390204604F06AFD6F
:1054900000F100432046049304F0B4FD00F1004302
:1054A0004020069304F0DEFF01A90446FFF7A8FFA1
:1054B00028462C600BB030BD0000B443DB0F4940E0
:1054C000000080BF10B5044649B1012904D111463E
:1054D000FFF7BEFF204610BD0248FDF78DFF21609B
:1054E000204610BD004B01002DE9F041154606464F
:1054F0000A4628461649DFF86080FDF7E7FD06F109
:10550000240406F1300754F8040B06F06BF9024648
:105510000B4628464146FDF7D9FDBC42F3D10D4963
:105520000D4F2846FDF7D2FD341F203654F8040FE6
:1055300006F058F902460B4628463946FDF7C6FDE7
:10554000B442F3D128460549BDE8F041FDF7BEBDA0
:105550009C4A0100B04A0100AC4A0100B43D010080
:105560002DE9F04114461A4A6168914208BF0C3493
:1055700005461F4600F1240604F124083146206840
:10558000FDF7FAFD043604F10C03D0B1434501D018
:105590001C46F3E7D8F804100E4A914208BF04F104
:1055A000180303F10C0403F17806294654F80C0C97
:1055B000FDF7E2FD0C34043518B1B442F5D1BDE875
:1055C000F08138460449FDF781FD0020BDE8F081F7
:1055D0008D66753B917BBDAC7C4A01002DE9F043A3
:1055E000174680460A4687B038461649FDF76EFDD5
:1055F000D8F80030FBB1DFF854904446002520690C
:10560000666806F0EFF8CDE90401E06806F0EAF814
:10561000CDE90201A06806F0E5F83246CDE90001C7
:1056200049463846FDF752FDD8F8003001359D4215
:1056300004F11004E3D30449384607B0BDE8F04351
:10564000FDF744BD284A0100B43D0100344A010081
:105650002DE9F04F144600220260656885B08B4644
:105660009A46002D58D0364B9D422CD10746A9466C
:10567000E8462369A268009204F10C020BB93B686A
:1056800093B304F1300601AD1446294654F80C0BCF
:10569000FDF772FD04358646D8B1A642F5D1D7F89C
:1056A00000C0BCF1030F30D898E80F0007EB0C15D1
:1056B00004350CF1010CC7F800C085E80F007568CF
:1056C0008DB34D45D5D05A4650461E49FDF7FEFCD8
:1056D00004E05A4650461C49FDF7F8FC4FF0000E16
:1056E000704605B0BDE8F08F002303930293019349
:1056F00004AB13E90F00012447F8044BA64687E8E2
:105700000F00704605B0BDE8F08F5A46504604239E
:105710000E49FDF7DBFCE1E70A4618460C49FDF7A8
:10572000D5FCAE46DCE7BCF1010FD9D050460949A3
:10573000FDF7CCFCAE46704605B0BDE8F08F00BF6B
:105740007AF179896049010094490100C04901005A
:1057500024490100F4490100F8B54968214DA942E6
:10576000044617461E462ED01F48814221D01F4BAB
:10577000994201D00020F8BD4FF4367004F072FE5B
:1057800000221B4B0360026147608660C260426179
:1057900000F1180300F5367143F82C2B9942FBD128
:1057A000236920611BB11A68184693689847012045
:1057B000F8BD2069002323610028F8D003689B68A6
:1057C00098470120F8BD102004F04CFE23690949D8
:1057D0004760002286600160C2602061002BE2D138
:1057E000E5E700BF64C1EA54954E5FE99E77032266
:1057F000A44801008C48010008B54A68074B9A424A
:1058000001D0002008BD8B68C2699342F9D10C31E8
:10581000034A0830FFF7A0FF08BD00BFDCA996AF20
:10582000504A010008B54A68064B9A4201D0002050
:1058300008BD0C314FF0FF33034A0830FFF78CFFEF
:1058400008BD00BF538F1F38504A010038B50446C9
:105850000D46FEF715FC94F84C301BB1226D12B9C1
:105860000023236538BD28460149FDF72FFCF7E7E3
:10587000FC4C010038B505460C46FFF753F918B942
:105880000A4B62689A4200D038BD2369084A9342A5
:1058900003D0084A934204D038BD012085F84C005B
:1058A00038BD85F84C000120EEE700BF7CE9A295E9
:1058B0009E770322954E5FE92DE9F843C26B0E688F
:1058C000204BCF68B61A9E4204460D4622DC016C7E
:1058D000384606F0FFFA1C4920F0004006F0A2FD11
:1058E000D5F8108050B3616C404606F0F3FA1649C3
:1058F00020F0004006F096FDD5F8149078B1A16C28
:10590000484606F0E7FA104920F0004006F08AFD0C
:1059100020B904E0D1F81080D1F8149001200B4B8D
:105920009E4202DD236D013323652B68E363276408
:10593000C4F84480C4F84890BDE8F883D5F81490C2
:10594000EDE700BF60E31600CDCC4C3DF04902000E
:1059500070B50C4A0C4B0D4906464069716386E8E8
:105960000C0010B103689B689847354655F8080F3E
:10597000A84205D0046805F05BFCAC422046F9D192
:10598000304670BD10470100943A010038450100CF
:10599000A0F10400DCE700BF70B50E4A0E4B0F49C2
:1059A00006464069716386E80C0010B103689B6885
:1059B0009847354655F8080FA84205D0046805F009
:1059C00037FCAC422046F9D13046542105F0C2F8EC
:1059D000304670BD10470100943A0100384501007F
:1059E000A0F10400D8E700BF38B50446FEF700FD7B
:1059F0000A4B0022002103F1080503F12C003C337F
:105A00006060216425606363A263E26384F84C20D4
:105A100022656164A164204638BD00BF184D0100B5
:105A20002DE9F04FA3B006469DF8B4409DF8B8703C
:105A30000392012C1D460EDD1346234413F8013C4E
:105A40004BB9039A03E0131913F8013C1BB9013C4D
:105A5000E4B2012CF7D8B36BB34A8DF8271092F853
:105A600001E092F800C08DF824300A0A03F1010821
:105A7000FD200023090C8DF826E08DF820008DF81C
:105A800022308DF823308DF828208DF82140C6F87B
:105A900038808DF825C08DF829100DF121000DF109
:105AA000290E23464FF6FF7201E010F8013F5340E4
:105AB00083EA0313DBB2D90081EA032181EA1222CF
:105AC000704582EA1312F0D1A3B203F1FF3E1FFA30
:105AD0008EFE93B103998E44481E10F8013F534047
