:100000000000022099010000592C0000112C000072
:10001000112C0000112C0000112C0000112C0000EC
:10002000112C0000112C0000112C0000592C000094
:10003000592C0000112C0000553F000059400000D1
:10004000592C0000592C0000592C0000592C00009C
:10005000592C0000592C0000592C0000592C00008C
:10006000592C0000592C0000592C0000592C00007C
:10007000592C0000592C0000592C0000592C00006C
:10008000592C0000592C0000592C0000592C00005C
:10009000592C0000592C0000592C0000592C00004C
:1000A000B92A0000C52A0000592C0000592C000074
:1000B000592C0000592C0000592C00005543000019
:1000C000592C000081440000592C0000AD4500006F
:1000D000592C0000A5460000592C0000592C0000A6
:1000E000592C0000592C0000E90F0000592C000089
:1000F000592C0000592C0000592C0000592C0000EC
:10010000592C0000592C0000592C0000592C0000DB
:10011000592C000011320000592C0000592C00000D
:10012000592C0000592C0000592C0000592C0000BB
:10013000592C0000592C0000592C0000592C0000AB
:10014000592C0000592C00009D470000592C00003C
:1001500095480000592C0000592C0000592C000033
:10016000592C0000592C0000D12A0000592C000005
:10017000592C0000592C0000592C0000592C00006B
:10018000592C0000592C0000592C0000592C00005B
:10019000592C0000592C0000584B4CF2205210B53D
:1001A0001A804DF628121A8000BF00BF02F058FDD9
:1001B000534B4FF030621A60524A9A60524ADA60EA
:1001C000524B4FF470021A60514A136813F4807353
:1001D00004D150490B604FF4A85313604E4B1A786A
:1001E000110703D51A7842F008021A704B4B4C499C
:1001F0002A221A704B4A4C4B8B4204D252F8040FFD
:1002000043F8040BF8E7494B494900228B4202D2DC
:1002100043F8042BFAE74749474A002352F82300E2
:1002200041F823000133662BF8D1444B444A802126
:1002300003F8011B9342FBD1424B3E4A1A60424BEA
:100240008A221A70A3F5805324225A70A0221A70B1
:100250009A799207FCD59A79D406FCD43B4A9379D3
:1002600003F00C03082B394BF9D103221A714622F3
:100270005A719A799006FCD5344A9179334B4906E4
:10028000FBD5334A4FF08271116009215160202261
:100290001A709A7902F00C020C2AFAD12D4B2E4AD0
:1002A0001A602E4B2E4A1A6000225A60072243F829
:1002B000042C2C4AC3F80C2D62B602F05DFE154BDF
:1002C0001B68DA0705D5284802F0C8FD274B284AE5
:1002D0001A60284B1B785B0609D5244C244B2268F6
:1002E0009A4204D1204802F0B9FD0023236004F0B3
:1002F00057FC02F0BBFC03F0B7FEFEE70E20054002
:1003000030800440823F04000100002B88ED00E0B3
:1003100010D0034014D0034002D0074000E0074053
:100320004C16FF1F20670000F806FF1F4C16FF1F2A
:10033000E825FF1F0002FF1F0000000000E400E0AE
:1003400056E400E008ED00E00050064000400640A2
:100350004480044004800440C010050014E000E024
:10036000BFD401000000202048808E041CE0034020
:10037000A5C3945A00F00740FFFFFFFFFFFFFFFFF8
:10038000FFFFFFFFFFFFFFFFFFFFFFFFFFFFFFFF7D
:10039000FFFFFFFFFFFFFFFFFFFFFFFFFFFFFFFF6D
:1003A000FFFFFFFFFFFFFFFFFFFFFFFFFFFFFFFF5D
:1003B000FFFFFFFFFFFFFFFFFFFFFFFFFFFFFFFF4D
:1003C000FFFFFFFFFFFFFFFFFFFFFFFFFFFFFFFF3D
:1003D000FFFFFFFFFFFFFFFFFFFFFFFFFFFFFFFF2D
:1003E000FFFFFFFFFFFFFFFFFFFFFFFFFFFFFFFF1D
:1003F000FFFFFFFFFFFFFFFFFFFFFFFFFFFFFFFF0D
:10040000FFFFFFFFFFFFFFFFFFFFFFFFDEF9FFFF23
:1004100010B5054C237833B9044B13B10448AFF33E
:1004200000800123237010BD4C16FF1F0000000048
:1004300024670000084B10B51BB108490848AFF30A
:1004400000800848036803B910BD074B002BFBD0A0
:10045000BDE81040184700BF000000005016FF1F05
:10046000246700004C16FF1F00000000014B012212
:100470001A7070472217FF1F2DE9F04FABB083466B
:1004800001F022F91E2002F029FD5846002101F05A
:1004900021F901231A465846102101F0F5F9584672
:1004A000062101F0FFF900231A461946584601F0CB
:1004B000EBF9584601F04CF98046584601F06CF9CA
:1004C0000746584601F08CF97F220021064658461F
:1004D00001F0C4F85846002101F0E4F86822002138
:1004E000584601F0BBF8584601F0E8F80024142003
:1004F000012502F0F3FC58468DE83000234640F217
:100500008972CA4901F0E8FA18B928462BB0BDE84B
:10051000F08FC022C649584601F068FB18B9022086
:100520002BB0BDE8F08F0321584601F0D9F8122115
:10053000584601F09DF80421584601F04DF829462F
:10054000584601F04FF80321584601F057F80321AF
:10055000584601F05FF80321584601F04BFB214655
:10056000584601F04DFB2146584601F0EBF8414654
:10057000584601F003F93946584601F023F9FF27A0
:100580003146584601F042F9B8462346294690269E
:100590004FF002094FF0B20ADFF898E20AE00733A1
:1005A0009BB25146CA46C146B8462F4635461EF84C
:1005B000036023465C1CDAB22AA8A4B210445FFA96
:1005C00084FC0132BCF1030F00F8901CD2B2E6D9D2
:1005D0009DF81A10881C9042E1DA9DF819209DF8C8
:1005E000183000924FF0010E00200A4602900DF1E3
:1005F0001B01CDF804E0584601F0B2F98D49002303
:100600002AAA1A440133DBB2601C032B02F890AC17
:1006100080B209D8A21D92B2CA460446C146B84665
:100620002F4635468E5CEBE79DF81A2002F1020E4C
:100630009E45EFDA9DF819109DF8183005900124B9
:100640004FF0000A0091CDF808A00DF11B010194B4
:10065000584601F085F9584601F02AF8584601F04D
:100660004BF80AA9C2B2584601F05AF8022158467E
:1006700000F0DCFF9C21584600F0E4FF5021584672
:1006800000F0DAFF5146584600F0E2FF584601F00C
:100690000FF82146584600F0FFFF2146584601F06A
:1006A000E7F8584601F0EAF86249059B2AAA524445
:1006B0000AF1010A5FFA8AFA5C1CBAF1030F02F828
:1006C000909CA4B208D805339BB2C146B8462F46C9
:1006D0003546CE5C2346E9E79DF81A20901C50452C
:1006E000F1DA9DF8191000914FF0000901219DF8F1
:1006F00018300191CDF808900DF11B01584601F01A
:100700002FF94C494B462AAA1A440133DBB204F1B3
:100710000109032B02F8908C1FFA89F907D8221DD2
:1007200092B2B8464C462F4635468E5CEBE79DF8B4
:100730001A20901C9842F2DA9DF8191000910024BA
:1007400001219DF81830019102940DF11B015846CA
:1007500001F006F9374923462AAA1A440133DBB2CD
:1007600009F10104032B02F8907CA4B207D809F127
:10077000030292B22F46A14635468E5CECE79DF807
:100780001A20901C9842F2DA9DF81910009100206E
:100790000121029001919DF818300DF11B0158467E
:1007A00001F0DEF8584600F0A7FF0228FAD9C2B2DD
:1007B0000AA9584600F0B4FF1E4900232AAA1A4489
:1007C0000133DBB2671C032B02F8905CBFB205D883
:1007D000A21C92B235463C468E5CEFE79DF81A208B
:1007E000901C9842F4DA9DF8191000919DF8183089
:1007F0000DF11B01584601F05BF8584600F07CFFF4
:100800000228FAD9C2B20AA9584600F089FF09495C
:1008100000232AAA1A440133DBB20137032BBFB2EB
:1008200002F8906C08D8CE5DF3E700BF105B0000C3
:10083000205A0000E05A00009DF81A20901C9842AF
:10084000F1DA9DF819109DF818300091002401206C
:100850000DF11B0101900294584601F081F82146E8
:10086000584601F005F82A23ABF80430584600F04A
:100870001FFF584600F002FF204647E6AAB1107855
:10088000537843EA00230B801079537943EA00231D
:100890004B80107A537A43EA00238B80107B537B82
:1008A00043EA0023CB80002070470268E7E700BFDF
:1008B00010B582B00C466946FFF7E0FF48BBBDF9B2
:1008C0000030DFED155A06EE103ABDF9023006EEA3
:1008D000903ABDF9043007EE103ABDF9063007EE44
:1008E000903AB8EEC66AF8EEE66AB8EEC77AF8EE65
:1008F000E77A26EE256A66EEA56A27EE257A67EE88
:10090000A57A84ED006AC4ED016A84ED027AC4ED33
:10091000037A02B010BD00BF0000803892ED015A8A
:10092000D2ED005AD2ED024A92ED036A65EE457AA5
:1009300064EEE56AE5EEA57A002026EE247AE4EE80
:10094000E47AE5EE066AA5EE257AE6EE067A76EE1C
:10095000A66A37EE077AC1ED006A81ED017AC1ED32
:10096000027A7047FFFFFFFF38B58F488F4C904DDC
:1009700001F004FC00218C4801F0B8FB01218A48F9
:1009800001F0D6FB0321884801F0BAFB7C218648A0
:1009900001F05AFA80A3D3E90023834801F0DAFA80
:1009A0007FA3D3E9002301217F4801F0EBFA8148BE
:1009B00001F0F2FD80497F4801F038FE204600F04A
:1009C000E7FD0021022002F061FA2046FFF754FD06
:1009D000DC212870204600F039FF20464C2100F031
:1009E0003BFF20466FF0540100F03CFF20464FF4DF
:1009F000117100F019FF2046704900F01BFF2046DE
:100A00004FF48C6100F01CFF2B78002B00F09980D4
:100A100020216B4803F038F929786A4800230A221C
:100A200003F03AFB0121684803F02EF9654803F012
:100A300023FB664B66480122032104F0A1F8654BB5
:100A400065480122062104F09BF8644B64480122AA
:100A5000062104F095F806221146624B624804F024
:100A60008FF806221146614B614804F089F806228E
:100A70001146604B604804F083F8604B60480322E5
:100A8000062104F07DF8062211465E4B5E4804F014
:100A900077F8062211465D4B5D4804F071F8062296
:100AA00011465C4B5C4804F06BF8062211465B4B28
:100AB0005B4804F065F85B4B5B480122062104F0BB
:100AC0005FF806221146594B594804F059F8594B22
:100AD00059480122062104F053F806221146574BCB
:100AE000574804F04DF806221146564B564804F07C
:100AF00047F806221146554B554804F041F80622A6
:100B00001146544B544804F03BF806221146534B0F
:100B1000534804F035F8534B53480122062104F0A2
:100B20002FF8524B52480122062104F029F832498D
:100B30002F4803F065FF36493348BDE8384003F0DD
:100B40005FBF0F214B4803F09FF81E4803F094FA53
:100B50000121204600F08CFE3E21474803F094F826
:100B6000184803F089FA03224449022002F0FAF8F7
:100B7000204600F083FD424B29211870414803F0C4
:100B800083F8104803F078FA3F4A404BA18811805F
:100B900001221A704DE700BFE1F0F0F0F000000014
:100BA000D2F0F0F0F00000004417FF1F3818FF1FCC
:100BB0003417FF1FC00AFF1F801A06005EEDFFFFFB
:100BC00018630000540DFF1F3C6300006018FF1FF6
:100BD000141DFF1FF816FF1FC018FF1FAC20FF1FBA
:100BE000B818FF1FD407FF1F5C17FF1F6408FF1F03
:100BF0005018FF1FD018FF1F2C17FF1F5C1AFF1F74
:100C00005818FF1FF408FF1F7418FF1F6417FF1FF9
:100C1000541BFF1F5C1BFF1FA018FF1FEC1BFF1FB7
:100C2000A818FF1F3C1BFF1F2417FF1FAC19FF1F35
:100C30001017FF1F9419FF1F3C1AFF1F7C1CFF1F7A
:100C4000B018FF1FAC1AFF1F8418FF1FC420FF1F1E
:100C50000C1DFF1F6816FF1F6C18FF1F8409FF1F64
:100C60007C18FF1F7C19FF1F1C1DFF1F441AFF1F4C
:100C7000241DFF1F9C620000AC6200006D04000098
:100C80003517FF1FEC6200001817FF1F8C18FF1F9D
:100C90002DE9F043874B1C7885B0002C00F0F080E4
:100CA000854D864E2B78002B00F0BF8000238448B2
:100CB0002B7000F0E3FC834C2070814800F01CFD99
:100CC00023783080DA0600F1CE80B0F5806F00F036
:100CD000CA809B0740F1EB807B4C2288824206D978
:100CE000774800F009FD228830808242F8D8774D9D
:100CF0007348774FDFF8F881DFF8F8912946D2B2D0
:100D000000F00EFD228833886D48724C9B1A3946DC
:100D10002A463380FFF7CCFD697F287F95F8246051
:100D200095F820E095F8212095F8253041EA00203B
:100D300042EA0E2543EA06233A46414620806048AF
:100D40006580A380FFF7EAFDB4F9003098ED004A12
:100D5000DFED615AD8ED014A98ED025ADFF880E1E3
:100D6000DFF894C1DFF8948106EE103AB4F902304E
:100D700006EE903AB4F90430B8EEC66A07EE103ABF
:100D8000A4EE656A554BF8EEE66AB8EEC77AE4EE73
:100D9000E56AA5EE657ABDEEC66AFDEEE66A8DED02
:100DA000016ABDF90460CDED026ABDEEC77ABDF9F6
:100DB00008508DED037A07EE106ABDF90C40D3EDB3
:100DC000007AACF80060B8EEC76A07EE105A97E8F0
:100DD0000F00F8EEC76A07EE104AB8EEC77AAEF811
:100DE00000600EF1080626EE275A67EEA65A86E83E
:100DF0000F0067EE877A324889ED035A88ED006A62
:100E0000C8ED016AC9ED045AC9ED057A88ED027A88
:100E1000ACF80250ACF80440AEF80250AEF8044012
:100E200005B0BDE8F04300F043BC274C328823886E
:100E30009A42BFF43BAF2A4F2A4801F00DF802F066
:100E40002BF81C22B8612649264801F07FF8254876
:100E500001F0EEF82B78002B7FF428AF328823883E
:100E60009A42E9D322E7164800F022FC0E211E48E0
:100E700002F00AFF1D4805B0BDE8F04303F0FCB8DE
:100E800001210D2002F002F801210D2001F0F8FFF0
:100E90004FF47A7002F022F821460D2001F0F0FFA5
:100EA0004FF47A7005B0BDE8F04302F017B805B012
:100EB000BDE8F0838C18FF1F2217FF1F3418FF1F97
:100EC0003818FF1F3517FF1F1817FF1FF417FF1FD4
:100ED0009018FF1FC818FF1F00000046140AFF1FCC
:100EE0006019FF1F4417FF1F40630000540DFF1FD0
:100EF0003817FF1FF816FF1F1C17FF1F6018FF1F72
:100F00002DE9F0412C482D4D2D4F2E4E00F03CFB8D
:100F10002D4B2E492E4A00244FF07E585C6005F17F
:100F20002000C3F800809C60DC6000230B804B80B5
:100F30008B8013805380938033807380B3803C60B8
:100F40007C60BC6000F09EF905F5A07000F098F997
:100F500005F5147000F094F91E4A1F4BD2ED007A8B
:100F60001E4D1F48C3ED097A27EEA77AF6EE006AF8
:100F700027EE267A0A22082183ED007A83ED047A8F
:100F800083ED087AC3ED0D7AC3ED117AC5ED037ACE
:100F9000C5ED0A7AC5ED117A00F048FF114B01202A
:100FA00002210322C3F80880DC601C615C611880A8
:100FB00059809A80BDE8F0813818FF1F2C1DFF1F53
:100FC0003817FF1FC818FF1F9018FF1FA41AFF1F14
:100FD0001C17FF1F140AFF1F5C1AFF1F6408FF1F66
:100FE0004417FF1F6019FF1F984B1A68120670B450
:100FF00000F12281964A974B1B78DBB2DE0703D5BE
:10100000954909680D062DD49C0703D593490968B5
:10101000080643D4590703D5914909680E0659D4E7
:101020001D0703D58F4909680C066FD4D80604D56F
:101030008D490968090600F185809E0604D58B4913
:1010400009680D0600F19A805C0604D58849096894
:10105000080600F1AF80190600F1CA800023137062
:1010600070BC704783498448096806880C6891F809
:101070000C5160682560B0F5604F02D9147804B156
:10108000013ED1F8044104F03F0501EB850540EA3B
:1010900006400134C1F804416860B5E775497648F7
:1010A000496806880C6891F80C5160682560B0F5B5
:1010B000604F02D9147804B1013ED1F8044104F024
:1010C0003F0501EB850540EA06400134C1F80441C3
:1010D00068609FE767496848896806880C6891F8E6
:1010E0000C5160682560B0F5604F02D9147804B1E6
:1010F000013ED1F8044104F03F0501EB850540EACB
:1011000006400134C1F80441686089E759495A48EA
:10111000C96806880C6891F80C5160682560B0F5C4
:10112000604F02D9147804B1013ED1F8044104F0B3
:101130003F0501EB850540EA06400134C1F8044152
:10114000686073E74B494C48096906880C6891F858
:101150000C5160682560B0F5604F02D9147804B175
:10116000013ED1F8044104F03F0501EB850540EA5A
:1011700006400134C1F8044168605EE73D493E48DD
:10118000496906880C6891F80C5160682560B0F5D3
:10119000604F02D9147804B1013ED1F8044104F043
:1011A0003F0501EB850540EA06400134C1F80441E2
:1011B000686049E72F493048896906880C6891F8CA
:1011C0000C5160682560B0F5604F02D9147804B105
:1011D000013ED1F8044104F03F0501EB85050134DF
:1011E000C1F8044140EA0640190668607FF536AF51
:1011F000224B1B681B067FF531AF1E4B1E49DB6976
:101200000D88186893F80C4141680460B1F5604F8F
:1012100002D9107800B1013DD3F8040100F03F0479
:1012200003EB8404013041EA0541C3F804010023C3
:101230006160137070BC70470F4948221A600B88B8
:10124000034A013301200B801070D4E60080034074
:101250005421FF1F5521FF1F0C80034014800340C1
:101260001C800340248003402C80034034800340D2
:101270003C8003405821FF1F7821FF1F448003401A
:10128000704700BF0022012180F8081180F8091181
:10129000C0F80C21C0F81021C0F81421027042607F
:1012A000704700BF2DE9F04FDFF800918BB0D9F8FF
:1012B00000400794BDF8506004900591DDF81CA033
:1012C0000192002A6ED01F461F2A4FEA40034FF0BA
:1012D0000008C8BF2022DBB2334D0392029344467C
:1012E0004FF0010B9DF8083005992F4885F83B30E9
:1012F00085F85EB085F85DB001F03AF901212A4821
:1013000001F048FA019B0499274885F85EB0C8EBC4
:1013100003021F2A9DF8083085F83B30D4BFD2B2B3
:101320002022012385F85DB001F0CEFA95F839202E
:1013300095F8383093420AD11BE0FF220A7095F8E5
:10134000392095F8383001349A4264B211D03919F5
:101350003EB1D9F8000008900898CAEB0000B042EE
:1013600007D29342E9D2EA180133127E85F8383069
:10137000E4E7039B9844019B5FFA88F89845B1D352
:1013800066B1D9F800300993099BCAEB030AB2454C
:1013900004D3019B9C42B8BF4FF0FF3420460BB0F2
:1013A000BDE8F08F019CEBE7C00AFF1F7C21FF1F07
:1013B00000B583B0009313460122FFF773FF03B01B
:1013C0005DF804FB30B585B01D46BDF8244000949F
:1013D0000DF10F0314460122FFF764FF60B10123F2
:1013E000621BAB400132013B9DF80F1093400B4054
:1013F00043FA02F2089B1A7005B030BDF8B5114EE1
:1014000047001546304601221C4686F83B7086F898
:101410005E2086F85D2001F0ABF855B1013D54FA2D
:1014200085F5013C14F8011F064801F0A1F8AC4213
:10143000F8D10121034801F0ADF9B0FA80F040097C
:10144000F8BD00BFC00AFF1F00B583B002AB03F8B0
:10145000012D0122FFF7D2FF03B05DF804FB00BFAE
:10146000F0B5124C85B0248800941F4614460DF147
:101470000E03012205460E46FFF714FF01229DF8D8
:101480000E3002FA04F46FB923EA040404AB3146C7
:1014900003F8014D284601228DF80E40FFF7AEFFFC
:1014A00005B0F0BD1C43E4B2F0E700BF180AFF1F0F
:1014B0002DE9F041164D84B02D88009590461F46C9
:1014C00001220DF10E039DF8284005460E46FFF758
:1014D000E9FED0B1C7EB08080122904402FA07F7F1
:1014E00004FA08F17B1E9DF80E4003FA08F7C9B212
:1014F000394024EA070404AB0C4303F8014D31469C
:1015000028468DF80E40FFF779FF04B0BDE8F08162
:10151000180AFF1FF8B5154C470015462046012252
:1015200084F83B701E4684F85E2084F85D2005FA3E
:1015300002F701F01DF885B1002425B20B4836F8FA
:1015400015100234090A01F013F8E4B216F8151068
:10155000064801F00DF8BC42EFDB0121034801F021
:1015600019F9B0FA80F04009F8BD00BFC00AFF1FAA
:1015700000B583B002AB23F8022D0122FFF7CAFFAA
:1015800003B05DF804FB00BF68230370704700BF21
:1015900030B583B004460123002500780093022271
:1015A00003236B21FFF784FF207800950223042298
:1015B0001B21FFF77DFF20780095022304221C21C8
:1015C000FFF776FF20782B4606226B2103B0BDE89B
:1015D0003040FFF745BF00BF0A4600781921FFF7EA
:1015E00033BF00BF00B583B000780091032305220C
:1015F0001A21FFF75DFF03B05DF804FB00B583B06F
:1016000000780091032302221A21FFF751FF03B053
:101610005DF804FB00B583B000780091022304223A
:101620001B21FFF745FF03B05DF804FB0A46007875
:101630001F21FFF709BF00BF0A4600782021FFF7EE
:1016400003BF00BF0A4600782121FFF7FDBE00BF9F
:101650000A4600782221FFF7F7BE00BF032900D910
:10166000704701EB41012531C9B20078FFF7ECBEAC
:101670000A4600783821FFF7E7BE00BF10B5054BDA
:1016800004461B880078621C3A21FFF791FE6078BF
:1016900010BD00BF180AFF1F0B46007806226A2102
:1016A000FFF7DEBE0B46007805226A21FFF7D8BEA1
:1016B0000078012302226A21FFF7D2BE01230078BD
:1016C0001A466A21FFF7CCBE0078012307226B215E
:1016D000FFF7C6BE0B46007806226B21FFF7C0BE9F
:1016E00000B583B000780091032302226B21FFF73D
:1016F000DFFE03B05DF804FB10B5084B82B0044672
:101700001B88007800930222631C7221FFF7CAFD38
:101710006078A37843EA002002B010BD180AFF1FCA
:101720000AB90A70704700B50B4605490078098868
:1017300083B000917421FFF7B5FD03B05DF804FBA1
:10174000180AFF1F00220B4600781146FFF788BEDB
:1017500010B5034682B0084A044613F8010B1288FC
:1017600000930623019200211A46FFF72BFE94F9FD
:10177000010002B010BD00BF180AFF1F00B583B002
:101780000623C9B2007800911A460021FFF790FEA7
:1017900003B05DF804FB00BF10B5034682B0084AF1
:1017A000044613F8010B12880093062301920121CD
:1017B0001A46FFF707FE94F9010002B010BD00BF02
:1017C000180AFF1F00B583B00623C9B20078009144
:1017D0001A460121FFF76CFE03B05DF804FB00BF61
:1017E00010B5034682B0084A044613F8010B12886C
:1017F00000930623019202211A46FFF7E3FD94F9B4
:10180000010002B010BD00BF180AFF1F00B583B071
:101810000623C9B2007800911A460221FFF748FE5C
:1018200003B05DF804FB00BF8AB200780621FFF721
:101830009FBE00BF8AB200780821FFF799BE00BFA3
:101840008AB200780A21FFF793BE00BF8AB20078FF
:101850001321FFF78DBE00BF8AB200781521FFF774
:1018600087BE00BF8AB200781721FFF781BE00BF94
:101870000B46007807226A21FFF7F2BD00780123AA
:1018800003226A21FFF7ECBD01F01F010BB141F00B
:1018900020010AB141F040010A4600786D21FFF7AE
:1018A000D3BD00BF0A4600786E21FFF7CDBD00BF53
:1018B0002DE9F04F85B0804603F01F0B9DF838509E
:1018C00000780393174689465A466D21FFF7BCFD01
:1018D0002A4698F800006E21FFF7B6FD2FB3DFF817
:1018E0007CA0002606F11003BC1BE4B29F42B4BFEB
:1018F00022461022C5F58070A8BF14469042BCBF96
:101900006C42E4B2BAF800E098F80000CDF800E0CC
:1019100009EB060326446F212246B6B2FFF7C2FC4C
:10192000B7424FF06D01254402D805B0BDE8F08FF5
:1019300015F0FF0505D1039B0133DBB2039303F0E0
:101940001F0B5A4698F80000FFF77EFD2A466E21CD
:1019500098F80000FFF778FDC4E700BF180AFF1FE2
:101960002DE9F04F87B003F01F0A05939DF844302E
:101970009DF84050049107461C4603936D219DF845
:1019800048300078029391465246FFF75DFD2A46A3
:1019900038786E21FFF758FD002C40F08480DDF888
:1019A0000CB0029B002B79D1DDF80880B9F1000F53
:1019B00048D0002606F1100399454CDAC6EB09041D
:1019C000E4B22346C5F580729A42029BBCBF6C42CA
:1019D000E4B2002B42D064B1049B601E9A1958FAFD
:1019E00080F008F1FF3312F8011B03F8011F834256
:1019F000F9D1434622466F213878FFF7FFFC039B5D
:101A0000E3B1BBF1000F19D052466D213878FFF7D2
:101A10001BFD2A466E213878FFF716FD2D4B3878CE
:101A20001B88009322466F215B46FFF73BFC224652
:101A30005946404603F0A4FB002839D12644B6B2EB
:101A4000B1450FD8039B002B3BD1029BFBB9012072
:101A500007B0BDE8F08F10231C46B3E7049B03EBEF
:101A60000608C6E7254415F0FF0505D1059B01339F
:101A7000DBB2059303F01F0A52466D213878FFF759
:101A8000E3FC2A466E213878FFF7DEFC92E74046F9
:101A900003F0B6F8012007B0BDE8F08F102003F086
:101AA000A7F8804682E7102003F0A2F8834678E783
:101AB000584603F0A5F8029B3BB9002007B0BDE8EB
:101AC000F08F584603F09CF8BFE7404603F098F8C3
:101AD000F3E700BF180AFF1F30B585B09DF820401E
:101AE0009DF824500094012401950294FFF738FFDB
:101AF00005B030BD2DE9F04F824687B00E469146C5
:101B00001F46002B66D1002A38D098464FF0000BB4
:101B10000BF1020292B20BF10305B45CADB2002FDF
:101B20003ED07CB30BF1010292B2042C16F80B30BC
:101B300016F802B041D8A4B204F1FF3C18FA8CFCAC
:101B4000701908F1FF3110F801EB01F801EF8C4535
:101B5000F9D1012100220292CDF800B00191224674
:101B600041465046FFF7FCFE2C441FFA84FB60B34D
:101B7000D945CDD817B1404603F042F8012007B04F
:101B8000BDE8F08F725D0BF10403012A1FFA83FB9D
:101B90001BD1322238219AF80000FFF755FCE7E705
:101BA000002CEFD00BF1010292B216F80B3016F8B0
:101BB00002B0A4B206EB0508CBE7404621460593E8
:101BC00003F078FB059B8046B5E75FB9002007B0BE
:101BD000BDE8F08F082003F00BF88046B9F1000F44
:101BE00094D1C8E7404603F00BF8EFE70123FFF775
:101BF00081BF00BF0A4600787021FFF725BC00BFF7
:101C00000A4600787121FFF71FBC00BF0388428895
:101C10009A4203D0D8B2012101F032B9704700BF17
:101C200038B504460D460C48012100F003FC0021A4
:101C3000094800F027FC0949074800F029FC29461B
:101C4000A07801F01DF9636903EB8303DB0001D089
:101C5000013BFDD138BD00BF1C0AFF1F000002B8C8
:101C600038B50C4600210546FFF7DAFF0D4B1B681F
:101C700004F01F044FF00042DA625C63DA6A002A63
:101C8000FCDA4FF00041FF22986BD9625A63DA6A9E
:101C9000002AFCDA9C6B28460121FFF7C1FFE0B265
:101CA00038BD00BF1C0AFF1FF8B50E4600211446C0
:101CB0001F460546FFF7B4FF124B06F01F021968D6
:101CC00042F020024FF00043CB624A63CA6A002A06
:101CD000FCDA8E6B781EF6B2C0B26FB12044621E81
:101CE0004FF0004412F8013FCC624B63CB6A002BEB
:101CF000FCDA82428B6BF5D128460121FFF790FF79
:101D00003046F8BD1C0AFF1F70B50C460021164670
:101D10000546FFF785FF0E4B04F01F041B6844F0D7
:101D200020044FF00042DA625C63D96A0029FCDAD1
:101D30009C6B4FF00042DA62E4B25E63DA6A002A1A
:101D4000FCDA284601219B6BFFF76AFF204670BD35
:101D50001C0AFF1F2DE9F8430D46C1790646007A9B
:101D6000914289461F4628BF9146002840D1C9EBC1
:101D700001015FFA81F808F1FF34E4B20021304636
:101D8000FFF74EFF1C4B19684FF00043CB624F63C7
:101D9000CB6A002BFCDA8F6B09F1FF30FFB2C0B2C7
:101DA000B9F1000F0DD028446A1E4FF0004512F81B
:101DB000013FCD624B63CB6A002BFCDA82428B6B16
:101DC000F5D1B8F1000F0CD04FF000400022C862EE
:101DD0004A63CB6A002BFCDA013CE4B2FF2C8B6B2C
:101DE000F5D130460121FFF71BFF3846BDE8F883E7
:101DF000FF244FF00008C1E71C0AFF1F38B50C464E
:101E000000210546FFF70CFF074B1A684FF000430F
:101E1000D3625463D36A002BFCDA946B2846012109
:101E2000FFF7FEFEE0B238BD1C0AFF1F70B40024AD
:101E300005252026C671847104724472857345613C
:101E40000180428070BC70477C2994BF0A467D2285
:101E50000521FFF759BF00BF10B50446008863880D
:101E6000834203D0C0B2002101F00AF8236903EBDA
:101E70008303DB0001D0013BFDD11D212046FFF78C
:101E8000EFFE830708D5236903EB8303DB001AD138
:101E9000E1212046FFF7B2FF00212046FFF7E0FED8
:101EA000002100F0FE022046FFF72EFF022120460F
:101EB000FFF7D6FE40F00102D2B220460221BDE873
:101EC0001040FFF721BF013BFDD1E1E710B5002134
:101ED0000446FFF7C5FE00F0020303B110BD40F059
:101EE000020203F0FF012046D2B2FFF70DFF0520EA
:101EF000BDE8104000F0F2BF002B10B518BFB023B2
:101F0000044608BFA023FFF725FF2046FFF77EFE0B
:101F1000FF212046FFF772FF10F0300FF8D0208825
:101F20006388834203D0C0B2002100F0A9FF702271
:101F300007212046FFF7E8FEC30601D4012010BDAB
:101F40002046E121FFF75AFF002010BD0023FFF7D4
:101F5000D3BF00BF30B583B002AD65E902230446AC
:101F60002A46837B0A21FFF79FFE2A46A37B204651
:101F70001021FFF799FEE27920461121FFF7C4FEF8
:101F800003B030BD70B582B0CDE9002305460C46E4
:101F900011B3062901D902B070BD01292AD0164A11
:101FA0000123515C6A46FFF77FFE144BEA79195D05
:101FB0002846FFF7A9FE02212846FFF751FE104BE5
:101FC0001A5D012303FA02F20243D2B2284602212B
:101FD000FFF79AFE02B070BD827B694609306E46FB
:101FE00000F07CFD044AAB7B115D28463246FFF7CA
:101FF0005BFEDAE76E46F5E75863000050630000C9
:102000006063000038B50D4602210446FFF728FE44
:10201000064B5A5D012303FA02F220EA0202D2B211
:1020200020460221BDE83840FFF76EBE6063000025
:1020300010B50446FFF74AFF00212046FFF710FEC7
:1020400040F00102D2B200212046FFF75DFE20469B
:1020500070220721FFF758FE20886388834203D04F
:10206000C0B2012100F00CFF617A69B1A37B04F1D9
:1020700009020A212046FFF717FE1D212046FFF71F
:10208000EFFD830709D410BD2046FFF7BBFF1D21DC
:102090002046FFF7E5FD8307F5D52046E121BDE8A1
:1020A0001040FFF7ABBE00BF10B500210446FFF79C
:1020B000B7FD0D4B1B684FF000415022D9625A63A7
:1020C000DA6A002AFCDA4FF000417322986BD96279
:1020D0005A63DA6A002AFCDA20469B6B0121BDE8CC
:1020E0001040FFF79DBD00BF1C0AFF1F19B90A462B
:1020F0000121FFF709BE3F220121FFF705BE00BF06
:1021000038B50C4606210546FFF7AAFD032C9CBFF7
:102110006400013400F0F80294BF04F0FF040724C7
:10212000224328460621BDE83840FFF7EDBD00BF39
:1021300070B50E4606210446FFF792FD022E00F010
:10214000D70514D0012E12BFFA23BE2345F008058F
:1021500023612A4606212046FFF7D6FD20460621A8
:10216000FFF77EFD281AB0FA80F0400970BD4FF4E9
:10217000E17345F020052361EBE700BF70B504462D
:102180000088638883420BD0C0B2012100F07EFE3C
:1021900060882388834203D0C0B2012100F076FE1C
:1021A000304800F009F920886388834203D0C0B228
:1021B000002100F065FE01212046FFF731FD0520DA
:1021C00000F08CFE0C2200212046FFF79DFD04212B
:1021D0005F222046FFF798FD02212046FFF7A8FF67
:1021E00008B10123A37106212046FFF739FD002124
:1021F00005462046FFF79CFF2046FFF755FF0026C7
:1022000000221D212046FFF77FFD32461C2120467B
:10221000FFF77AFD2672702207212046FFF774FD32
:102220004C2205212046FFF76FFDE2212046FFF7F3
:10223000E5FDE1212046FFF7E1FD2046FFF746FEE0
:1022400031462046FFF70CFD314600F0FE022046E5
:10225000FFF75AFD681EC0B2FD288CBF0020012088
:1022600070BD00BF1C0AFF1F10B4047F4160022C28
:10227000C26003D05DF8044B01F00ABE83685DF8CC
:10228000044B1847F0B4464B464A186BDC6A017998
:102290001170454922790A709A6A00790870002AFB
:1022A00046D05968C9688A423ED82168CC8B24043C
:1022B00002F1FF3065D4C0F30E00C883C88B80B232
:1022C000C882196B0968C88B000452D4C2F30E008F
:1022D000C883C88B002480B212F1FF32C88218BFB5
:1022E00001229C62D96A2E4809680D6800F1240415
:1022F000A54236D00068C46814F0804F0C680D68A1
:1023000015BF248824780235013544F000440D605F
:102310004463196B254B09791970214912B1CA6AB6
:1023200012791A70F0BC7047521A9A620122D9E7EA
:10233000586B196805681E4C0A63CC62CC682D681E
:102340001C4E24F080440327B542CC6083F82570EE
:102350001FD1037F4260022BC2601ED0F0BC01F08F
:1023600097BD016890F82400CC6840F000404863B5
:10237000CFE7CC8BC2F3080004F47E442043C8832B
:10238000A7E7CC8BC0F3080004F47E442043C88345
:1023900094E72B461146F0BC18478368F0BC1847F9
:1023A0001C0AFF1F1F8000401C8000401B80004053
:1023B00000000FFF6922000090E80C00F0B41C68D8
:1023C00059682568164F174E29432160164D174945
:1023D0001760D66015611160417A154A5C180C319E
:1023E00094F82C4053F8215002EBC40149680D6069
:1023F000017A5C1803EB8101247ECD6902EBC401F4
:1024000049680D60817A581803EB810390F8400009
:10241000596C02EBC002F0BC53681960704700BFF2
:1024200001401F00011000380110007800001F80DB
:10243000806400004268036805CA10B4046822433F
:102440000260DA6889B942F08072D9688A4209D09C
:10245000196848040CD40A48186042F08040DA60D9
:10246000186119605DF8044B704722F08072ECE748
:1024700042F08041DA605DF8044B1961704700BF9B
:1024800001401F0043680CCB11680B431360704779
:102490004268036805CA10B4046822430260D86821
:1024A000840100F0E06205D5080900F4706021F4B1
:1024B00070410143D8681143814209D01A68500421
:1024C00009D40848186041F08040D96018611A604A
:1024D0005DF8044B704741F08042D9605DF8044BD1
:1024E0001A61704701401F000020704790F83920A2
:1024F00090F83800101A704790F8383090F839206A
:102500009A4205D95A1C034480F83820187E704737
:102510004FF0FF30704700BF90F8383090F8392006
:102520009A4286BF1B18187E4FF0FF30704700BFDD
:10253000704700BF38B50546B0F85E0090B195F819
:102540005D301446C3F1210294420CD805F13B00E2
:102550001844224600F0C2FA95F85D30234485F80D
:102560005D30204638BD012014462871EEE700BFDB
:10257000B0F85E306BB190F85D30202B07D8C218F0
:10258000013380F85D30012082F83B107047012351
:1025900003710020704700BF0023426980F8383083
:1025A00080F8393080F85C3080F85D3080F85E303B
:1025B00080F85F3006CA30B40D68046943662A4368
:1025C00083660A60A370426990F861301649146806
:1025D00013441D7A5B7B01EBC5051B026D6803F498
:1025E000E06343F064032B6090F8623013449D7CF9
:1025F000DB7D01EBC5011B02496803F4E06343F096
:1026000064030B6021685368194205D003692C22CA
:102610005A70036904229A71036920225A7103696E
:1026200080229A7030BC70478064000043690CCBF4
:1026300012681A420CD0094B99420AD9084B9942A8
:10264000036994BF1C2212225A70036904229A71F2
:10265000704703692C225A70F7E700BF7F1A060003
:102660003F420F0038B50269D478E4B2E10605466E
:1026700024D51023D37063061FD504F0040404F09E
:10268000FF03002C5AD042496A6E00230B7085F874
:102690005D30002A66D0904795F85D30002B61D000
:1026A0002B69D0229A702B6995F83B201A712B69FF
:1026B000012285F85C200222DA7038BD04F0400364
:1026C00003F0FF00002BD8D19379DBB203F0600157
:1026D00060294ED0937803F0100303F0FF01B3B1EB
:1026E00014F0010437D195F85C3095F85D109942EB
:1026F0004BD9591C2B4485F85C1093F83B3013716F
:102700002B69D0229A702B690222DA70D5E785F8FE
:102710006010937943F0200393712B6995F8391079
:102720001A791F29D2B2C6D8194800780028C2D019
:102730006818013185F839100276BCE72A6985F8F6
:102740003930C02393702B69114A19790121117016
:102750000222DA70B1E7C02393702B691A79022242
:10276000DA70AAE70122002385F85D2085F83B3066
:1027700096E703F0DF039371AB6E23B185F8380061
:1027800095F8390098472A69A4E71471B8E700BFA3
:102790007A21FF1FF0B503691222DA70026993787B
:1027A0000546980687B051D5B423464C93702368EC
:1027B0000293029E2A6905E023680393039B9B1BF7
:1027C000042B5AD8D37803F0200303F0FF00002B2A
:1027D000F2D095F85D30002B31D04FF0000E4FF065
:1027E000020C05EB0E0393F83B301371236804933E
:1027F000049F286907E09B060DD523680593059B78
:10280000DB1B052B40D8C378DBB203F0020202F0D9
:10281000FF06002AEFD080F803C02E69F378DBB200
:10282000DF0632463FD49F063DD5DB0743D40EF189
:10283000010E95F85D305FFA8EFE7345D1D8002009
:10284000002934D1002385F85E301BE01D4C23683D
:102850000093009E05E023680193019B9B1B0F2BB7
:1028600019D8D37803F0200303F0FF00002BF2D136
:10287000B02385F85F00937099E790702B698022F0
:102880009A70042007B0F0BD86702B698022042066
:102890009A7007B0F0BD002393702B69802204204A
:1028A0009A7007B0F0BD8023B3700420C8E72E698A
:1028B0008023B370C6E7BEF1000F0CBF02200320D7
:1028C000F6E700BF7C21FF1F2DE9F04106461225E7
:1028D0003469002086F8380086F83900E5703769D9
:1028E000BC7804F020048AB0002C3CD0B420714D98
:1028F000B87028680290DDF808E0376906E02C68B7
:102900000394039CCEEB0404042C47D8FC7804F019
:10291000200404F0FF00002CF1D0490041F0010137
:10292000C9B2397129680491049F346905E02968A6
:1029300005910599C91B05293FD8E17801F00201ED
:1029400001F0FF000029F2D00227E7703169C87852
:1029500010F0110038D1002A3AD1002B0CBFA0236F
:1029600080238B701EE0534D04F0FF002C68009410
:10297000DDF800C006E02C680194019CCCEB040457
:102980000F2C12D8FC7804F0200404F0FF0E002C69
:10299000F1D1B02086F85FE0B870AAE7B87033696B
:1029A00080229A700AB0BDE8F0810023BB703369C1
:1029B00080229A700AB0BDE8F081A070336980224D
:1029C0009A700AB0BDE8F08180238B700020E9E79F
:1029D000012A58D0A0248C703469217986464FF0A2
:1029E000A80C29680691069805E0296807910799BF
:1029F000091A05294DD8E17801F0020101F0FF081C
:102A00000029F2D0013AD2B2E770012A04BF31693D
:102A100081F802C0BEF11F0F346943D806EB0E01E6
:102A2000207908760EF1010E5FFA8EFE2146012A0A
:102A3000D7D12A680892089C05E02A680992099A69
:102A4000121B052A31D8CA7802F0020202F0FF00F8
:102A5000002AF2D00222CA703269B021BEF11F0FE3
:102A6000917024D8316906EB0E02097911760EF1C6
:102A7000010E5FFA8EFE13B1336980229A7086F8D8
:102A800039E070468EE7A8228A70316986460A7955
:102A9000CFE784F80280336980229A70704686F806
:102AA00039E07FE721792146C1E78870F3E7326991
:102AB0001279E0E77C21FF1F0148FFF7D3BD00BF7B
:102AC000C00AFF1F0148FFF7CDBD00BF2C0BFF1F41
:102AD0000148FFF7C7BD00BF540AFF1F844641EA03
:102AE000000313F003036DD1403A41D351F8043B86
:102AF00040F8043B51F8043B40F8043B51F8043BD8
:102B000040F8043B51F8043B40F8043B51F8043BC7
:102B100040F8043B51F8043B40F8043B51F8043BB7
:102B200040F8043B51F8043B40F8043B51F8043BA7
:102B300040F8043B51F8043B40F8043B51F8043B97
:102B400040F8043B51F8043B40F8043B51F8043B87
:102B500040F8043B51F8043B40F8043B51F8043B77
:102B600040F8043B51F8043B40F8043B403ABDD2E6
:102B7000303211D351F8043B40F8043B51F8043B88
:102B800040F8043B51F8043B40F8043B51F8043B47
:102B900040F8043B103AEDD20C3205D351F8043B17
:102BA00040F8043B043AF9D2043208D0D2071CBFE3
:102BB00011F8013B00F8013B01D30B88038060460C
:102BC000704700BF082A13D38B078DD010F0030382
:102BD0008AD0C3F10403D21ADB071CBF11F8013BF2
:102BE00000F8013B80D331F8023B20F8023B7BE741
:102BF000043AD9D3013A11F8013B00F8013BF9D26C
:102C00000B7803704B7843708B7883706046704705
:102C100008B5104C08E0236859050DD423681A053F
:102C20000FD42368DB0411D423685803F3D500F0D4
:102C3000EFFA23685905F1D501F08CFB23681A05DA
:102C4000EFD501F01DFC2368DB04EDD501F0AEFCEF
:102C5000EAE700BF3480044008B5FFF7D9FF00BFA2
:102C6000014B10221A80704700200540704700BFBA
:102C7000094908B50B6830B16A461844A2F50052FC
:102C8000904202D20860184608BD01F083FF0C2371
:102C900003604FF0FF3008BD980BFF1F704700BF67
:102CA00010B4114B53F8302092F8804234B1012314
:102CB00079B182F880305DF8044B704703EBC003B4
:102CC0005B681A6851B922F002021A605DF8044B81
:102CD000704782F800315DF8044B704742F0030200
:102CE0001A605DF8044B7047806400001C4A02EBD8
:102CF000C00301295B6811D004291BD052F83000B1
:102D0000002280F8802229B1022920D0032922D074
:102D10001A6070474FF480721A60704752F83000A2
:102D20004FF4A27280F880121A601A6822F0200212
:102D30001A60704752F830104FF4A272012081F8E7
:102D400080021A601A6842F020021A60704740F24E
:102D500003121A6070474FF481721A60704700BF07
:102D6000806400003F2817D8F8B5042A13D8DFE89C
:102D700002F0494C4F1446002C4872B6236823F4E5
:102D8000702343F08072C4F384011643236040F83B
:102D90002150266062B6F8BD70474FF41026244BD0
:102DA00003EBC0030D465C68216811F4E06134D088
:102DB000204B214A2149C3F82C2104F140422048EC
:102DC000C3F83411A2F592211E4FC3F830017C29BB
:102DD0001D48C3F83871C3F83C01CDD9A2F594233E
:102DE0007C2B18D9A2F596237C2B19D9A2F5982310
:102DF0007C2B17D9A2F59A227C2A15D9F8BD4FF45D
:102E00003026CCE74FF40026C9E74FF44026C6E74A
:102E10004FF42026C3E70D48AFE7FFF767FFC7E78A
:102E20000B48AAE70B48A8E70B48A6E79C0BFF1F37
:102E3000806400000002FF1FA907FF1F5107FF1F4A
:102E40007D07FF1F2507FF1FF906FF1F140CFF1F3B
:102E5000740CFF1FA40CFF1FE40CFF1F30B4054BC4
:102E6000054D064C002210211A602A60206019606E
:102E700030BC704714D0034004D0034000D003405E
:102E80003F2801D8FFF70CBF704700BF3F2801D88B
:102E9000FFF72CBF704700BF72B60C490C4B0D4AB0
:102EA0001B680868126862B6520102D5322B88BFCF
:102EB00001300949C3F5EA334FF47A72BF33A1FBFD
:102EC000031302FB00F000EB931070477C21FF1FFF
:102ED00018E000E004ED00E0898888882DE9F843D7
:102EE000054672B6204F214B214A1B683C68126888
:102EF00062B6520102D5322B88BF013495B3C3F5B7
:102F0000EA331C4EDFF86490DFF86480BF334FF47F
:102F10007A72A6FB031302FB04F404EB931472B65B
:102F2000D9F800103A68D8F800E062B6C1F5EA3383
:102F3000BF33A6FB03031EF0806FC4EB93134FF463
:102F40007A7002D0322988BF013200FB0233B3F518
:102F50007A7F04D3013D05D004F57A74DFE701F0F0
:102F6000F1F8DCE7BDE8F8837C21FF1F18E000E002
:102F700004ED00E089888888F8B53E4B3E49DFF8CB
:102F800018C13E4E3E4ADFF814E13E4D3E4C3F4FE5
:102F90004FF0006018604FF0805018604FF0005004
:102FA00018604FF0804018604FF00040186000201B
:102FB000086028234EF6FF71CCF80010CEF80030E0
:102FC00033600EF5012E13602B60236005F500259C
:102FD0003B6004F50024B36207F50027936206F511
:102FE000012602F501220EF1100E05F6E87504F631
:102FF000E87407F57F67103220362B602360CEF827
:1030000000303B6013603360214EBB619361092245
:103010003260A7F5002706F58056203F0836386055
:103020003160BB60F36047F8042C06F5FD2607F518
:10303000FE2706F2FC76043730603960B360FB602F
:1030400046F8042C0836C7F8FC0F06F6FC76114843
:1030500031602B602360026001F0D6F83220FFF768
:103060003DFF00F001FD4FF4AF70BDE8F840FFF701
:1030700035BF00BF04E100E004800340148003403A
:103080001C800340248003402C8003403480034094
:103090000080034000900B40088003400C800340F8
:1030A000431E032B14D872B60A4951F8230068B1A5
:1030B00070B4094C058834F81320466841F8236041
:1030C000521B24F8132062B670BC704762B670477A
:1030D00000207047D821FF1FD025FF1F013803288B
:1030E0000BD872B6074B53F8203043B100205B6811
:1030F0000130002BFBD162B67047002070471846A4
:10310000F9E700BF2C22FF1FF0B472B61A491B4E1C
:10311000012311F8014B194F9A00240742F00105D1
:1031200005D556F8324064B156F83520BAB10133AE
:10313000052BEED162B6124B00221A70F0BC00F0E3
:1031400017BD0F4C0F4D217847F8325007EB431352
:1031500008304A1E5860227062B6F0BC70470849B9
:10316000094B0A7847F8353007EBC5030830013AB8
:1031700058600A7062B6F0E7AC6600000000FF1FFE
:103180005522FF1F88004000C8004000431E032B4B
:103190001DD81B4A400140F0100030B4104472B6F4
:1031A000184CE25C032A1BD8DFE802F00212151764
:1031B00003220D88E25410F0080F14BFC82388239F
:1031C00043EA054308310360416062B630BC704792
:1031D00008300222EDE70522EBE708300422E8E799
:1031E000094A52F8230038B1084A52F823004160D6
:1031F00042F8231062B6E9E742F82310034AF7E7E2
:103200000000FF1F6422FF1F2C22FF1F3C22FF1F14
:103210002DE9F04FDFF804A3DFF804B387B044E0F2
:10322000A94F4FEA930807EBC809013ED9F80420DB
:1032300003F00803F6B2A2F1080003F0FF04002B2C
:1032400040F0FE8057F838301B0C99B222F8081C69
:10325000002B00F0EC809D4B22F8064C42F8044C09
:1032600053F82620002A00F02B82994D55F826307D
:103270005860984C45F8260034F81630194424F864
:10328000161000F055FC002800F01382924A934B70
:1032900019F0080F00F1080018BF1346C9F8040020
:1032A00047F8383008238AF800309AF80040E4B232
:1032B00060071AD58A4B1B78A3B18A490A7802F0B5
:1032C000FF0322B1013BDBB20B7003B900BE86499C
:1032D0000A7802F0FF032AB1013BDBB20B70002B2E
:1032E00000F0BD8104238AF8003004F0080303F0E5
:1032F000FF02002B00F0C8809BF80030DBB21E09F3
:103300008ED19C08704F57F8342007EBC401C2F3EC
:103310008302013A49680C2A00F28580DFE802F056
:103320007979838383838383428383830700086857
:103330006E4B6F4D0193684B4A686E4E47F83430C0
:1033400081B240F28164694B6A60286000220120EA
:10335000A1421A603A61BA61307000F2E380B1F5BF
:10336000D06F80F02782B1F5817F00F0E08100F21C
:10337000C381802900F03682822940F0DE81A9884D
:103380005D4B01F07F01042900F2D8815B4C89007C
:103390000B44227062701A78930740F122832070E8
:1033A000022023E2514B01931A683AB3544B514E19
:1033B0005449188834780D784028864645F002082C
:1033C00028BF4FF0400E002C84F001043470CEEB87
:1033D00000000CBF8824C82407EBC80680B285F023
:1033E000010544EA0E447260188047F83840724480
:1033F0000D70002800F0B780019B1A603C4B1A88C2
:10340000B2F5A06F0FD100219A7859703E4B1A7017
:1034100009E0374A108842F22102904200F0A88069
:103420002D4A47F83420394A012313703AE72A4AD3
:103430002A4B19F0080F18BF134647F8383031E708
:1034400000F096FB324A334952F82630002B00F048
:103450003B8158688C5D42F8260003F10802C9F8E8
:103460000420032C05D8DFE804F02C0229260222D0
:103470008A551A8819F0080F0CBF8823C82343EA1D
:10348000024347F838300DE7E00700F1EB802106F2
:1034900000F12881A20706D51F4A2049137802208F
:1034A000DBB213700870E30602D51C4B10221A70B1
:1034B00007B0BDE8F08F04228A55DAE705228A5565
:1034C000D7E703228A55D4E70000FF1FD821FF1F4A
:1034D0008421FF1FD025FF1FC80040008800400046
:1034E0006022FF1FE921FF1F6822FF1F8021FF1FAD
:1034F0004C22FF1FE821FF1FC02007405822FF1F5A
:103500009421FF1F5422FF1F98200740942007405A
:103510002C22FF1F6422FF1F8820074080200740C5
:103520009020074042F22104A14200F0948043D849
:10353000B1F5086F00F0A881B1F5106F40F0FD8083
:10354000B84AB94CA978117004F1800503E0083439
:10355000AC4200F09E81236A1906F8D5606A0838EB
:1035600000F006FBF3E7BEF1400F18BF002243E76F
:10357000AE4ACD1D11F8013B02F8013FA942F9D135
:10358000AB4A1268862A00F01181AA49AA4E0A782D
:10359000307882F00105002842F002020D700CBF65
:1035A0008821C82147F8321007EBC20280F00100E1
:1035B00000213070516033E742F22124A14240F0F3
:1035C000FE81DFF8BCC29D4B9D49AC78DCF8005011
:1035D0001D6081460C70002002908046844604469F
:1035E00094490D7845F0020E07EBCE03B9F1000FB8
:1035F0005C600CBF8824C82444EA080385F00104F9
:1036000047F83E3032700C70DFF81CE28A4BDFF86E
:103610002482002840F09880BCF1400F1BD144F078
:10362000020407EBC403029FDFF8FCE15F60002A9D
:1036300040F09F80020442F0880207444EF8342094
:1036400086F800900D703B46402804D100207D4A4A
:10365000019910800B607C4A01231370E3E600F0AF
:10366000F3FB3FE6704B784872491A614FF0020E47
:1036700080F800E0754F0A70754919609960754EC1
:10368000754D764C9A610D213970FF213170DFF84C
:10369000F4E129702270724D724A8EF800109F2753
:1036A000012406F8047C5D600470DA6007B0BDE8B0
:1036B000F08F6D4A47F83800137801331370F1E545
:1036C00043F82600694DD4E58B5D032B67D801A232
:1036D00052F823F0A5320000A5320000293700007F
:1036E0002337000059495C4B80220D2008701A7066
:1036F000A2077FF5D8AECFE640F20232914240F009
:103700005681A98801F07F01042916D86A88A2B9D8
:103710004E4C89000C448146217841F00201217011
:1037200059E701238B55BDE500238B55BAE5A988E0
:1037300001F07F01042940F24781444B0F221A70A7
:10374000414A012313706EE640287FF668AF44F0CB
:1037500002040EEBC401029E4E60AAB1444A83F8F3
:1037600000903346403888F8005040334EF83420FB
:103770006DE70204029B86F8009042F0C8020D70CB
:1037800003444EF834205FE783F80090029B304AF0
:1037900088F80050403840334EF8342057E719F08D
:1037A000080F0CBF022303238B557BE5314A0F2101
:1037B0001170EAE6304A5468002CBED06888B5F82B
:1037C00004E003E00C325468002CB6D01388834226
:1037D000F8D153887345F5D1000A03280CBF20782F
:1037E000108903E0254C022022706270EA88824230
:1037F00080F00C810F490D78402A45F0020E944666
:1038000007EBCE0028BF4FF0400C04EB0C034460E4
:103810000293CCEB02004FEA0C484FF00109002262
:10382000C824E9E66022FF1F0000FF1FD725FF1F05
:10383000D825FF1F5422FF1FE821FF1FE025FF1F8F
:103840007822FF1F9421FF1F94200740C0200740CB
:1038500088004000882007408020074098200740CB
:103860009821FF1FEC21FF1F5522FF1F8421FF1FFE
:10387000C8004000E921FF1FB06600005822FF1F6A
:103880007C21FF1F8C200740684A694C1278227007
:10389000ACE76849684B694A02916949694C6A4DCD
:1038A000039405964FF0000988461C461646049579
:1038B000206828B1456800F05BF92846002DF9D151
:1038C00000232360049B30681A46002342F8293005
:1038D00028B1456800F04CF92846002DF9D10022A6
:1038E0003260029A98F800301146002241F8042B09
:1038F000039A0291023B4FF0000122F81910032BAA
:1039000007D8DFE803F0340234024FF0010388F8EF
:10391000003009F10109B9F1040F04F1040406F1C2
:10392000040608F10108C3D1484B059EDFF8309129
:10393000DFF8308100211970012518F8013B09F8E2
:10394000043B1A0718D4AC0044F0020244F003040C
:10395000002347F8323047F834303D4B994505F1A4
:103960000105EAD196F8009089F0010233E64FF0A4
:10397000000388F80030CCE700F0DAF8AC0007EB81
:10398000451300F10802002837D05A60314B47F840
:10399000343000F0CDF844F0010307EBC30200F12E
:1039A000080100B351602C4A47F83320CCE7B1F549
:1039B000A06F7FF4C2AE00224FF001090BE642F285
:1039C00021329142F7D0B8E66A88002A7FF4B5AE7A
:1039D000224C89000C448146217821F0020121709B
:1039E000F9E5022002E7194B44F001021B7847F881
:1039F0003200164A01331370A6E7144B134A1B78A2
:103A0000AC00013347F834001370C2E74028844605
:103A100028BF4FF0400C04EB0C03CCEB00004FEA46
:103A20000C48029300224FF00109D9E56022FF1FE4
:103A30005822FF1F3C22FF1FD821FF1F2C22FF1FEF
:103A40006422FF1FD025FF1F8421FF1F5522FF1F67
:103A5000D420074088004000C8004000C020074034
:103A6000C4200740AC6600002DE9F843244C00F068
:103A70007DFF002204F1880023461A605A60083353
:103A800083424FF00001F8D11E481F4A0368DFF857
:103A900090E01E4F1E4D1F4EDFF88880DFF888C073
:103AA000DFF8889043F48023036013681A4843F0DA
:103AB00040731360C4F307238EF80030C4F3074348
:103AC0003B70240EFF2302F5C9222C7002F584728C
:103AD00088F80030114D8CF800303370012389F8DC
:103AE000003070268EF864104FF40014102107F88F
:103AF0002C3C2E70046011700EF1640EBDE8F8834A
:103B00000000FF1F3480044000D80040B020074070
:103B1000B42007401020074004E100E035E400E055
:103B20009C200740802007408820074094200740C1
:103B300072B60D480268B2FA82F30B2B10DC4FF01C
:103B40000041D94022EA0102026062B6074803EB55
:103B5000C303DB00C2180021C150104651607047FA
:103B600062B60020704700BF500DFF1F9803FF1F73
:103B70000D4B0E4AC31AA2FB03231B090B2B0CD8B7
:103B80000B4A127852B972B60A484FF000410268E7
:103B900021FA03F31A43026062B67047064A1278AC
:103BA000002AF0D0FFF7B0BA9803FF1F398EE33830
:103BB0005522FF1F500DFF1F6022FF1F38B50F4D0C
:103BC000286878B143880288C118013393420C7A7F
:103BD00002D24380204638BDFFF7CAFF00232046AB
:103BE0002B6038BD064B1B782BB10320FFF758FA2A
:103BF00028600028E6D14FF0FF3038BD7422FF1F47
:103C00006022FF1F10B5094C206818B14388184482
:103C1000007A10BD064B1B782BB10320FFF740FA4A
:103C200020600028F2D14FF0FF3010BD7422FF1F3A
:103C30006022FF1F044B054A1B6890881BB11A883D
:103C40005B88D31A184470477422FF1FD025FF1FCA
:103C50000B4B1B789BB110B50A4C206848B1FFF79D
:103C600087FF002303202360FFF71AFA30B1FFF724
:103C70007FFF0320FFF714FA0028F8D110BD70472A
:103C80006022FF1F7422FF1F2DE9F04FDFF8F8902C
:103C900083B0012289F80020019169B3DFF8EC803C
:103CA000364F019E8346D8F80000B0B3344D4488A7
:103CB000C4F14001B14228BF314604EB010E00229D
:103CC0001FFA8EFE2A70761AA0F802E000F10802B0
:103CD00051B1013C224459441BF8014B02F8014FF9
:103CE0008B45F9D1B0F802E0BEF13F0F0BD8254A61
:103CF00005211170002ED6D10198002389F80030DB
:103D000003B0BDE8F08F4022028001460420FFF797
:103D10003DFA0022C8F80020E9E73A782AB3184DA6
:103D20004DF2E9044FF0010A07E0013C16D02A7871
:103D3000A2B900F007FA3A78BAB10420FFF7CEF939
:103D40000728F2D889F800A0FFF7F2FEC8F80000B3
:103D50000028ACD10C4B013C1870E8D101234FF086
:103D6000FF302B7003B0BDE8F08F00234FF0FF3021
:103D700089F8003003B0BDE8F08F00BF6022FF1F5C
:103D80007022FF1F6822FF1F6922FF1F6C22FF1F86
:103D900000B583B002AB012103F8010D1846FFF70F
:103DA00073FF03B05DF804FB38B50E4D0E4C286868
:103DB0000123237028B1408800232370C0F1400004
:103DC00038BD0A4B1B7813B90020207038BD042081
:103DD000FFF784F90728F7D8FFF7AAFE2860002824
:103DE000E9D1F1E76C22FF1F6922FF1F6022FF1F4C
:103DF000F8B5114B1B788BB1104E114D346801276B
:103E00002F7064B10F4A6388002717702146238002
:103E10000420FFF7BBF9376000232B70F8BDFFF7D4
:103E200087FE084B28B1014604201C70FFF7AEF94D
:103E3000F2E71F70F0E700BF6022FF1F6C22FF1F38
:103E40006922FF1F6822FF1F38B50E4B1B7873B91C
:103E50000D4C216861B103F0FF054B880B800420F5
:103E6000FFF794F9256038BD084B01221A7038BD60
:103E7000FFF75EFE0028F7D00146BDE83840042079
:103E8000FFF784B96922FF1F6C22FF1F6822FF1F02
:103E900010B4EFF3108272B6437F33B9017F01296A
:103EA00008D0032910D00123437702B962B65DF828
:103EB000044B7047114C2168A1B1114943610B6853
:103EC000836108605861EEE70E4C216881B10E49AC
:103ED00043610B688361086058610C4B4FF080515F
:103EE0001960E0E7064B4161816120601860DAE704
:103EF000054B4161816120601860EEE78C22FF1F55
:103F00008822FF1F7C22FF1F8022FF1F04ED00E09C
:103F100070B5EFF3108272B60C4C206880B10C4E75
:103F200000254369236073B19D6102B962B645778C
:103F300083689847EFF3108272B620680028F0D1AA
:103F400002B962B670BD3360EFE700BF7C22FF1F8D
:103F50008022FF1FFFF7DCBF184A30B41468002C22
:103F600027D0036821688B420ED2CB1A00218460CF
:103F7000C1602360E06010600223037530BC7047AD
:103F800011688B42144608D3A2685B1A0360002AAA
:103F9000F6D18260C460A060EEE7D268C26084603F
:103FA000E060C568CB1A0222A8602360027530BCAD
:103FB00070478460C4601060DEE700BF8422FF1F8A
:103FC000F8B5224E34682CB32368002B3AD1204F29
:103FD0001D4604E03468ECB12368002B32D1A3689D
:103FE00003B1DD6020693360036825751B68BB423F
:103FF00021D1037F4560022BC46020D0FFF748FF2A
:104000006368002BE6D023602046FFF7A5FF3468E5
:10401000002CE1D1EFF3108372B60E4A0021106834
:10402000116003B962B628B18468FFF795FF204696
:104030000028F9D1F8BD224600219847E0E78368BF
:104040009847DDE7013B2360E4E700BF8422FF1FC0
:10405000692200009422FF1F024A13680133136093
:10406000FFF7AEBF7C21FF1F08B5FCF77DFCFCF716
:104070000FFE00F067F8FAE700B5064A03681288F9
:104080005B6883B001A9ADF804200222984703B011
:104090005DF804FB80660000F0B507468BB0002A8F
:1040A00033D0012A08BF0A2251B3212400E0F4B220
:1040B000B1FBF2F502FB1511C8B2092900F130017C
:1040C00098BFC8B20AA988BF3730214488BFC0B2A0
:1040D00001F8240C661E2946002DE8D133B1013CBD
:1040E000E4B20AAB23442D2203F8242C3B6801AA36
:1040F00011195B683846C4F1220298470BB0F0BD35
:1041000030228DF825202124E8E70368C9B21B6816
:1041100098470BB0F0BD00BFFFF79ABDFFF772BD27
:10412000FFF74CBDFFF786BDFFF762BEFFF73CBE51
:1041300008461146FFF7A8BD0846FFF729BE00BF95
:10414000704700BF38B52C4C237803B138BD01232C
:104150002370FFF76FFD002842D100F0EBF8002834
:104160003BD100F07DF9002834D100F00FFA70BB8C
:1041700000F088FA40BB00F001FB10BB00F07AFBB6
:10418000E0B900232370EFF30583002BDED1EFF3BA
:10419000108172B6194B186828B3194C227812BBDB
:1041A00045691D60012323700DB3AA6101B962B690
:1041B00000254577836898472570C7E700F01EFC07
:1041C000DFE700F019FCD9E700F014FCD3E700F0BA
:1041D0000FFCCDE700F00AFCC7E700F005FCC0E7E4
:1041E000FFF7AEFFB9E70029B0D162B638BD054B85
:1041F0001D600029DCD1DAE79822FF1F8C22FF1F07
:104200009022FF1F8822FF1F30B42948294A2A4BD9
:104210002A4D6024E121047011701B78284C082B72
:1042200030D00A2B2748284937D00C2B0CBF352219
:104230005D2212232A60236002600B60234B244915
:104240001B78244ABBB101230B601360224B234926
:104250001B78234A012B26D9042B0FD9082B1ED9F2
:10426000102B94BF862387230B6013601D4B012204
:104270001A7030BC70470B601360E7E784230B6053
:104280001360F3E700F58E200F4908302122132335
:104290002A60236002600B60D0E73922F7E78523AC
:1042A0000B601360E2E780230B601360DEE700BF62
:1042B0000040074001400740640DFF1F08B0034065
:1042C0000CB0034008B00B400CB00B409A22FF1F0B
:1042D00020B0034020B00B40650DFF1F24B0034009
:1042E00024B00B409922FF1FF0B44D1E2E4600242F
:1042F00000E00134B0FBF2F302FB1300092800F1E7
:1043000030078ABF3730F8B2C0B206F8010F18463E
:10431000002BEED10A1953704CB1107815F8016FCB
:1043200028700133E01A834202F80169F5DB084680
:10433000F0BC7047054A064B10781B78C0B2DBB260
:10434000984238BF4030C01A704700BFA022FF1FFC
:10435000A122FF1FF0B4384B1A7912F0300F2CD085
:1043600072B6997D01F0FF0200293DD062B6334F4D
:10437000334938780D78334E1C46C0B2EDB2431C39
:10438000402BE17928BF0023AB4202F1FF32C9B2D2
:104390001CBFF154184612F0FF02F0D12A4B1B68E3
:1043A000C2B23A704BB1A84236BFC5F14005401BBE
:1043B00040192728C4BF01221A701F49CA78D2B2F7
:1043C000150616D452060DD51B4B1B795B0609D575
:1043D0001E4B1F491B6800220A7003B11A70164B4E
:1043E0003C22DA70F0BC70474022D9795A7462B628
:1043F000E3E70B791C06E5D5164B174E1C7833788E
:10440000E4B2DBB29C420ED0144D01E0A3420AD0CC
:104410000133402B28BF00230879E85CC0B2C87183
:10442000087D0728F2D9DBB2034933700B791806EF
:1044300044BF7C23CB70C5E700A00640A022FF1F2D
:10444000A122FF1FE422FF1F9C22FF1F2823FF1F22
:104450002423FF1F2C23FF1F2523FF1FA422FF1F40
:10446000054A064B10781B78C0B2DBB2984238BFC1
:104470004030C01A704700BFA023FF1F3523FF1F25
:10448000F0B4384B1A7912F0300F2CD072B6997DF7
:1044900001F0FF0200293DD062B6334F334938782E
:1044A0000D78334E1C46C0B2EDB2431C402BE1796F
:1044B00028BF0023AB4202F1FF32C9B21CBFF15446
:1044C000184612F0FF02F0D12A4B1B68C2B23A70B4
:1044D0004BB1A84236BFC5F14005401B4019272803
:1044E000C4BF01221A701F49CA78D2B2150616D469
:1044F00052060DD51B4B1B795B0609D51E4B1F4978
:104500001B6800220A7003B11A70164B3C22DA7045
:10451000F0BC70474022D9795A7462B6E3E70B7950
:104520001C06E5D5164B174E1C783378E4B2DBB287
:104530009C420ED0144D01E0A3420AD00133282B37
:1045400028BF00230879E85CC0B2C871087D07283D
:10455000F2D9DBB2034933700B79180644BF7C23D0
:10456000CB70C5E700B00640A023FF1F3523FF1F17
:104570006023FF1F3023FF1FA423FF1F3423FF1FCF
:10458000A823FF1FA123FF1F3823FF1F054A064B47
:1045900010781B78C0B2DBB2984238BF4030C01AE6
:1045A000704700BFB023FF1FB123FF1F30B42B4B58
:1045B0001A7994061FD52A48DA79037829490133F4
:1045C0003F2B0978C8BF00238B42D2B203D0264CC0
:1045D000D9B2E2540170254A116861B1244A1278B7
:1045E000D2B2934236BFC2F140029B1A9B18272BCE
:1045F000C4BF01230B70194AD378DBB2180611D45B
:104600005A060DD5154B1B795B0609D5194B1A496E
:104610001B6800220A7003B11A70104B2C22DA704A
:1046200030BC704711790906EAD5144910480C7856
:104630000178C9B28C420DD04A1C272A84BF0021C0
:104640000A460F4D054C98BFD1B2AA5CD2B2E271B6
:104650000170D5E76C21D170D2E700BF00C00640E1
:10466000B023FF1FB123FF1FDC23FF1FAC23FF1F5D
:104670001D24FF1F2024FF1F1C24FF1F2424FF1FB5
:10468000B423FF1F054A064B10781B78C0B2DBB27B
:10469000984238BF4030C01A704700BF2C24FF1F1B
:1046A0002D24FF1F30B42B4B1A7994061FD52A48AE
:1046B000DA790378294901333F2B0978C8BF0023F1
:1046C0008B42D2B203D0264CD9B2E2540170254AB3
:1046D000116861B1244A1278D2B2934236BFC2F156
:1046E00040029B1A9B18272BC4BF01230B70194A49
:1046F000D378DBB2180611D45A060DD5154B1B79A9
:104700005B0609D5194B1A491B6800220A7003B1D0
:104710001A70104B2C22DA7030BC704711790906E0
:10472000EAD5144910480C780178C9B28C420DD0F2
:104730004A1C272A84BF00210A460F4D054C98BF0A
:10474000D1B2AA5CD2B2E2710170D5E76C21D1700E
:10475000D2E700BF00D006402C24FF1F2D24FF1FEE
:104760005824FF1F2824FF1F9924FF1F9C24FF1F8C
:104770009824FF1FA024FF1F3024FF1F054A064B6B
:1047800010781B78C0B2DBB2984238BF4030C01AF4
:10479000704700BFA824FF1FA924FF1F30B42B4B74
:1047A0001A7994061FD52A48DA7903782949013302
:1047B0003F2B0978C8BF00238B42D2B203D0264CCE
:1047C000D9B2E2540170254A116861B1244A1278C5
:1047D000D2B2934236BFC2F140029B1A9B18272BDC
:1047E000C4BF01230B70194AD378DBB2180611D469
:1047F0005A060DD5154B1B795B0609D5194B1A497D
:104800001B6800220A7003B11A70104B2C22DA7058
:1048100030BC704711790906EAD5144910480C7864
:104820000178C9B28C420DD04A1C272A84BF0021CE
:104830000A460F4D054C98BFD1B2AA5CD2B2E271C4
:104840000170D5E76C21D170D2E700BF00A00E4007
:10485000A824FF1FA924FF1FD424FF1FA424FF1F87
:104860001525FF1F1825FF1F1425FF1F1C25FF1FDF
:10487000AC24FF1F054A064B10781B78C0B2DBB290
:10488000984238BF4030C01A704700BF2425FF1F30
:104890002525FF1F30B42B4B1A7994061FD52A48C3
:1048A000DA790378294901333F2B0978C8BF0023FF
:1048B0008B42D2B203D0264CD9B2E2540170254AC1
:1048C000116861B1244A1278D2B2934236BFC2F164
:1048D00040029B1A9B18272BC4BF01230B70194A57
:1048E000D378DBB2180611D45A060DD5154B1B79B7
:1048F0005B0609D5194B1A491B6800220A7003B1DF
:104900001A70104B2C22DA7030BC704711790906EE
:10491000EAD5144910480C780178C9B28C420DD000
:104920004A1C272A84BF00210A460F4D054C98BF18
:10493000D1B2AA5CD2B2E2710170D5E76C21D1701C
:10494000D2E700BF00B00E402425FF1F2525FF1F22
:104950005025FF1F2025FF1F9125FF1F9425FF1FB6
:104960009025FF1F9825FF1F2825FF1F72B6184AA4
:10497000184B19491160702280211A701A4619705B
:1049800013781B06FCD510B5144B84B0186862B6BA
:10499000134B144C984298BF00EB800001A998BFBC
:1049A00040000A22FFF7A0FC01A92046002311F8CD
:1049B000012B01333AB10A2B20F8022FF7D116232D
:1049C000237004B010BD5B00DBB2237004B010BDD7
:1049D0000400024000000240000007410C000240B9
:1049E0007F969800F40DFF1F704700BF704700BF0F
:1049F000704700BF704700BF704700BF704700BFDF
:104A00002DE9F00F02884B884C684568408886B0D5
:104A10009342019440F0B180B1F800A0824540F08B
:104A2000AC804FEA9A00421E5C1E009090B29A0041
:104A3000DB0002930299A3B24FEA001B01EB420193
:104A400001305C1C01FB00F303900AF0030A04949C
:104A50004FF000090BF1100B0593019C009B1FFA0E
:104A600089F004EB800C002B4FD02E68029BCCF811
:104A70000060D5F804800CEB0200ABF11006C0F822
:104A80000080AF680CEB030084180760EF6805EB4B
:104A90000B0805F1100398452760C6F300160CEBD0
:104AA000010408442CD076B11E6826605F68A61801
:104AB0000C1937609E680660DF68861810339845C9
:104AC000376008441CD02F461D6825605E68A51815
:104AD0000C192E609D680560DE68851840182E60F0
:104AE0001D6925605E69A5180C192E609E69066017
:104AF000DE698518203398452E600844E4D13D4690
:104B0000039B059C05EB0315A444BAF1000F28D0C4
:104B10000AF1FF372B46BEB205EB860453F8047B3F
:104B2000601B0434A342CCF80070C0F380009444AE
:104B300014D030B153F8040BA342CCF800009444D5
:104B40000CD0184650F8047BCCF800705F68944491
:104B5000031DA342CCF800709444F2D1013605EB5A
:104B60008605049B09F1010999457FF476AF002081
:104B700040B206B0BDE8F00F7047FD20F8E700BF77
:104B800010B4002461F30F0462F31F440460436017
:104B900010BC7047014B1868704700BF3812FF1FE8
:104BA00070B50F4E0F4D761BB61018BF002405D000
:104BB000013455F8043B9847A642F9D10A4E0B4DF3
:104BC000761B01F0A1FDB61018BF002406D00134F9
:104BD00055F8043B9847A642F9D170BD70BD00BF9F
:104BE00014670000146700002067000014670000CD
:104BF000024B0146186800F00BB800BF3812FF1FC7
:104C0000024B0146186800F0D1BD00BF3812FF1FEB
:104C10002DE9F04F01F10B05162D83B0064640F249
:104C20009F8035F0070500F1BF80A94200F2BC80EB
:104C300000F03CFBB5F5FC7FC0F09C826B0A00F0F5
:104C4000BA80042B00F28381A80900F1390E4FEAE3
:104C50004E033830C44F07EB8303A3F108015C68AF
:104C6000A14207D1ACE0002A80F2AC80E468A14206
:104C700000F0A680636823F003035A1B0F2AF2DDBD
:104C8000B9493C6901F1080E744500F0B3816368CD
:104C900023F003035A1B0F2A00F39981002AC1F85D
:104CA00014E0C1F810E080F29E80B3F5007F80F040
:104CB0006781DB0803F1010C01229B1002FA03F368
:104CC0004A6851F83C80C4F8088001EBCC091A43CB
:104CD000A9F10803E3604A6041F83C40C8F80C4081
:104CE000831001249C40944200F28A80144206D131
:104CF00020F003006400144200F10400FAD007EB36
:104D0000C009CC468046DCF80C108C4507D173E115
:104D1000002A80F28181C9688C4500F06D814B6862
:104D200023F003035A1B0F2AF2DD0C46D1F80CC006
:104D300054F8088F4B1945F001054D6042F0010110
:104D4000C8F80CC03046CCF808807B613B61C3F8E2
:104D50000CE0C3F808E059609A5000F0A9FA1FE08F
:104D6000102921D800F0A2FA1025062302207E4F38
:104D700007EB8303A3F108025C68944200F04581CD
:104D80006368E168A56823F00303234430465A684A
:104D9000E96042F001028D605A6000F089FA08343F
:104DA000204603B0BDE8F08F00240C23204633607A
:104DB00003B0BDE8F08F80234FF0400E3F2049E75D
:104DC00070465DE72344E1685A68A56842F0010235
:104DD000E96030468D605A6000F06AFA0834204677
:104DE00003B0BDE8F08F234430465A6842F0010218
:104DF0005A6000F05DFA0834204603B0BDE8F08F39
:104E0000BC68636823F00308A84504D3C5EB080316
:104E10000F2B00F38C80554BDFF860911A68D9F89E
:104E2000003001332A4404EB080A00F0608102F5E7
:104E300080520F3222F47F6222F00F021146304678
:104E4000019200F02FFCB0F1FF3F8346019A00F081
:104E50005881824500F2FC80454B1968DA451144BF
:104E6000196000F05381D9F80000DFF810E101303B
:104E70001BBFCAEB0B0A5144CEF800B019601BF0FF
:104E8000070100F01781C1F10800C1F5805183448A
:104E900008315A44C2F30B02C2EB010949463046BD
:104EA000019300F0FFFB431C019B00F03F81CBEB23
:104EB00000024A4442F001021968C7F808B04944A8
:104EC000BC42CBF804201960DFF8A49016D0B8F1EA
:104ED0000F0F40F2FD806268A8F10C0323F0070376
:104EE000E01802F001024FF0050E1A430F2B62602A
:104EF000C0F804E0C0F808E000F21C811D4BBC685B
:104F00001A68914288BF19601B4B1A689142626807
:104F100088BF196022F003029542A2EB050301D875
:104F20000F2B04DC304600F0C3F9002438E7621987
:104F300043F0010345F0010565603046BA605360F7
:104F400000F0B6F90834204603B0BDE8F08F142B0A
:104F500071D9542B00F2A480280B00F16F0E4FEA98
:104F60004E036E3076E600BF3C12FF1FA425FF1FE4
:104F7000A825FF1FA025FF1F9C25FF1F4816FF1F08
:104F80005A0A042A5ED9142A00F2B38002F15C01A5
:104F900049005B3207EB810C57F82110DFF8DC8108
:104FA000ACF1080C8C4500F088804A6822F00302BE
:104FB000934202D289688C45F7D1D1F80CC07A6847
:104FC000C4F80CC0A160CCF80840CC6088E6631936
:104FD00042F0010745F00105656030464B610B6109
:104FE000C3F80CE0C3F808E05F609A50083400F0A2
:104FF0005FF9D5E64A6873E608F1010818F0030F77
:105000000CF1080C7FF47FAE30E0DC68A34208BFEF
:1050100002303FF435AEB3E60B440C465A68C9681B
:1050200054F8085F42F001025A603046E9608D6032
:1050300000F03EF9B4E603F15C0E03F15B004FEAC9
:105040004E0307E69A0902F1390149003832A1E717
:10505000BC424A4B3FF400AF9C68626822F00302F6
:105060005AE759F80839994540F0828010F0030F4B
:1050700000F1FF30F5D17B6823EA04037B60640014
:105080009C423FF6BDAE002C3FF4BAAE1C424046F7
:105090007FF435AE64001C4200F10400FAD02EE625
:1050A000B3F5AA7F18D8E80B00F1780E4FEA4E034B
:1050B0007730CFE54FF48051EBE60121D8F804308A
:1050C000921001FA02F21A43C8F80420614677E709
:1050D0000123CBF8043025E740F25452934220D804
:1050E000A80C00F17D0E4FEA4E037C30B2E5103281
:1050F000A4E6542A26D81A0B02F16F0149006E3239
:1051000048E7BC68626822F0030205E7CAF30B00B7
:1051100000287FF4A8AE4244BB6842F001025A6006
:10512000ECE6FE234FF07F0E7E2093E501224FF048
:105130000009C1E604F10801304600F037FBD9F858
:105140000010DBE6B2F5AA7F05D8DA0B02F1780190
:10515000490077321EE740F254518A4205D89A0C32
:1051600002F17D0149007C3214E7FE217E2211E725
:105170007B6884E7E808431C5B00F8E53C12FF1FEE
:10518000032A70B426D940EA01039B0711D00478A2
:105190000D78AC4222D10244431C05E013F8014BC8
:1051A00011F8015FAC4219D19342F7D1002070BCD5
:1051B00070470C4603461E682568AE4218462146D5
:1051C00003F1040304F10404E1D1043A032A18466C
:1051D0002146F0D8002ADAD11046E8E7601B70BCFF
:1051E000704700BF8842F0B50DD98B1898420AD29B
:1051F0008118002A51D09A1A13F8014D01F8014D77
:105200009342F9D1F0BD0F2A48D941EA00039B0728
:1052100046D100F1100401F11003154653F8106C4B
:1052200044F8106C53F80C6C44F80C6C53F8086C90
:1052300044F8086C103D53F8046C44F8046C0F2DCE
:1052400003F1100304F11004E8D8A2F1100323F0D5
:105250000F0302F00F0E1033BEF1030F1944034485
:1052600021D91E1F0D467446043C55F8047B46F8B0
:10527000047F032CF8D8AEF1040424F003040434B2
:105280002344214402F0030262B1013B0A4411F8B5
:10529000014B03F8014F8A42F9D1F0BD0346F3E711
:1052A0000346F2E7F0BD7246EEE700BF704700BF6D
:1052B000704700BF024B0A460146186800F002B86A
:1052C0003812FF1F2DE9F04F174683B0002900F078
:1052D000C1800E46814607F10B05FFF7E7FF56F840
:1052E00004EC162D2EF00304A6F1080840D8102275
:1052F0001546AF4241D8944275DAC94B996808EB1C
:1053000004008842416800F0D98021F00103034481
:105310005B68DB077DD51EF0010F35D03946484666
:10532000FFF776FC0746E0B156F8043C23F0010392
:105330004344A0F108029A4200F04481221F242A2B
:1053400000F23181132A00F20481034632461168CB
:1053500019605168596092689A603146484600F079
:1053600025FA4846FFF7A4FF384603B0BDE8F08FA2
:1053700025F00705002D2A46BBDA0C230020C9F8CA
:10538000003003B0BDE8F08F56F8083CC3EB080AC4
:10539000DAF8043023F0030C04EB0C039342BDDB7A
:1053A0005746DAF80C1057F8080F221F242AC1605C
:1053B000886000F21781132A40F212813168CAF81E
:1053C00008107168CAF80C101B2A00F22B810836ED
:1053D0000AF110023168116071685160B168916022
:1053E0003E461C46D046631B0F2B1DD8D8F8043010
:1053F00003F0010323434444C8F80430636843F0D6
:10540000010363604846FFF753FF304603B0BDE831
:10541000F08F21F003012144914221DBC3688268AF
:105420000C46D3609A60DEE7D8F8042008EB05014B
:1054300002F00102154343F001020B44C8F8045086
:105440004A605A6842F0010208315A60484600F04A
:10545000ADF9D7E7114603B0BDE8F04FFFF7D8BB71
:105460001EF0010F7FF45AAF56F8083CC3EB080A50
:10547000DAF8043023F0030C01EB0C0E96458BDBBD
:10548000C36882685746D3609A6057F8081FDAF8F5
:105490000C30CB60221F242A996000F29980132AD5
:1054A00062D93368CAF808307368CAF80C301B2A0E
:1054B00000F2A08008360AF1100356E021F0030B39
:1054C000A34405F11000834559DA1EF0010F7FF463
:1054D00025AF56F8081CC1EB080ADAF8041021F0D1
:1054E000030CE34458453FF757AF5746DAF80C1022
:1054F00057F8080F221F242AC160886000F2B48088
:10550000132A40F2A5803168CAF808107168CAF8F9
:105510000C101B2A00F2AF8008360AF11002316825
:10552000116071685160B16891600AEB0501C5EBCB
:105530000B0242F0010299604A60DAF8043003F08D
:1055400001031D434846CAF80450FFF7B1FE384630
:105550005CE733680360736843601B2A27D800F157
:10556000080306F10802F2E63B4632681A607268E8
:105570005A60B2689A603E467446D04633E708EBFC
:105580000501C5EB0B0B4BF0010299604A6056F820
:10559000043C03F001031D43484646F8045CFFF752
:1055A00087FE304632E73146FFF71CFED5E6B3688A
:1055B0008360F368C360242A28D000F1100306F149
:1055C0001002C4E650F8043C23F003031C440AE72D
:1055D000314638467446D046FFF704FE3E4602E7A1
:1055E0003A46F7E6314638461C46D046FFF7FAFD04
:1055F0003E46F8E6B368CAF81030F368CAF81430CB
:10560000242A1BD010360AF11803AEE73369036170
:105610007369436106F1180200F1180397E600BFB1
:105620003C12FF1FB168CAF81010F168CAF81410D4
:10563000242A0FD010360AF11802CBE63369CAF8D3
:1056400018307369CAF81C3018360AF120038CE749
:105650003A4664E73269CAF818207269CAF81C2011
:1056600018360AF12002B5E6314638460193FFF7B5
:10567000B9FD019B59E7B168CAF81010F168CAF882
:105680001410242A03D010360AF1180247E73269B1
:10569000CAF818207269CAF81C2018360AF12002CC
:1056A0003DE700BF38B5074C002305460846236098
:1056B000FDF7DEFA431C00D038BD2368002BFBD079
:1056C0002B6038BDE425FF1F024B13B1024800F0E8
:1056D00005B8704700000000E956000000230146AD
:1056E0001A46184600F04AB938B5074D074C2C1B2E
:1056F000A41005D0013C55F8043D9847002CF9D181
:10570000BDE8384001F00CB80000000000000000C7
:10571000F8B5234F0C460646FFF7C8FDBB685D6829
:1057200025F00305291B01F6EF7121F47F6121F0BB
:105730000F01A1F58054B4F5805F07DB00213046EE
:10574000FFF7B0FFBB682B44984204D03046FFF708
:10575000AFFD0020F8BD61423046FFF7A3FF0130E6
:105760000DD0104BBA6819682D1B45F00105304665
:10577000091B55601960FFF79BFD0120F8BD002152
:105780003046FFF78FFFBA68831A0F2BDEDD064C19
:105790000449246843F00103001B53600860D5E707
:1057A0003C12FF1FA825FF1F4816FF1F002945D0E8
:1057B0002DE9F0410D468046FFF778FD55F8047C51
:1057C0006A4927F00103A5F10804E2188E685068C1
:1057D000B24220F0030062D0FE0750600BD455F8AF
:1057E000087CE41B01F1080EA56875453B446FD0A9
:1057F000E768EF60BD6015186D68ED0742D543F0AE
:1058000001026260E350B3F5007F18D2DB085A1C36
:105810004D6851F83270A76001209B1000FA03F325
:1058200001EBC2001D430838E0604D6041F8324092
:10583000FC604046BDE8F041FFF73ABD70475A0AA8
:10584000042A53D89A0902F139077F0002F138057A
:1058500001EB870051F827204449083890424DD089
:10586000516821F003018B4202D292689042F7D135
:10587000D068E060A2608460D4604046BDE8F0413A
:10588000FFF716BD95683A4FBD4203443FD0D0683C
:10589000E86043F0010285606260E350B3E7FF0710
:1058A000034407D455F8082CA41A1344A068E268EE
:1058B000C26090602F4A126843F00100934260601A
:1058C0008C60B6D32C4B40461968FFF721FFB0E738
:1058D00011184968C90744D49168D268CA60034462
:1058E00043F0010091606060E350A2E7142A17D8EA
:1058F00002F15C077F0002F15B05A9E7AA104B6883
:10590000012505FA02F213434B600246B1E743F06A
:1059100001024C610C61E560A5606260E35088E7BC
:10592000542A06D81A0B02F16F077F0002F16E05A8
:105930008EE7B2F5AA7F06D8DA0B02F178077F006E
:1059400002F1770584E740F25450824206D89A0C5F
:1059500002F17D077F0002F17C0579E7FE277E25B5
:1059600076E743F001026260E35062E73C12FF1FFA
:105970004412FF1F4416FF1FA425FF1F2DE9F04707
:10598000254C2568D5F848410646884692469946F2
:10599000C4B360681F2817DC431C76B104EB800594
:1059A0000122C5F888A0D4F8881182401143022E44
:1059B000C4F88811C5F808911ED00230636044F81D
:1059C00020800020BDE8F087144B03B34FF4C8706B
:1059D000FFF70EF90446D0B1D5F84831002780E82A
:1059E0008800C5F8484138460123C4F88871C4F8D6
:1059F0008C71002EE1D0D1E7D4F88C110A43C4F8A1
:105A00008C21DAE705F5A674C5F84841C1E74FF0E7
:105A1000FF30BDE8F08700BF04670000F14B0000D5
:105A2000037B034CCD6C03AB03365676006804024F
:105A3000CB47A202180400058BC1010C0400000032
:105A400000037F060CC92C979797038903264666A7
:105A5000006C022000024004000000000244040028
:105A600000000002480400000000024C0400000096
:105A70000002500400000000025404000000000274
:105A8000580400000000025C040000000002BC0496
:105A90000000000001EC0400004000037F060CC978
:105AA0002C9797970402030D355D040904872D3563
:105AB0003D00A3010000000001078601FE0741052B
:105AC000F120283038077E01300746019A07470445
:105AD000F1283038076C04F1283038021602000132
